:100000000020002051360000A9360000492A0000D7
:1000100000000000000000000000000000000000E0
:10002000000000000000000000000000A9360000F1
:100030000000000000000000A9360000A936000002
:10004000A9360000A9360000A9360000A936000034
:10005000E9250000A9360000A9360000A9360000F5
:10006000A9360000A9360000A9360000912500003D
:10007000A936000000000000A936000000000000C2
:100080000000000000000000A9360000A9360000B2
:10009000A9360000A9360000A9360000310E000084
:1000A00000000000A9360000A93600000000000092
:1000B000A9360000A9360000A936000000000000A3
:1000C00010B5064C2378002B07D1054B002B02D02E
:1000D000044800E000BF0123237010BDCC000020C5
:1000E0000000000018470000044B10B5002B03D09F
:1000F0000349044800E000BF10BDC04600000000F6
:10010000D000002018470000402292029A1A92461E
:100110007047C046174B002B00D1134B9D46FFF78D
:10012000F3FF00218B460F461348144A121A03F0BE
:100130002CFC0E4B002B00D098470D4B002B00D011
:1001400098470020002104000D000D48002802D02F
:100150000C4800E000BF03F0EBFB2000290002F098
:1001600067FA03F0CFFBC046000008000000000063
:100170000000000000200020CC00002088060020A5
:10018000000000000000000080B586B000AFF860FD
:10019000B9607A6000237B611BE001227B699A4091
:1001A00013001A00BB68134010D0FB681B687A6903
:1001B0005200032191400A00D2431A407B695B0040
:1001C000796899400B001A43FB681A607B69013318
:1001D0007B617B690F2BE0D9C046C046BD4606B0A7
:1001E00080BD80B584B000AFF860B9607A60FB680C
:1001F0009A697B68190EBB6899400B001A43FB682B
:100200009A61FB68DA697B681B02190ABB6899402E
:100210000B001A43FB68DA61C046BD4604B080BDDE
:1002200080B584B000AF78603960164B1A6813004F
:100230009B009B185B001A003B689B001900100094
:1002400003F0D4FA030005330A21180003F0CEFAB4
:100250000300013BFB607B68FA681A617B681B68DE
:1002600040221A437B681A60064B1A68FB68013308
:100270009B001900100003F0B9FA03001800BD46F6
:1002800004B080BD5400002080B584B000AF786019
:1002900008001100FB1C021C1A70BB1C0A1C1A70FF
:1002A0000F23FB1801221A700E23FB1800221A706C
:1002B0000D23FB1800221A70434B00221A607B6842
:1002C0001B6828221A437B681A6066E03F4B1B6854
:1002D0001B09BB600EE0BB68013BBB60BB68002B29
:1002E00008D1394B012252421A600E23FB18012219
:1002F0001A7004E07B681B6808221340EBD07B680F
:10030000DB68302B1BD02CD8282B21D029D8202BD0
:1003100015D026D8082B02D0182B0BD021E0FB1CBF
:100320001B785B001A007B689A600D23FB1808227B
:100330001A7027E0BB1C1A787B689A6022E00D23B4
:10034000FB1818221A700E23FB1801221A7019E0EC
:100350000D23FB1818221A700F23FB1800221A70A5
:1003600010E07B681B683C22934318221A437B6889
:100370001A600D23FB1808221A700E23FB180122A5
:100380001A70C0467B681B683C2293431A000D23F9
:10039000FB181B781A437B681A600F23FB181B7825
:1003A000002B04D00E23FB181B78002B8ED00E23BD
:1003B000FA180F23FB1812781B781343DBB21800CE
:1003C000BD4604B080BDC046E800002054000020B7
:1003D00080B588B000AFF8607A603B600B23FB18F3
:1003E0000A1C1A701F23FB1801221A701E23FB1807
:1003F00000221A701D23FB1800221A700023BB6113
:10040000424B00221A60FB681B6828221A43FB68D3
:100410001A606CE03E4B1B681B097B610AE07B693C
:10042000013B7B617B69002B04D1384B0122524296
:100430001A6004E0FB681B6808221340EFD0FB68D9
:10044000DB68302B2ED036D8282B14D033D8202B75
:1004500028D030D8082B02D0182B0CD02BE00B233F
:10046000FB181B785B001A00FB689A601D23FB18C1
:1004700008221A7030E0BA693B689A4209D2BB6917
:100480005A1CBA617A68D3181B781A00FB689A6004
:1004900022E01D23FB1818221A701F23FB180022CC
:1004A0001A7019E01D23FB1818221A701E23FB185E
:1004B00001221A7010E0FB681B683C22934318224B
:1004C0001A43FB681A601D23FB1808221A701E23AA
:1004D000FB1801221A70C046FB681B683C2293433C
:1004E0001A001D23FB181B781A43FB681A601F2390
:1004F000FB181B78002B04D01E23FB181B78002B45
:1005000088D0BB691800BD4608B080BDE800002057
:100510005400002080B588B000AFF86008001100DA
:100520007B600B23FB18021C1A700A23FB180A1CA1
:100530001A701F23FB1801221A701E23FB180022B9
:100540001A701D23FB1800221A700023BB61464B52
:1005500000221A60FB681B6828221A43FB681A6095
:1005600072E0424B1B681B097B610AE07B69013B1F
:100570007B617B69002B04D13B4B012252421A6004
:1005800004E0FB681B6808221340EFD0FB68DB68BF
:10059000302B1DD03CD8282B23D039D8202B17D076
:1005A00036D8082B02D0182B0CD031E00B23FB18C7
:1005B0001B785B001A00FB689A601D23FB18082259
:1005C0001A7036E00A23FB181A78FB689A6030E04C
:1005D0001D23FB1818221A701E23FB1801221A7003
:1005E00027E0BA69BB6A9A4209D2BB695A1CBA6150
:1005F0007A68D3181B781A00FB689A6019E01D23EB
:10060000FB1818221A701F23FB1800221A7010E022
:10061000FB681B683C22934318221A43FB681A604C
:100620001D23FB1808221A701E23FB1801221A70C2
:10063000C046FB681B683C2293431A001D23FB182D
:100640001B781A43FB681A601F23FB181B78002BCA
:1006500005D01E23FB181B78002B00D181E7BB6956
:100660001800BD4608B080BDE800002054000020FE
:1006700080B588B000AFF8607A603B600B23FB1850
:100680000A1C1A701F23FB1801221A701E23FB1864
:1006900000221A701D23FB1800221A700023BB6170
:1006A000504B00221A60FB681B6828221A43FB6823
:1006B0001A6086E04C4B1B681B097B610AE07B6972
:1006C000013B7B617B69002B04D1464B01225242E6
:1006D0001A6004E0FB681B6808221340EFD0FB6837
:1006E000DB68582B3FD050D8502B24D04DD8482B06
:1006F00018D04AD8082B02D0402B0ED045E00B234F
:10070000FB181B785B00012213431A00FB689A60F8
:100710001D23FB1808221A7048E01D23FB180C2229
:100720001A7043E01D23FB1818221A701E23FB18B1
:1007300001221A703AE0FB689968BB695A1CBA61D9
:100740007A68D318CAB21A703B68013BBA699A42F8
:1007500004D21D23FB180C221A7027E01D23FB185E
:1007600008221A7022E0FB689968BB695A1CBA61BA
:100770007A68D318CAB21A701D23FB1818221A708F
:100780001F23FB1800221A7010E0FB681B683C2234
:10079000934318221A43FB681A601D23FB18082292
:1007A0001A701E23FB1801221A70C046FB681B68D2
:1007B0003C2293431A001D23FB181B781A43FB6845
:1007C0001A601F23FB181B78002B05D01E23FB1873
:1007D0001B78002B00D16DE7BB691800BD4608B03F
:1007E00080BDC046E80000205400002080B588B0DD
:1007F00000AFF860080011007B600B23FB18021C9F
:100800001A700A23FB180A1C1A701F23FB180122F6
:100810001A701E23FB1800221A701D23FB180022D9
:100820001A700023BB61684B00221A60FB681B68CA
:1008300028221A43FB681A60B5E0644B1B685B0909
:100840007B610AE07B69013B7B617B69002B04D102
:100850005D4B012252421A6004E0FB681B680822CB
:100860001340EFD0FB68DB68582B00D16DE000D956
:100870007DE0502B51D000D979E0482B44D000D9ED
:1008800075E0302B0AD8082B00D270E0083B282BEB
:100890006DD89A004E4BD3181B689F46402B2ED024
:1008A00065E00B23FB181B785B001A00FB689A605D
:1008B0001D23FB1808221A706AE00A23FB181A7815
:1008C000FB689A6064E01D23FB1818221A701E232F
:1008D000FB1801221A705BE01D23FB1828221A70F6
:1008E00056E00B23FB181B785B00012213431A0010
:1008F000FB689A601D23FB1808221A7048E01D232C
:10090000FB180C221A7043E01D23FB1818221A70E2
:100910001E23FB1801221A703AE0FB689968BB6934
:100920005A1CBA617A68D318CAB21A70BB6A013B02
:10093000BA699A4204D21D23FB180C221A7027E0D0
:100940001D23FB1808221A7022E0FB689968BB6916
:100950005A1CBA617A68D318CAB21A701D23FB18E0
:1009600018221A701F23FB1800221A7010E0FB686F
:100970001B683C22934318221A43FB681A601D230C
:10098000FB1808221A701E23FB1801221A70C04699
:10099000FB681B683C2293431A001D23FB181B783D
:1009A0001A43FB681A601F23FB181B78002B05D025
:1009B0001E23FB181B78002B00D13EE7BB691800F3
:1009C000BD4608B080BDC046E800002054000020AD
:1009D000B842000080B588B000AFF860B9607A60B6
:1009E000FB68180000F02EF903007B610023FB6117
:1009F0000023BB617B695B087A689A4202D90223B3
:100A0000FB6113E07968786902F0F0FE0300FB6196
:100A1000FB691B0EBB61BB69002B07D0BB690133AF
:100A20001900F86902F0E2FE0300FB61BA68BB69D5
:100A30001A43FB681A60FB68FA695A60BB690133A4
:100A4000FA6953431900786902F0D0FE03001800D8
:100A5000BD4608B080BD000090B58BB000AF786097
:100A600039607B68180000F0EDF803007B6200231A
:100A70003B6200233B617B6800221A607B68002296
:100A80005A617B6A694A93420ED83A68FA239B00FE
:100A90009A4202D2FA239B003B603B68634A93422E
:100AA0000DD9624B3B600AE03B68632B01D864239D
:100AB0003B603B685D4A934201D95C4B3B607B6A7B
:100AC0005A4A934215D800233B62796A584802F08B
:100AD0008DFE0300FB603A6813005B019B1A9B00CC
:100AE0009B18DB00F968180002F080FE0300BB6170
:100AF0004EE07B6A4F4A934205D907233B627B6AEB
:100B0000DB087B6212E07B6A4B4A934205D90323E0
:100B10003B627B6A9B087B6208E07B6A474A9342A0
:100B200004D901233B627B6A5B087B623B68F92B3B
:100B300009D83B687A6A53433C49180002F056FED4
:100B40000300BB6124E07B6A3849180002F0D4FE40
:100B50000B1E0AD17B6A3549180002F047FE0300DC
:100B60001A003B685343BB6112E0796A304802F0D7
:100B70003DFE0300FB603A6813005B019B1A9B007B
:100B80009B18DB00F968180002F030FE0300BB611F
:100B90007B68BA695A603B6A8022D2051A437B6837
:100BA0001A60274B1B68796A180002F01FFE0300C9
:100BB0000133FB6103E0C046FB69013BFB61FB695C
:100BC000002BF8D11E4B1C687B68180000F03AF827
:100BD00003001900200002F009FE03001A003B6A1E
:100BE00001335343FB617B68DB687B6112E07B6808
:100BF000DB687A699A4208D13B695A1C3A61FA6902
:100C00009A4207D201235B420BE000233B617B68E1
:100C1000DB687B617B681A6880239B041340E6D104
:100C200000231800BD460BB090BDC04640420F00E7
:100C300000CA9A3B0090D0030048E8010024F40069
:100C40005400002090B58DB000AF78600823FB18E9
:100C50002A4A13CA13C313CA13C303CA03C37B6844
:100C6000274A934206D1274B5B691B0A0722134090
:100C7000FB6222E07B68244A934206D1214B5B69E8
:100C80001B0B07221340FB6217E07B681F4A93424D
:100C900006D11C4B5B691B0C07221340FB620CE066
:100CA0007B681B4A934206D1164B5B691B0D0722DA
:100CB0001340FB6201E000231BE0FB6A022B11D111
:100CC0007B680F4A934203D07B680F4A934204D15A
:100CD00001F06EFD0300BB620AE001F07FFD03003E
:100CE000BB6205E00823FB18FA6A9200D358BB6286
:100CF000BB6A1800BD460DB090BDC0465C43000005
:100D0000000001400002005020000140000011409E
:100D10002000114080B582B000AF0200FB1D1A70A8
:100D2000FB1D1B787F2B09D8FB1D1B781A001F2386
:100D30001A40044B012191400A001A60C046BD468A
:100D400002B080BD00E100E080B582B000AF0200DB
:100D5000FB1D1A70FB1D1B787F2B10D8FB1D1B7809
:100D60001A001F231340084901229A4013008022D1
:100D70008B50BFF34F8FC046BFF36F8FC046C04646
:100D8000BD4602B080BDC04600E100E080B584B041
:100D900000AFF860B9607A6007E0BA68531CBB60C6
:100DA000FB68591CF96012781A707B685A1E7A60C9
:100DB000002BF2D1C046C046BD4604B080BD000045
:100DC00080B586B000AF0200FB1D1A7000237B6166
:100DD00021E07B691B01144A944663443B613B69F3
:100DE0001B68FB60FB680F221A40FB1D1B789A42B0
:100DF0000ED17B691B010D4A944663443B613B69FC
:100E00001B68FB603B69FA6802210A431A6006E02E
:100E10007B6901337B617B69072BDADDC046C04605
:100E2000BD4606B080BDC046080506400C0506401C
:100E300080B582B000AF654B5B687B60634B1B691C
:100E40000F2213403B607B680422134014D05F4B99
:100E500004225A605D4B5B690122134006D05B4B54
:100E60001A695A4B90210A431A6105E0574B1A69D7
:100E7000564B80218A431A617B680122134025D09A
:100E8000524B01225A603B68012213400AD04F4B5B
:100E90001A694E4B90210A431A6102F08BFB4C4BAE
:100EA00000221A603B680222134005D0474B1A69A2
:100EB000464B10218A431A613B680422134005D037
:100EC000424B1A69414B90210A431A617B68082200
:100ED000134002D03D4B08225A607B680222134027
:100EE00000D16FE07B68002B11DA384B80221206AC
:100EF0005A60384B1A68374B01210A431A60364B47
:100F00001A68354B01210A431A6001F0C7FE7A685E
:100F100080235B02134005D02C4B802252025A6082
:100F200002F056FA7A6880239B02134010D0274BB8
:100F3000802292025A6002F0E3FA284B5B78202B61
:100F400006D1264B1B79002B02D1002000F052F96C
:100F50007A688023DB02134005D01C4B8022D2022A
:100F60005A6000F03DF87A6880231B03134005D0D7
:100F7000164B802212035A6000F03CF87A688023F6
:100F80005B03134003D0114B802252035A607A68EE
:100F900080239B03134003D00C4B802292035A60A2
:100FA0007A688023DB03134003D0084B8022D203EE
:100FB0005A607A6880231B04134003D0034B8022BD
:100FC00012045A60C046BD4602B080BD0000064013
:100FD000EC0000200C0506401C05064028060020F9
:100FE00080B500AF024B00221A60C046BD4680BDEE
:100FF0000C06002080B500AF124BDA68E0231B031B
:101000001A40114B1B689A4203D1104B40221A60C0
:1010100015E00E4B1A680E4B1A600E4B1B680E4AF9
:10102000944663441A000D4B1A60064BDA68E023BD
:101030001B031A40044B1A60094B01221A70C04668
:10104000BD4680BD00000640EC000020340506408F
:101050000806002030050640000106400406002076
:101060001006002080B500AF144B00229A61144B8B
:10107000902292001A60134B08221A60124B8822A9
:1010800092001A60114B08221A60114B41221A601B
:10109000104B48221A60104B22221A600F4B8822F4
:1010A0001A600F4B40221A600E4B43221A600E4BFF
:1010B000C8221A60C046BD4680BDC046000006403A
:1010C00008050640000506401805064010050640C4
:1010D0002805064020050640380506403005064034
:1010E00034050640480506404005064080B582B0FC
:1010F00000AF3B00180001F0C1FD3B001B785BB264
:10110000002B27DA3B005B78212B1CD13B001B799D
:10111000002B0AD1314B1B68314A944663441800B6
:10112000304B07221900FFF731FE2F4B1A682E4B68
:1011300080210A431A602D4B07221A6000210020EB
:1011400002F0BEF945E00020FFF73AFE0120FFF76C
:1011500037FE3EE03B005B78202B20D0222B31D1A4
:101160003B001B79002B10D13B00DB789AB2204B5F
:101170001A801F4B1B881B021AB23B009B781BB2C4
:1011800013431BB29AB21A4B1A80174B1A68164BAC
:1011900080210A431A60154B00221A6019E03B00B7
:1011A0001B79002B04D10F4B0721180002F088F99E
:1011B0000D4B1A680C4B80210A431A600B4B00221E
:1011C0001A6006E00020FFF7FBFD0120FFF7F8FDA5
:1011D000C046C046BD4602B080BDC04600050640C0
:1011E00000010640100000200805064004050640E6
:1011F000F800002080B584B000AF0200FB1D1A701B
:10120000FB1D1B78002B00D088E00023BB600C2066
:10121000FFF79AFD434B00221A80434B00221A80AD
:10122000424B00221A80424B00221A80414B00227E
:101230001A80414B00221A80404B06229A60404B94
:101240001B685B083F4A9A183D4B1B681900100049
:1012500002F0CCFA0300023BBB60BA6880235B0259
:101260009A4211D3364B1B68374A94466344DA00DE
:10127000334B1B681900100002F0B8FA03001A097A
:101280002E4B023A5A6205E02C4BBA68C021890500
:101290000A435A622A4B5B79002B02D10023FB6080
:1012A0000FE0274B5B79012B02D10823FB6008E09C
:1012B000234B5B79022B02D11823FB6001E0002352
:1012C000FB601F4B9B79082B12D016DC072B0AD032
:1012D00013DC052B13D0062B00D00EE0FB68012297
:1012E0001343FB600CE0FB6802221343FB6007E042
:1012F000FB6803221343FB6002E0C04600E0C046E7
:101300000F4B1B79002B03D0FB6804221343FB60B7
:101310000A4BFA68DA600C20FFF7FCFCC046BD46B9
:1013200004B080BDB8050020BA050020BC0500202F
:10133000BE050020C0050020C205002000000540B9
:101340001000002000366E01C0C62D0080B582B0AE
:1013500000AF0200FB1D1A70FB1D1B787F2B09D804
:10136000FB1D1B781A001F231A40044B01219140DA
:101370000A001A60C046BD4602B080BD00E100E030
:1013800080B500AFA023DA0580235B005921D1503E
:10139000A023DA0580235B001621D150A023DA05B3
:1013A00080235B008821D150A023DA0580235B00D5
:1013B000D358002BE6D0C046C046BD4680BD80B5A0
:1013C00000AFA023DA0580235B000021D150C04686
:1013D000BD4680BD80B582B000AF78607B681B6879
:1013E0008022D2051A437B681A60C046BD4602B00F
:1013F00080BD000080B582B000AF78607B681B685C
:10140000034A1A407B681A60C046BD4602B080BDE0
:10141000FFFFFFBF80B582B000AF78607B681B68BC
:10142000802292051A437B681A60C046BD4602B00E
:1014300080BD80B582B000AF78607B689B68012278
:1014400013405A1E9341DBB21800BD4602B080BD66
:1014500080B582B000AF78607B6801229A60C04698
:10146000BD4602B080BD80B584B000AFF860B96001
:101470007A6007E0BA68531CBB60FB68591CF960CE
:1014800012781A707B685A1E7A60002BF2D1C0461F
:10149000C046BD4604B080BD80B500AF042001F059
:1014A00055FA102001F098FA0021042001F0ACF95F
:1014B000204B00220021180001F0E6F9E023DB02B6
:1014C0001D480022190001F0DFF9E023DB031B486F
:1014D0000022190001F0D8F9164B180001F050FA5B
:1014E000164B180001F04CFA154B180001F048FAA1
:1014F000114B180001F044FA02F028F9A023DB0593
:101500005A6BA023DB050F490A405A63A023DB0571
:101510005A6BA023DB05882149010A435A630A4B11
:101520005A6A094BC02109010A435A62C046BD46A6
:1015300080BDC0469B3C80720400005F0500405F98
:1015400009000040FF00FFFF0040005080B584B05C
:1015500000AF344B1B68002B60D1334B1B889BB210
:10156000002B52D0304B1B889BB2BB60BB68402B1A
:1015700001DD4023BB600023FB601BE02B4B1B887D
:101580009AB28023DB009A4202D3284B00221A80B1
:10159000264B1B889BB25A1C91B2244A11801A0018
:1015A000234B995C234AFB68D3180A1C1A70FB680A
:1015B0000133FB60FA68BB689A42DFDB01233B60C2
:1015C0003B6883F31088C046174B1B889AB2BB68F0
:1015D0009BB2D31A9AB2144B1A8000237B607B68AB
:1015E00083F31088C046BA680E4B1A60124B1B6812
:1015F000124A944663441800BA680E4B1900FFF76C
:1016000032FF0F4BBA681A6008E00D4B1B68BB60D5
:10161000BB68402B02D10A4B00221A60C046BD466F
:1016200004B080BD0C060020B8050020BA050020DB
:10163000B8010020C4050020200506400001064036
:101640002405064080B584B000AF78600023FB60BD
:101650002AE01C4B1B889AB28023DB009A4220D2DE
:10166000FB687A68D31800215956174B1B889BB228
:101670005A1C90B2144A10801A00C9B2134B9954E4
:10168000114B1B889AB28023DB009A4202D30E4B87
:1016900000221A800B4B1B889BB201339AB2094B74
:1016A0001A80FB680133FB607B68180002F096F932
:1016B0000200FB689A42CCD8C046C046BD4604B082
:1016C00080BDC046B8050020BC050020B801002040
:1016D00080B500AF184B1B889AB28023DB009A427A
:1016E00026D2164B1B889BB25A1C91B2134A11800A
:1016F0001A00134B0D219954104B1B889BB25A1C96
:1017000091B20E4A11801A000D4B0A2199540B4BCD
:101710001B889AB28023DB009A4202D3074B002237
:101720001A80054B1B889BB201339AB2024B1A8078
:10173000C046BD4680BDC046B8050020BC0500209F
:10174000B801002080B584B000AF786033E0224B50
:101750001800FFF73FFE204B14211800FFF77CF91B
:101760001E4B00221A601C4B14211800FFF774F95D
:101770001A4B01221A600F217B181A787B1801324C
:101780001A700FE0FFF7A4FF154B1800FFF75AFF80
:10179000FFF79EFFFFF7DAFE124A0F4B1100180009
:1017A000FFF75AF90F23FB181B78042BEAD80A4BD2
:1017B0001800FFF71FFE01227B689A401300DBB27E
:1017C00009481A007021FEF75FFD031EBFD1C04615
:1017D000C046BD4604B080BD00001140CC42005060
:1017E0004044000040420F000000124080B582B02B
:1017F00000AF00237B6039E0204B1B781A007B6828
:101800001A411300DB005BB2082213405AB21C4B92
:101810001B7819007B6819410B009B005BB2042107
:101820000B405BB213435BB2DAB2164B1B78190064
:101830007B6819410B005B00DBB202210B40DBB27D
:10184000D318DAB2104B1B7819007B6819410B00D2
:10185000DBB201210B40DBB2D318D9B20B4A7B6853
:10186000D3180A1C1A707B6801337B607B68052BD8
:10187000C2DDC046C046BD4602B080BD6801002042
:10188000690100206A0100206B0100206C0100202A
:1018900080B582B000AF00237B60E3E0774A7B68CD
:1018A000D3181B78072B51D8754B7A689200D35800
:1018B0001B68002B0BD0734A7B68D3181B7801334D
:1018C000D9B2704A7B68D3180A1C1A700AE06E4AB3
:1018D0007B68D3181B780133D9B26B4A7B68D31865
:1018E0000A1C1A70684A7B68D3181B78032B05D032
:1018F000644A7B68D3181B78022B15D1604B7A6839
:101900009200D3581A685E4B79688900CB58012140
:101910004A401A605B4A7B68D31800221A705A4A00
:101920007B68D31800221A70584B7A689200D358FB
:1019300001221A607B68DA00554BD218554B100013
:10194000190008231A0002F017F888E04B4A7B6858
:10195000D3181B780B2B1DD8484A7B68D3181B78EB
:10196000072B17D9494B7A689200D35801221A6085
:10197000434B7A689200D35801221A607B68DA00E0
:10198000434BD218444B1000190008231A0001F0F1
:10199000F3FF64E0394A7B68D3181B780D2B23D8FA
:1019A000364A7B68D3181B780B2B1DD9374B7A68C6
:1019B0009200D35801221A60314B7A689200D358B2
:1019C0001A682F4B79688900CB5801214A401A6068
:1019D0007B68DA002E4BD218304B10001900082318
:1019E0001A0001F0C9FF3AE0244A7B68D3181B783B
:1019F0000E2B17D1254B7A689200D35801221A601A
:101A00001F4B7A689200D35800221A607B68DA0074
:101A10001F4BD218224B1000190008231A0001F0A6
:101A2000ABFF1CE0154A7B68D3181B780F2B16D12F
:101A3000164B7A689200D35800221A60104B7A68CD
:101A40009200D35801221A607B68DA00104BD2183A
:101A5000144B1000190008231A0001F08DFF7B6859
:101A600001337B607B68052B00DC17E7084B3022D5
:101A700000219954C046BD4602B080BD6C010020D3
:101A800030000020140600201C0600201800002052
:101A900074010020484400005444000060440000E9
:101AA0006C4400007844000090B585B000AF02009F
:101AB000FB1D1A70BB1D0A1C1A70BB1D1A78FB1D7A
:101AC0001B7815481900FEF7DFFB144B1421180092
:101AD000FEF7C2FF0C243A19FB1D19780E480223A9
:101AE000FEF7C6FD20003B181B7899B23B185B78C7
:101AF0009BB21B029AB20E243B198A181A803B181B
:101B000002220021180001F040FF3B191B88180039
:101B1000BD4605B090BDC046000012400000114017
:101B200090B585B000AF0200FB1D1A70244B002257
:101B30000B211800FEF7A8FB224B14211800FEF71A
:101B40008BFF08217B18FA1D12781A707B1800226F
:101B50005A707A181A4802230B21FEF739FC194BE8
:101B600014211800FEF778FF154B00220B211800F6
:101B7000FEF78AFB134B14211800FEF76DFF0C24AF
:101B80003A190F4802230B21FEF772FD20003B1883
:101B90001B7899B23B185B789BB21B029AB20E2459
:101BA0003B198A181A803B1802220021180001F004
:101BB000ECFE3B191B881800BD4605B090BDC04621
:101BC000000012400000114080B582B000AF002339
:101BD0007B606AE17B681800FFF7B4FDB74B1B78A8
:101BE0001A007B681A411300012213400AD0B44B3B
:101BF0001B781A007B681A4113000122134001D0A0
:101C0000012200E00022FB1C1A701A7801210A4010
:101C10001A70FB1C1B78002B00D120E1A94B00227D
:101C20000B211800FEF730FB031E4FD0A64B7A683D
:101C30005200D35A013399B2A34B7A685200D15261
:101C4000A14B7A685200D25A96239B009A4226D919
:101C50009D4B7A6852009D49D1529D4B7A68520043
:101C60000021D1529B4B7A6852000021D1529A4BED
:101C70007A6852000021D152984B7A6852000021B4
:101C8000D15201227B689A4013005AB2944B1B78C0
:101C90005BB213435BB2DAB2914B1A707BE08C4BB0
:101CA0007A6852008F49D1528A4B7A685200FA21E1
:101CB0004900D152884B7A6852008A49D152874BE9
:101CC0007A685200FA214900D15264E009210B20C0
:101CD000FFF7EAFE030019007D4B7A685200D152EB
:101CE0000A210B20FFF7E0FE030019B2794B7A6856
:101CF0005200D15208210B20FFF7D6FE0300190035
:101D0000794B7A685200D15215210B20FFF7CCFE97
:101D100003001900704B7A685200D15214210B2035
:101D2000FFF7C2FE030019006C4B7A685200D152D3
:101D300016210B20FFF7B8FE030019006B4B7A68E1
:101D40005200D1520D210B20FFF7AEFE0300D9B295
:101D5000674A7B68D3180A1C1A705120FFF7E0FE0F
:101D600003001900634B7A685200D1525F4B7A68C6
:101D70005200D35A1A00202313400CD001227B6852
:101D80009A4013005AB2564B1B785BB213435BB2B6
:101D9000DAB2534B1A70544B7A685200D35A564AEF
:101DA00093420FD901227B689A4013005BB2DB4358
:101DB0005BB2524A127852B213405BB2DAB24F4B66
:101DC0001A7028E04A4A7B68D3181B78612B15D813
:101DD000404B7A685200D35E002B0FDC01227B68F7
:101DE0009A4013005BB2DB435BB2444A127852B2B2
:101DF00013405BB2DAB2414B1A700CE001227B68EF
:101E00009A4013005AB23D4B1B785BB213435BB24E
:101E1000DAB23A4B1A70364A7B68D3181B78612BBA
:101E20000DD901227B689A4013005AB2344B1B78BB
:101E30005BB213435BB2DAB2314B1A7032E001226B
:101E40007B689A4013005BB2DB435BB22C4A12788A
:101E500052B213405BB2DAB2294B1A7022E01C4B2B
:101E60007A6852000021D1521A4B7A685200002140
:101E7000D1521D4B7A6852000021D1521C4A7B6816
:101E8000D31800221A70194B7A6852000021D152DF
:101E9000114B7A6852000021D152104B7A685200DF
:101EA0000021D1527B6801337B607B68052B00DC0D
:101EB00090E6C046C046BD4602B080BD6801002025
:101EC0006901002000001240A80100205902000012
:101ED0000C010020180100203C01002048010020D6
:101EE000B4010020A04100002401002030010020A6
:101EF000540100205C010020350D00006A01002023
:101F00006B01002080B582B000AF3F4A3F480223FA
:101F10002121FEF7ADFB00237B6066E07B681800A3
:101F2000FFF710FC384B1B781A007B681A4113002E
:101F30000122134028D0364B1B781A007B681A41C7
:101F40001300012213401FD115210B20FFF7ACFD18
:101F5000030019002F4B7A685200D1522E4B7A6839
:101F60005200FA214900D15201227B689A401300A5
:101F70005BB2DB435BB2294A127852B213405BB2C8
:101F8000DAB2264B1A702DE01F4B1B781A007B68C3
:101F90001A4113000122134024D11D4B1B781A0053
:101FA0007B681A411300012213401BD0194B7A6839
:101FB00052000021D152184B7A6852000021D152B0
:101FC00001227B689A4013005AB2144B1B785BB213
:101FD00013435BB2DAB2114B1A70114B7A6852009C
:101FE0000021D1527B6801337B607B68052B95DD36
:101FF000054B1B780B4A12781340DAB2044B1A7067
:10200000C046BD4602B080BDFC000020000012406A
:10201000690100203C01002048010020B40100209B
:10202000A80100206801002090B587B002AF00230E
:10203000FB605BE0FB681800FFF784FB08243B199A
:102040002E4802220092FF220921FEF7CFFB220038
:10205000BB181B78302B3FD1BB185B78002B3BD1D2
:102060000122FB689A4013005AB2254B1B785BB2E1
:1020700013435BB2DAB2224B1A70224B1F48022282
:1020800000923F220921FEF745FA1F4B1B4802220E
:10209000009239220921FEF73DFA3B1D1748022222
:1020A000009239220921FEF7A1FB184B13480222A6
:1020B000009212220921FEF799FB144B5B786022F3
:1020C0009343DAB2114B5A70104B0C480222009223
:1020D00012220921FEF71EFA0823FB180222002112
:1020E000180001F052FCFB680133FB60FB68052B14
:1020F000A0DDC046C046BD4605B090BD0000124000
:1021000068010020480000204C0000200801002049
:1021100080B582B000AF7860214B7A685200D35A04
:10212000DBB20F229343DAB21E4B1A701C4B7A6853
:102130005200D35A1B0A9BB2DBB27F221340DAB2A1
:10214000184B5A70184B7A685200D35A5B089BB2EE
:10215000DBB23F229343DAB2144B1A70124B7A6807
:102160005200D35A5B0A9BB2DBB21F221340DAB291
:102170000E4B5A700E4B1B781A007B681A411300E5
:102180000122134005D00B4B1B7801221343DAB216
:1021900000E00022074B1A70C046BD4602B080BD69
:1021A0003C01002000010020480100200401002023
:1021B000B40100200801002090B589B000AF0200F2
:1021C000BB1D1A807B1D0A1C1A707B1D1B78002BFF
:1021D0000AD1BB1D1A883B490C23FB18180001F0DB
:1021E000DDFB0300BB6135E07B1D1B78102B08D1A4
:1021F000BB1D1A8834490C23FB18180001F0CEFBD4
:1022000028E07B1D1B780A2B24D1BB1D1B88002BCB
:1022100008D1BB1D1A882B490C23FB18180001F0AC
:10222000BDFB17E0BB1D1B88284A9A1825490C24C2
:102230003B19180001F0B2FB21007B1804229A56CA
:102240007B18DA707B1805229A567B181A717B1856
:102250002E225A710023FB612BE01D4B1B889AB282
:102260008023DB009A4221D20C23FA18FB69D31891
:1022700000215956174B1B889BB25A1C90B2154A25
:1022800010801A00C9B2144B9954124B1B889AB291
:102290008023DB009A4202D30E4B00221A800C4BA3
:1022A0001B889BB201339AB2094B1A80FB69013338
:1022B000FB61FB69072BD0DDC046C046BD4609B0B7
:1022C00090BDC046844400008C44000055F5FFFFDB
:1022D000B8050020BC050020B801002080B584B0FE
:1022E00002AF00237B6033E01D4B1B781A007B6834
:1022F0001A4113000122134027D07B681800FFF712
:1023000021FA184B18480222009212220921FEF7E6
:102310006DFA7B681800FFF7FBFE144B124802228F
:10232000009215220921FEF7F5F8114B0E48022202
:10233000009214220921FEF7EDF80A4B0A48022206
:10234000009212220921FEF7E5F87B6801337B60D9
:102350007B68052BC8DDC046C046BD4602B080BDC7
:102360006801002008010020000012400001002048
:102370000401002080B588B000AF8023DA006F4BE5
:102380000021180001F001FB6D4B00221A80FFF7BD
:102390009FF96C4B1800FFF755F9FFF799F96A4B55
:1023A0001800FFF74FF9694B1800FFF74BF9FFF7DB
:1023B0008FF9674B1800FFF745F90023FB610AE02E
:1023C000644BFA695200D35A00211800FFF7F4FE5B
:1023D000FB690133FB61FB69052BF1DDFFF778F940
:1023E0005D4B1800FFF72EF90023BB6112E05B4B39
:1023F000BA695200D35E1A1C13B2002B01DA002313
:102400001A1C13B29BB200211800FFF7D5FEBB695E
:102410000133BB61BB69052BE9DDFFF759F9504B6F
:102420001800FFF70FF900237B610AE04D4B7A6932
:102430005200D35A0A211800FFF7BEFE7B69013310
:102440007B617B69052BF1DDFFF742F9464B1800F4
:10245000FFF7F8F800233B610BE0444A3B69D318CF
:102460001B789BB200211800FFF7A6FE3B690133E1
:102470003B613B69052BF0DDFFF72AF93C4B180067
:10248000FFF7E0F80023FB600AE03A4BFA685200DD
:10249000D35A10211800FFF78FFEFB680133FB6051
:1024A000FB68052BF1DDFFF713F9334B1800FFF73D
:1024B000C9F80023BB600AE0304BBA685200D35A17
:1024C00010211800FFF778FEBB680133BB60BB68C2
:1024D000052BF1DDFFF7FCF8294B1800FFF7B2F8E8
:1024E00000237B600AE0274B7A685200D35A002110
:1024F0001800FFF761FE7B6801337B607B68052B6A
:10250000F1DDFFF7E5F8204B1800FFF79BF80023FB
:102510003B600AE01D4B3A685200D35A0021180074
:10252000FFF74AFE3B6801333B603B68052BF1DD5A
:10253000FFF7CEF8C046BD4608B080BDB801002008
:10254000BC05002094440000D44400007401002025
:10255000E84400000C010020FC44000018010020A9
:1025600010450000240100202445000054010020F3
:1025700038450000300100204C4500005C0100207F
:10258000604500003C010020744500004801002027
:1025900080B500AF124B1800FEF74BFF0300012B74
:1025A0001AD10F4B1800FEF753FFFFF70DFBFFF793
:1025B00095FEFFF71BF9FFF76BF90A4B1B78013308
:1025C000DAB2084B1A70074B1B78012B04D9054B64
:1025D00000221A70FFF7CEFEC046BD4680BDC04641
:1025E00020001140A501002080B582B000AF0E4B45
:1025F0001A6A8023DB01134006D00B4B8022D201E4
:102600001A62FFF77FFC0BE0084B1B6A7B60074BED
:102610007A681A62044B1B6A7B60034B7A681A6201
:10262000C046BD4602B080BD404000500040005052
:1026300080B500AFFEF7A4FEFEF72EFFFEF7BFFE4B
:102640004E4B012201211800FDF79EFD4B4B01224C
:1026500002211800FDF798FD484B012204211800C3
:10266000FDF792FD454B012208211800FDF78CFD76
:1026700080235B00414801221900FDF785FD80237E
:102680009B003E4801221900FDF77EFD8023DB0000
:102690003A4801221900FDF777FD80231B013748D6
:1026A00001221900FDF770FD80235B0133480122F0
:1026B0001900FDF769FD80239B01304801221900B4
:1026C000FDF762FD2E4B012210211800FDF75CFD85
:1026D0002B4B012220211800FDF756FD29492A4BDA
:1026E0000022180000F07AFAFEF7BCFC00F0A8FA0D
:1026F000264B1A68264B1A60254B1A68254B1A6020
:10270000254B10225A601720FEF720FE234A244B47
:1027100011001800FDF784FDFFF786FCFFF7F2FBC0
:10272000204B022208211800FDF72EFD1E4B01222E
:102730001A6080231B051D4801221900FEF74AF983
:102740001A4B1800FEF766FE0B20FEF7FFFD174B35
:102750001800FEF73FFE8023DB0109480022190024
:10276000FDF712FD064B01220E211800FDF739FD81
:102770000420FEF7EBFDFEF7E9FEFCE78040005089
:1027800040400050ED1000002444000010010050B3
:10279000F0000020F4000020000006401027000098
:1027A00000001240C0400050CC42005020001140B8
:1027B00080B500AF00F0CAFF064B1B6940221340F2
:1027C00003D0054B1B685B0801E0034B1B68180036
:1027D000BD4680BD000200505400002080B500AF0F
:1027E00000F0B4FF064B1B698022134003D0054B59
:1027F0001B685B0801E0034B1B681800BD4680BDE9
:10280000000200505400002080B584B000AF786012
:1028100039601C4BDB6810221340FB60194B1A68AF
:10282000184B04210A431A60102000F0D5F8154B0C
:102830001B69072293431A00124B04210A431A61B1
:10284000104B9B690F22934319000E4B3A680A43C1
:102850009A610C4B1B69072293431900094B7A6854
:102860000A431A6100F072FFFB68002B05D1054B8B
:102870001A68044B04218A431A60C046BD4604B05E
:1028800080BDC04600020050B0B58CB000AFF8600B
:10289000B9607A60FB689B0AFF22134022D00023B4
:1028A0007B62FB689B0C032213409B0030229B1829
:1028B000DB190C3B1B68224A94466344FB62FB6AAB
:1028C0001B68FA68920AFF211140FA6852091F201A
:1028D000024091400A00D2431A401100FB6A7A6814
:1028E0000A431A60FB685B0E0722134024D01421B0
:1028F0007B18144A31CA31C312681A60FB681B0F77
:1029000003221A407B189200D3580F4A944663441E
:10291000BB62BB6A1B68FA68520E07211140FA6855
:10292000120D1F20024091400A00D2431A401100AC
:10293000BB6ABA680A431A60C046BD460CB0B0BD57
:1029400018020050884500001002005080B582B087
:1029500000AF7860094B1A687B6813430322134069
:10296000032B06D0054B1968044B7A680A431A609A
:1029700000E0C046BD4602B080BDC0460002005027
:10298000B0B586B000AF78600C243B19104A23CA5A
:1029900023C37B689A0F3B199200D3580D4A944683
:1029A00063441A687B681F210B40012199400B008A
:1029B00018007B68990F3B198900CB5805498C4654
:1029C000634402431A60C046BD4606B0B0BDC0466F
:1029D000984500000402005080B584B000AF7860D4
:1029E000124B1B689B08FB600123BB60104B00224D
:1029F0001A6008E0FB68013BFB60FB68002B02D11A
:102A00000023BB6006E00B4BDB687A6813407A68F2
:102A10009A42EFD1FB68002B03D1054B01225242B1
:102A20001A60BB681800BD4604B080BD5400002089
:102A3000240600200002005080B582B000AF78600C
:102A4000C046BD4602B080BD80B500AF7046EFF312
:102A50000881EFF30982034B98470047C046BD4603
:102A600080BD0000692A000080B586B000AFF86024
:102A7000B9607A60FB680422134002D07B687B61F6
:102A800001E0BB687B617B691800FFF7D5FFFEE7BB
:102A900080B582B000AF78600C4B1A680C4B796837
:102AA0004A435A600A4B00229A60094B05221A6079
:102AB000C046074B1A6880235B021340F9D0044BD1
:102AC00000221A60C046BD4602B080BD58000020FA
:102AD00010E000E080B584B000AFF860B9607A60C3
:102AE00007E0BA68531CBB60FB68591CF960127898
:102AF0001A707B685A1E7A60002BF2D1C046C0461D
:102B0000BD4604B080BD000080B586B000AF0200B5
:102B1000FB1D1A7000237B6121E07B691B01144AB5
:102B2000944663443B613B691B68FB60FB680F2272
:102B30001A40FB1D1B789A420ED17B691B010D4A7E
:102B4000944663443B613B691B68FB603B69FA68E0
:102B500002210A431A6006E07B6901337B617B69CD
:102B6000072BDADDC046C046BD4606B080BDC04674
:102B7000080506400C05064080B586B000AF02008F
:102B8000FB1D1A7000233B6119E03B691B01114AD0
:102B9000944663447B617B691B68FB60FB680F2282
:102BA0001A40FB1D1B789A4206D13B691B010A4A59
:102BB000944663447B6105E03B6901333B613B69BB
:102BC000072BE2DD7B691B68022213401800BD461B
:102BD00006B080BD080506400C05064080B584B0EF
:102BE00000AFF860B9607A60104BFA681A60104B59
:102BF000BA681A600F4B7A681A600C4B1B681B6826
:102C000007331B781A000C4B1A600C4BFA22D200C7
:102C10001A610A4A9023D35808490122134390228B
:102C20008B50C046BD4604B080BDC0465C06002047
:102C300064060020680600205000002000000640C6
:102C400080B500AF0B4B1800FFF722FF0A4A902314
:102C5000D35809490122934390228B50064B0F22EF
:102C60005A60054B1A68044B0F210A431A60C0468C
:102C7000BD4680BDA08601000000064080B582B040
:102C800000AF786004497B6808221800FFF722FF34
:102C9000C046BD4602B080BD2806002080B500AF0A
:102CA0001F4B00221A601F4B9B691F4A99181F4B2C
:102CB00008221800FFF70EFF1C4B1B781A00602338
:102CC0001340402B10D017DC002B02D0202B03D058
:102CD00012E000F055F91FE0154B1B68002B18D0CF
:102CE000134B1B68984714E0124B1B68002B12D043
:102CF000104B1B6898470EE00F4B1A680E4B0221D1
:102D00000A431A600D4B1A680C4B02210A431A60E1
:102D100002E0C04600E0C046C046BD4680BDC04699
:102D2000580600200000064000010640280600204A
:102D300064060020600600200C0506401C050640C5
:102D400080B584B000AF874B00221A700023FB606F
:102D5000854BDB79FB60FB681B02FB60824B9B7938
:102D60001A00FB689B18FB607F4BDB78222B00D995
:102D7000E6E09A007D4BD3181B689F46FB68122B38
:102D800000D91223FB607A4B1B681B68FA6811009C
:102D9000180000F0C5FAE0E0754B1B685B68033370
:102DA0001B787B60724B1B685B6802331B781A00D0
:102DB0007B681B02D3187B60FA687B689A420DD946
:102DC0007B68FB606B4B1A68FB681100180000F011
:102DD00093FD0B1E02D1634B01221A70644B1B68DA
:102DE0005B68FA681100180000F09AFAB5E0FB6819
:102DF000092B00D90923FB605D4B1B685A695A4BAC
:102E00001B799B00D3181B68BB60594B1B685A6821
:102E1000BB68D318FA681100180000F081FA9CE032
:102E2000534B1B681A69504B1B799B00D3181B68C6
:102E3000FA689A4214D94E4B1B681A694A4B1B799F
:102E40009B00D3181B68FB604A4B1A68FB68110093
:102E5000180000F051FD0B1E02D1424B01221A70E6
:102E6000434B1B68DA68404B1B799B00D3181B68E7
:102E7000FA681100180000F053FA6EE03A4B9B78A4
:102E8000032B30D83A4B1B689A68374B9B789B00D2
:102E9000D3181B681B781A00FB68934215D9344B72
:102EA0001B689A68304B9B789B00D3181B681B7873
:102EB000FB60304B1A68FB681100180000F01CFD25
:102EC0000B1E02D1274B01221A70294B1B689A68EE
:102ED000254B9B789B00D3181B68FA6811001800DB
:102EE00000F01EFA39E0244B1A68234B02210A43F2
:102EF0001A60224B1A68214B02210A431A602CE007
:102F00001B4B1B689B69002B0CD11B4B1A681A4B7F
:102F100002210A431A60194B1A68184B02210A430E
:102F20001A601AE0FB680C2B00D90C23FB60104BD5
:102F30001B689B69FA681100180000F0F1F90CE0B9
:102F40000D4B1A680C4B02210A431A600B4B1A688E
:102F50000A4B02210A431A60C046C046BD4604B06F
:102F600080BDC0465406002028060020A44500006D
:102F70005C060020500000200C0506401C050640A1
:102F800080B584B000AFD14B00221A60D04B002234
:102F90001A60D04B1B785BB2002B00DBC2E0CD4B3C
:102FA0005B780A2B28D000DDAFE0082B06D000DDCF
:102FB000ABE0002B37D0062B17D0A6E0C64B1A6823
:102FC000C64B1B68C6498C466344D2B21A70C54BC7
:102FD0001A68C44B80210A431A60C34B01221A604D
:102FE0000021002000F06CFA6BE1FFF7A9FE002140
:102FF000002000F065FA64E1BC4B1A68B74B1B680F
:10300000B7498C466344D2B21A70B64B1A68B54BB6
:1030100080210A431A60B44B01221A60002100206B
:1030200000F04EFA4DE1AB4B1B78802B33D10F21D2
:103030007B1800221A70AE4B1B685B6807331B7845
:103040001A004023134005D07B187A18127801210A
:103050000A431A70A64B1B685B6807331B781A007B
:10306000202313400CD0A34B1B78DBB25B005AB279
:103070000F217B181B785BB213435AB27B181A706E
:10308000964B1B68964A944663441A000F23FB181C
:103090001B78137024E08F4B1B78812B07D18F4B4B
:1030A0001B688F4A9446634400221A7018E0894BCB
:1030B0001B78822B14D1874B1A79FB1C0F210A40F5
:1030C0001A70FB1C1B781800FFF756FD03005A1EF0
:1030D0009341DAB2814B1B6881498C4663441A7074
:1030E0007E4B1B68844A9446634400221A707D4BD1
:1030F0001A687C4B80210A431A607B4B02221A60BB
:103100000021002000F0DCF9DBE07C4B1A687B4BEF
:1031100002210A431A607A4B1A68794B02210A434A
:103120001A60CEE06B4B5B780B2B00D9BCE09A00A9
:10313000744BD3181B689F46664B9B78002B49D174
:10314000644B1B791A000F2313407B600023BB6084
:103150003CE06D49BA68A123DB0012018A18D3183C
:103160001B680F2213407A689A422CD10122BB6857
:103170009A4013001A00654B1B68134023D1624923
:10318000BB68634A1B01CB189B181B685E48022270
:1031900093431A00BB685E491B01C3185B181A6091
:1031A0005949BA68A123DB0012018A18D3181B6899
:1031B0005548802293431A00B968A123DB00090116
:1031C0004118CB181A60BB680133BB60BB68072B82
:1031D000BFD906E03F4B9B78012B02D1454B002223
:1031E0001A70404B1A683F4B80210A431A603E4BCD
:1031F00000221A6065E0374B9B781A00454B1A6035
:10320000384B1A68374B80210A431A60364B00222C
:103210001A6056E02F4B9B781A002F4B1A603E4BDA
:103220001B68002B02D03C4B1B6898472D4B1A683B
:103230002C4B80210A431A602B4B00221A6040E07D
:10324000244B9B78002B08D1224B1B790F22134073
:10325000DBB21800FFF758FC06E01E4B9B78012BF1
:1032600002D1244B01221A701E4B1A681D4B80217B
:103270000A431A601C4B00221A6022E0154B9B780F
:103280001A001A4B1A60254B1B68002B02D0234BE7
:103290001B689847134B1A68124B80210A431A6027
:1032A000114B00221A600CE0144B1A68134B0221D8
:1032B0000A431A60124B1A68114B02210A431A6022
:1032C000C046C046BD4604B080BDC046340600209E
:1032D00038060020280600204C0600200005064085
:1032E000000106400805064004050640500600207F
:1032F0005C06002030060020010106400C05064057
:103300001C05064030460000000006407006002004
:103310000C050000480600206C060020680600200E
:1033200080B582B000AF78603960224B1B683A6884
:103330009A4221D91F4B1B687A68D2181E4B1A601B
:103340001C4B1B683A68D21A1C4B1A601C4B1A683B
:103350001B4B80210A431A601A4B1B681A4A9818A3
:10336000144B1B681A007B681900FFF7B3FB174A60
:10337000104B1B68136018E00F4B00221A600F4BB4
:1033800000221A600E4B1A680D4B80210A431A6006
:103390000C4B1B680C4A944663443A6879681800E1
:1033A000FFF798FB094B3A681A60C046BD4602B069
:1033B00080BDC046500000203406002038060020A2
:1033C00008050640000506400001064004050640C9
:1033D00080B500AF304B1B68002B39D02E4B1A68DC
:1033E0002E4B1B689A421DD92D4B1B682D4A9818ED
:1033F0002D4B1968294B1B681A00FFF76BFB2B4AF2
:10340000264B1B681360254B1A68274B1B689A18BC
:10341000254B1A60214B1A681F4B1B689A1A1E4BCA
:103420001A6036E01E4B1B681E4A98181E4B19681E
:10343000194B1B681A00FFF74DFB1C4A164B1B6803
:103440001360194B00221A60134B00221A6020E00F
:10345000174B1B78002B11D1154B5B78052B0DD129
:10346000144B9A68144B1B689A4207D0114B9B6807
:10347000002B03D10F4A104B1B6893600F4B1B7836
:10348000DBB2002B05D0094B00221A600B4B002247
:103490001A70C046BD4680BD38060020500000208E
:1034A00000050640000106403406002004050640E1
:1034B0002806002000000640480600205406002090
:1034C00080B582B000AF78603960084B7A681A60C6
:1034D000074B00221A60074B3A681A60064A074BEE
:1034E0001B681360C046BD4602B080BD3C0600208C
:1034F000400600204406002014050640500000202D
:1035000080B582B000AF224BDA68E0239B011A40FD
:10351000204B1B689A4233D01D4BDA68E0239B0195
:103520001A401C4B1A601C4B1A681C4B1B689A42B1
:103530002AD21B4B1B687B601A4B1B681A4A9446A5
:1035400063443B60194B1B6839687A681800FFF7C1
:10355000C1FA164B1A687B68D218144B1A600E4BCE
:103560001A687B68D2180C4B1A600B4B1A680B4B0D
:103570001B689A4208D20A4A0D4B1B68136003E08D
:10358000074A0B4B1B681360C046BD4602B080BDA6
:103590000000064058060020400600204406002097
:1035A0001405064010050640000106403C060020B8
:1035B0005000002080B582B000AF1D4B00221A6081
:1035C0001C4B00221A601C4B00221A601B4B00226D
:1035D0001A601B4B00221A601A4B00221A601A4B09
:1035E00008220021180000F0D0F900237B6015E0CC
:1035F00016497A68A123DB0012018A18D3181B68C8
:103600001248802293431A007968A123DB00090144
:103610004118CB181A607B6801337B607B68072BED
:10362000E6DD0A4B00229A60C046BD4602B080BD6E
:1036300034060020380600203C060020400600200A
:1036400044060020700600202806002000000640E6
:103650000B490C4A0C4B9B1A03DD043BC858D05055
:10366000FBDC0A480A4901600A4901600A49016015
:103670000A480B49016005480A490160FCF74AFD08
:103680002447000000000020CC0000200001005072
:1036900059000000160000008800000024000050BF
:1036A000A55A000000000000FEE7C04680B588B0C3
:1036B00000AF0023BB613B1D204A1A60204B1B6AF0
:1036C0007B617A69A023DB02134001D0002331E043
:1036D0007A6988231B04134002D01A4BFB6101E076
:1036E000194BFB617A6980239B02134001D0FB696F
:1036F00020E07B699B0B032213403A1DD35C3B61A6
:103700007B69DB05DB0D0233FB607B695B0A1F22F3
:1037100013400233BB60FB699B08FA685A431000F0
:10372000BB683A695343190000F060F803009B003E
:10373000BB61BB691800BD4608B080BD0102020430
:103740000002005000366E01001BB70080B584B047
:1037500000AF1F4B1B6907221340BB60FFF7A6FF9A
:1037600002001C4B1A60BB68022B03D0BB68052B00
:1037700004D008E0174B1B68FB6009E0154B1B6881
:103780005B08FB6004E0144BBA689200D358FB60FE
:103790000F4B9B690F22134001337B607968F868F7
:1037A00000F024F803001A000C4B1A600B4B1B6846
:1037B0000B4A944663440B49180000F017F80300C5
:1037C0001A00094B1A60C046BD4604B080BDC04611
:1037D000000200505C000020604600005400002001
:1037E00020A1070040420F0058000020002243089B
:1037F0008B4274D303098B425FD3030A8B4244D3B9
:10380000030B8B4228D3030C8B420DD3FF220902FA
:1038100012BA030C8B4202D31212090265D0030BB9
:103820008B4219D300E0090AC30B8B4201D3CB03AF
:10383000C01A5241830B8B4201D38B03C01A5241F1
:10384000430B8B4201D34B03C01A5241030B8B42F3
:1038500001D30B03C01A5241C30A8B4201D3CB02DE
:10386000C01A5241830A8B4201D38B02C01A5241C3
:10387000430A8B4201D34B02C01A5241030A8B42C6
:1038800001D30B02C01A5241CDD2C3098B4201D3DE
:10389000CB01C01A524183098B4201D38B01C01A5C
:1038A000524143098B4201D34B01C01A52410309D3
:1038B0008B4201D30B01C01A5241C3088B4201D382
:1038C000CB00C01A524183088B4201D38B00C01A2F
:1038D000524143088B4201D34B00C01A5241411A56
:1038E00000D20146524110467047FFE701B5002063
:1038F00000F006F802BDC0460029F7D076E7704711
:103900007047C046084B10B50400002B02D00021C0
:1039100000E000BF054B1868836A002B00D0984771
:10392000200000F0BBFCC046000000008046000004
:1039300070B500260C4D0D4C641BA410A64209D195
:10394000002600F0ADFC0A4D0A4C641BA410A642F0
:1039500005D170BDB300EB5898470136EEE7B300D0
:10396000EB5898470136F2E7C4000020C40000205D
:10397000C4000020C8000020002310B59A4200D1E6
:1039800010BDCC5CC4540133F8E7030082189342A5
:1039900000D1704719700133F9E700000EB400B58B
:1039A0000B499CB01DAB0290069007910491094809
:1039B000094904CB0591006802A9019300F05CF964
:1039C0000023029A13701CB008BC03B01847C0460D
:1039D000FFFFFF7F600000200802FFFF0023C25CA2
:1039E0000133002AFBD1581E704770477047000012
:1039F00070B50500002910D00C1F2368002B00DAD9
:103A0000E418280000F0EAFB1D4A1368002B05D1DA
:103A100063601460280000F0E9FB70BDA34208D980
:103A2000216860188342F3D118685B6841182160EF
:103A3000EEE71A005B68002B01D0A342F9D91168A8
:103A40005018A0420BD12068091850181160834209
:103A5000E0D118685B68411811605360DAE7A04252
:103A600002D90C232B60D5E721686018834203D16B
:103A700018685B684118216063605460CAE7C046FB
:103A80007C06002070B50F4E0D003168040000293F
:103A900002D100F073FB30602900200000F06EFBC3
:103AA000431C0AD00323C51C9D43A84207D0291AF2
:103AB000200000F063FB431C01D101256D4228006A
:103AC00070BDC04680060020F7B50322CB1C93438F
:103AD000083306001F000C2B32D20C27B94231D814
:103AE000300000F07BFB324D2B681C00002C2ED1E7
:103AF00039003000FFF7C6FF0400431C1ED12C68BC
:103B00002500002D4AD123682900E31830000193D5
:103B100000F034FB019B834243D123680337FF1A33
:103B200003239F4308370C2F00D20C2739003000A5
:103B3000FFF7A8FF431C34D02368DF19276013E088
:103B4000002BCBDA0C23002533602800FEBD226851
:103B5000D11B20D40B2917D9E2192760A34211D118
:103B60002A606368116053603000250000F03EFB5E
:103B700007220B35231D9543EA1A9D42E5D05B1BB6
:103B8000A350E2E75A60ECE76268A34201D12A60E1
:103B9000EAE75A60E8E723006468A7E72C006D684D
:103BA000AFE70C233000336000F020FBCDE7C046C8
:103BB0007C060020F0B58E6885B007000C000392EB
:103BC00001939E423CD890238A89DB001A4234D06C
:103BD0000969236860695B1A029303234343DD0F7D
:103BE000ED18019B029801331B186D10AB4200D9F0
:103BF0001D00530532D529003800FFF765FF061E6A
:103C000009D10C233B6040230120A2894042134389
:103C1000A38105B0F0BD029A2169FFF7ADFEA3892B
:103C2000144A1A4080231343A381029B2661F6188D
:103C300026606561019EED1AA560019B9E4200D938
:103C4000019E32000399206800F0B5FAA3680020B5
:103C50009B1BA36023689E192660DAE72A003800C0
:103C600000F0CCFA061EE0D138002169FFF7C0FE53
:103C7000C7E7C0467FFBFFFFF0B5A1B003901D0072
:103C80008B890F0016001B0611D50B69002B0ED176
:103C90004021FFF719FF38603861002805D10C2357
:103CA000039A0138136021B0F0BD40237B610023EB
:103CB00008AC6361203363761033A3760795350033
:103CC0002B78002B01D0252B47D1AB1B0593B54298
:103CD0000CD0320039000398FFF76CFF431C00D171
:103CE000AEE06269059B9446634463612B78002BC8
:103CF00000D1A5E0012200235242626004A954329F
:103D000052186E1C2360E360A3601370A365052244
:103D10003178544800F044FA751C00281FD12268FD
:103D2000D30604D5532304A95B1820211970130767
:103D300004D5532304A95B182B21197033782A2B3F
:103D400016D0350000210A20E3682A786E1C303A2C
:103D5000092A4ED9002911D117E00135B0E7414BAE
:103D60002268C01A0123834013432E002360CEE74C
:103D7000079B191D1B680791002B01DB0B9304E0C7
:103D80005B42E3600223134323602B782E2B0AD17E
:103D90006B782A2B35D1079B02351A1D1B680792B9
:103DA000002B2BDB0993304E03223000297800F0E2
:103DB000F7F9002806D04023801B83402268013594
:103DC000134323602978062228486E1C217600F0D0
:103DD000E7F900283CD0264B002B25D10722079B72
:103DE00007339343083307936369049A9B1863610D
:103DF00065E74343350001219B18A6E701235B4299
:103E0000D0E700230A201A000135636029786E1C70
:103E10003039092903D9002BC5D00992C3E74243A1
:103E2000350001235218F1E707AB00933A00210057
:103E3000104B039800E000BF0490049B0133D3D1E2
:103E4000BB890D985B0600D42DE7012040422AE78C
:103E500007AB00933A002100064B039800F07CF872
:103E6000EAE7C046E4460000EA460000EE460000ED
:103E700000000000B53B0000F7B5150001938A680B
:103E80000B690C000090934200DA130022002B60B3
:103E900043321278002A01D001332B6023689B063D
:103EA00002D52B6802332B602268062317001F40BF
:103EB0001A4227D0230043331B785A1E93412268AD
:103EC000920630D4220001990098089E4332B047F0
:103ED000431C25D0062320682A68E168002503409A
:103EE000042B03D18D1AEB43DB171D40A368226915
:103EF000934201DD9B1AED180027BD4220D100201E
:103F000010E00137E3682A689B1ABB42D2DD220029
:103F1000012301990098089E1932B047431CF0D143
:103F200001204042FEBD3020E118433108702100DD
:103F30005A1C45310978A218433202331170C1E787
:103F40002200012301990098089E1A32B047431CB1
:103F5000E6D00137D1E70000F0B58BB006920A0039
:103F600043320793059004920A7E0C00109B782A36
:103F700007D8622A09D8002A00D1C1E0582A00D106
:103F80008CE026004236327022E01000633815289B
:103F9000F7D800F06BF916001F00F6FFF6FFF6FFEA
:103FA000F6FF1F00F6FFF6FFF6FFF6FFA80036004B
:103FB0009A00F6FFF6FFB900F6FF3600F6FFF6FFAF
:103FC0009E0026001A684236111D1960136833706E
:103FD0000123A7E0086819680A1D05060BD50D68BE
:103FE0001A60002D03DA2D23049A6D421370614B81
:103FF0000A2703931BE00D681A604106F1D52DB224
:10400000EFE70D681968081D18602E0601D50D68C8
:1040100003E06D06FBD50D68ADB2564B0827039340
:104020006F2A00D002372300002243331A706368DE
:10403000A360002B03DB0422216891432160002D43
:1040400002D1049E002B0CD0049E28003900FFF7FB
:1040500053FC039B013E5B5C33702B0005009F42C9
:10406000F3D9082F09D12368DB0706D563682269D5
:10407000934202DC3023013E3370049B9B1B23617F
:10408000079B210000930598069B09AAFFF7F4FE01
:10409000431C4CD1012040420BB0F0BD45310A70A9
:1040A000344A03921A68216820CA1A60080616D595
:1040B000CB0702D52023194321601027002DB2D150
:1040C000202322689A432260ADE7202209680A4330
:1040D00022602200782145321170274AE1E7480624
:1040E000E6D5ADB2E4E71A680D68101D496918609D
:1040F00013682E0601D5196002E06D06FBD5198004
:104100000023049E2361BBE71A68111D196016681D
:1041100000213000626800F043F8002801D0801BC5
:104120006060636823610023049A1370A8E7236921
:10413000320006990598079DA847431CAAD023681A
:104140009B0715D4099BE0689842A5DA1800A3E7FD
:104150002200012306990598079E1932B047431C97
:1041600098D00135E368099A9B1AAB42F0DCE9E785
:104170000025F7E7F546000006470000002370B56C
:10418000064D040008002B6000F07AF8431C03D1B0
:104190002B68002B00D0236070BDC0467406002041
:1041A000C9B28218904201D10020704703788B4237
:1041B000FBD00130F6E710B5884202D98B1898423F
:1041C00003D3002307E08B5C8354013AFBD210BD7C
:1041D000CC5CC45401339A42FAD1F8E710B50248D6
:1041E000FFF703FC10BDC0467806002010B502485A
:1041F000FFF7FCFB10BDC04678060020F7B50700AE
:104200000E001400002905D11100FFF75DFC050028
:104210002800FEBD002A03D1FFF7EAFB2500F7E7DF
:1042200000F01BF80190844203D835004308A342F4
:10423000EED321003800FFF747FC051EE8D0019BB4
:1042400022009C4200D91A0031002800FFF794FB9D
:1042500031003800FFF7CCFBDAE70B1F1B68181F93
:10426000002B01DA0B58C0187047000003B47146E8
:10427000490840004900095E49008E4403BC70476C
:10428000044A03001068002802D0C3181360704766
:104290000148FAE78406002088060020FEE7C046B1
:1042A000F8B5C046F8BC08BC9E467047F8B5C04695
:1042B000F8BC08BC9E467047A20800006E090000CA
:1042C0006E0900006E0900006E0900006E09000012
:1042D0006E0900006E090000E20800006E0900008F
:1042E0006E0900006E0900006E0900006E090000F2
:1042F0006E0900006E090000BA0800006E09000097
:104300006E0900006E0900006E0900006E090000D1
:104310006E0900006E090000C60800006E0900006A
:104320006E0900006E0900006E0900006E090000B1
:104330006E0900006E090000D80800006E09000038
:104340006E0900006E0900006E0900006E09000091
:104350006E0900006E090000C6080000001BB700CF
:1043600000800000000000000000000000000000CD
:10437000102700000000000000366E01120110013D
:1043800002000040160402B0000301020301000015
:1043900009024300020100C03209040000010202C8
:1043A000010005240010010524010001042402007D
:1043B0000524060001070583030800010904010024
:1043C000020A000000070581024000000705020202
:1043D000400000000403090410034E00750076003D
:1043E0006F0074006F006E00200355005300420000
:1043F00020005600690072007400750061006C00B6
:10440000200043004F004D001A03410030003200ED
:10441000300031003400300039003000330030000B
:10442000350000007C4300009043000000000020A5
:10443000000000000000000000000000000000007C
:104440004932434661696C004272644E4578692086
:10445000000000004261744E4578692000000000B1
:1044600043687267457272200000000043687267FB
:10447000507263200000000043687267446F6E2032
:104480000000000025376420000000002523375875
:10449000200000004E756D626572202020202020D3
:1044A00020203A20202020202020302020202020E2
:1044B00020203120202020202020322020202020D9
:1044C00020203320202020202020342020202020C5
:1044D0002020350053746174652020202020202086
:1044E00020203A2000000000566F6C746167652040
:1044F0002020202020203A20000000004375727206
:10450000656E74202020202020203A20000000002A
:1045100054656D70657261747572652020203A2053
:1045200000000000436170616369747920202020DD
:1045300020203A20000000004261745374617475B9
:104540007320202020203A20000000004261745394
:10455000616665747953746174753A2000000000D7
:1045600042617444657369566F6C617467653A2083
:10457000000000004261744465736943757272659E
:104580006E743A20000000000000000004000000EB
:104590000C000000240000000000000004000000E7
:1045A0002C000000402F00007C2D0000982D000002
:1045B0007C2E0000402F0000402F0000402F000004
:1045C000402F0000402F0000402F0000402F00002F
:1045D000402F0000402F0000402F0000402F00001F
:1045E000002F0000402F0000402F0000402F00004F
:1045F000402F0000402F0000402F0000402F0000FF
:10460000402F0000402F0000402F0000402F0000EE
:10461000402F0000402F0000402F0000402F0000DE
:10462000402F0000402F0000EE2D0000202E000043
:10463000A832000038310000A832000040320000EB
:10464000A8320000F6310000A8320000A8320000B5
:10465000A832000014320000A83200007C320000B2
:10466000001BB7000080000000D8B805102700002C
:10467000006CDC02006CDC020000000000366E0101
:1046800064000020000000000000000000000000A6
:10469000000000000000000000000000000000001A
:1046A000000000000000000000000000000000000A
:1046B00000000000000000000000000000000000FA
:1046C00000000000000000000000000000000000EA
:1046D00000000000000000000000000000000000DA
:1046E00000000000232D302B2000686C4C00656614
:1046F0006745464700303132333435363738394133
:104700004243444546003031323334353637383948
:0C47100061626364656600000000000048
:08471C00ECB9FF7F0100000071
:10472400D4430000D8430000E843000008440000DC
:1047340000C2010000000800504200508C420050AA
:1047440084420050B4420050AC420050A442005095
:10475400544200508842005080420050B042005001
:10476400A8420050A0420050AC0D0000000400001C
:104774000800000000D8B8056000000000D8B805A3
:104784006400002000000000A4460000C4460000AD
:10479400844600000000000000000000000000004B
:1047A4000000000000000000000000000000000005
:1047B40000000000000000000000000000000000F5
:1047C40000000000000000000000000000000000E5
:1047D40000000000000000000000000000000000D5
:0C47E40000000000E9000000C10000001F
:040000030000365172
:00000001FF
