:100000000020002099250000F1250000F51D0000CA
:1000100000000000000000000000000000000000E0
:10002000000000000000000000000000F1250000BA
:100030000000000000000000F1250000F125000094
:10004000F1250000F1250000F1250000F125000058
:100050003D1A0000F1250000F1250000F125000007
:10006000F1250000F1250000F1250000F91900003C
:10007000F125000000000000F12500000000000054
:100080000000000000000000F1250000F125000044
:10009000F1250000F1250000F1250000ED09000028
:1000A00000000000F1250000F12500000000000024
:1000B000F1250000F1250000F125000000000000FE
:1000C00010B5064C2378002B07D1054B002B02D02E
:1000D000044800E000BF0123237010BDC8000020C9
:1000E000000000001C370000044B10B5002B03D0AB
:1000F0000349044800E000BF10BDC04600000000F6
:10010000CC0000201C370000402292029A1A92462E
:100110007047C046174B002B00D1134B9D46FFF78D
:10012000F3FF00218B460F461348144A121A02F0BF
:1001300074FC0E4B002B00D098470D4B002B00D0C9
:1001400098470020002104000D000D48002802D02F
:100150000C4800E000BF02F033FC2000290001F051
:1001600085FC02F017FCC0460000080000000000FB
:100170000000000000200020C800002068040020CB
:100180000000000000000000F0B503240023012659
:10019000A44634009C40214208D067465D00AF4031
:1001A0000468BC431700AF403C4304600133102B8C
:1001B000EFD1F0BD130E8B401202120A8A4010B527
:1001C000846923438361C3691A43C26110BDC04679
:1001D0000C4B70B51D680400A80040198900400050
:1001E00002F062FA0A21053002F05EFA4022431E54
:1001F00023612368810013432800236002F054FA2E
:1002000070BDC046580000203E4BF0B59C464E469F
:10021000454657460023DE4691466246E0B51360E8
:1002200028220368040013430360374B00261D682F
:100230004B00984600233C209A4683B02D09019339
:10024000203A2B0002E0013B002B3ED021680A42FD
:10025000F9D00021E368202B2AD012D8082B4CD0EB
:10026000182B38D14B46A3605346276887433B433E
:1002700023600029E5D0002E10D06346019A1A6051
:100280000CE0282B12D1002E02D06346019A1A608E
:100290003C2223689343243A13432360080003B0AD
:1002A000F0BCBB46B246A946A046F0BD302B12D1E9
:1002B000002E02D06346019A1A603C222368012175
:1002C0009343243A13432360E8E701235B4201266A
:1002D00001210193BEE7002E02D06346019A1A6005
:1002E0003C221821236893430B432360236817396A
:1002F0009343343A13432360D0E74746A760082767
:10030000BA46B2E7E400002058000020F0B5574696
:100310004E464546DE469B46002392462822E0B5DF
:100320002F4E0400336003683C27134303602D4BBA
:1003300000201D684B00994600239846013B9C46CF
:100340002D09203A290002E0013900292FD0236825
:100350001A42F9D0E368202B1DD00BD8082B35D0DA
:10036000182B27D153464146A3602368BB430B4358
:100370002360E7E7282B0CD1099B98420BD25B4600
:1003800041461B5C0130A3602368BB430B432360E1
:10039000D8E7302B0ED13C2223689343243A1343F1
:1003A0002360F0BCBB46B246A946A046F0BD6346FA
:1003B0003360CFE73C221821236893430B4323602B
:1003C00023689343343A13432360EAE74946A16024
:1003D0002168B9430B43236008239846B2E7C0461F
:1003E000E400002058000020F0B54E464546DE46A9
:1003F00057469446E0B500224E00012104003D48D6
:100400000E430260023928205B1883B001933C231D
:100410002268994602432260374A303B156892466B
:100420000020082288469B462D092B0002E0013B54
:10043000002B27D021680A42F9D0E368482B27D047
:10044000482B0AD8082B36D0402B28D149462368A0
:100450008B4359460B432360E7E7502B32D0582B90
:100460001DD16246A36813543C2223680130934394
:10047000243A1343236003B0F0BCBB46B246A946FE
:10048000A046F0BD43461B490B60E368482BD7D11B
:100490003C2223689343243A13432360EBE73C2236
:1004A0001821236893430B43236023689343343A12
:1004B00013432360DFE74F46A6602168B9430B432F
:1004C0002360B2E76546A168431C2954019999420B
:1004D0000AD9484621688143584601432160514664
:1004E0000D6818002D09A0E7484621688143114393
:1004F000F4E7C046E400002058000020F0B557465D
:100500004E464546DE46E0B585B00093504B02921C
:100510009C460023624613602822036804001343AC
:1005200003604B009A46012352461A43494B002070
:100530001D689B4601235B4299460E9B00274B4456
:100540000393454B08213C26984601926D092B00E8
:1005500002E0013B002B5AD022681142F9D0E36837
:10056000302B3BD8072B08D9083B282B05D842460F
:100570009B00D3589F46482B11D03C22182123685A
:1005800093430B43236023689343343A134323601C
:1005900005B0F0BCBB46B246A946A046F0BD3C2221
:1005A00023689343243A13432360F1E72822236806
:1005B0002827B34313432360C9E7029BA360236842
:1005C000B3433B432360C2E7019BA3602368082732
:1005D000B3430B432360BAE75346F6E7502B1AD0D8
:1005E0000CD9582BC9D1A368009A13543C22236814
:1005F00001309343243A13432360C9E7402BBAD117
:100600000C2223680C27B343134323609FE7634600
:100610004A461A60A3E7A268009D431C2A54039A25
:100620009A420AD90C2022680C27B2430243226066
:100630005A46156818006D0989E722681800B24308
:100640000A4322605A46156808276D097FE7C046AD
:10065000E4000020580000204833000070B588B046
:1006600069460A001B4B040061CB61C261CB61C2C9
:1006700021CB21C2184B9C4214D0184B9C4208D06D
:10068000174B9C4220D0174B00209C4213D008B03F
:1006900070BD154B5B695B045B0F022B08D101F049
:1006A000CBFAF4E7104B5B695B055B0F022BF6D0CE
:1006B0009B00C858EBE70C4B5B695B025B0F022B9E
:1006C000F6D101F0CBFAE2E7074B5B695B035B0F06
:1006D000F5E7C046EC330000000001402000014077
:1006E000000011402000114000020050F0B5C64645
:1006F00000B504000E001700FFF7B0FF0500430827
:10070000BB4217D3390001F0CFFF030E984601001A
:10071000002B07D05F1C390001F0C6FF39004346AB
:1007200041431E4326606060280001F0BDFF80BC8D
:10073000B846F0BD02210220F4E7C046F8B5CE4627
:10074000474680B504000D00FFF788FF00232360B3
:1007500063615F4B060098424FD829009D4200D943
:1007600085E0FA239B00994200D27EE04B015B1AA0
:100770009D006D185748310001F096FFED00010013
:10078000280001F091FF8023534DDB052F68606046
:1007900031002360380001F087FF0122431C90469E
:1007A000421C04D0C046013B002BFBD12F68200027
:1007B000FFF754FF0100380001F076FF4346802523
:1007C0004343E26818002368AD042B4210D0002197
:1007D00004E0E268236800212B4209D0E3689342D9
:1007E000F7D14B1C884256D3190023682B42F5D110
:1007F0000020C0BCB946B046F8BD2F009D422FD89E
:10080000642D28D3354B9E4219D908239846344B82
:10081000F6089946F92D31D838002D49704301F07A
:1008200043FF4B462C4D606031002360286801F087
:100830003BFF431CC046013B002BB3D1B6E7294B1D
:100840009E4239D8284B9E423CD902239846274BDA
:1008500076089946DEE7214B64279E42EFD9D4E71C
:100860001F001E4B9E42EAD9CFE719007EE7190010
:10087000FA239B00994200D378E7F6E706221C4B47
:100880007343D3411B4A934208D83000104901F00A
:100890000BFF7843C5E701204042AAE77801C01B5F
:1008A00080003100C7190B4801F0FEFEFF00010077
:1008B000380001F0F9FEB4E7042398460E4BB60861
:1008C0009946A7E7012398468023DB059946A1E7CF
:1008D00040420F0000CA9A3B580000200090D0030D
:1008E000070000400048E8010024F4000100004037
:1008F0003961C268C61000000300004080218023D7
:100900002F4A490170B5D150BFF34F8FBFF36F8F9E
:1009100000232C4A2C4E13802C4A2D4C13802D4A38
:1009200013802D4A13802D4A13802D4A13800633DD
:10093000B3602C4B25689C4668082900604401F090
:10094000B3FE802302385B02984228D3264B29004D
:10095000E818C00001F0A8FE000902387062627950
:100960000023002A08D0012A27D0023A531E9A41B8
:100970005342172293431833A279072A1AD0082A20
:1009800015D0062A10D02279002A01D00422134360
:100990000D4AD36080220A4B52011A6070BDC023F9
:1009A0009B0518437062DAE7053A1343EBE703222D
:1009B0001343E8E702221343E5E70823DCE7C046D8
:1009C00000E100E0E403002000000540E603002011
:1009D00044000020E8030020EA030020EC0300208C
:1009E000EE03002000366E01C0C62D000422594BD4
:1009F00070B55C681D69224207D05A605A69D207F7
:100A00004FD590211A690A431A610123234211D05C
:100A1000504A53602B4249D1AB0704D510214D4AAF
:100A200013698B4313616B0704D59021494A1369FD
:100A30000B4313610823234201D0464A5360A307A6
:100A40002ED5002C3CDB80235B021C424BD1802343
:100A50009B021C424FD18023DB021C4204D03D4A42
:100A6000536000223C4B1A6080231B031C4250D170
:100A700080235B031C4201D0364A536080239B03D2
:100A80001C4201D0334A53608023DB031C4201D057
:100A9000304A536080231B041C4201D02D4A53600E
:100AA00070BD80211A698A431A61AEE790211369EB
:100AB0000B43136101F03AFD0022284B1A60ABE7AB
:100AC00080220121234B12065A60254B1A680A43E3
:100AD0001A60244A13680B43136001F00FFC802353
:100AE0005B021C42B3D01B4A536001F049FC8023D7
:100AF0009B021C42AFD0174A536001F0C3FC1A4B53
:100B00005A78202AA7D11B79002BA4D1FFF7F6FE33
:100B1000A1E7E0200F4A11495360D3680D68000334
:100B20000340AB4211D0114B1D68114B1D60114D9C
:100B3000114BAC461B68114D63442B60D3680122F6
:100B400018400F4B08601A7092E74022074B1A605A
:100B50008EE7C04600000640F8030020E8000020B1
:100B60000C0506401C05064008040020340506401C
:100B7000F40300200001064030050640E003002099
:100B8000DC0300200022124B88219A619022114B35
:100B900092001A600823104A890013600F4A1160FE
:100BA0000F4A136041220F4B1A600F4B07321A6035
:100BB0000E4B263A1A600E4B66321A600D4B483ABD
:100BC0001A600D4B03321A600C4B85321A60704765
:100BD00000000640080506400005064018050640CE
:100BE0001005064028050640200506403805064049
:100BF00030050640340506404805064040050640DD
:100C000010B582B0684601F047F96B461B787F2B20
:100C100025D86B465B78202B00D16FE0222B5CD06F
:100C200000230F21424A9A181268114200D176E03F
:100C30001033802BF6D100230F2102E01033802BDC
:100C400032D03B4A9A1812680A40012AF6D1394A32
:100C50000221944663441A680A431A6024E06B46F2
:100C60005B78212B22D16B461B79002B10D1324BA4
:100C700032491A683248334B801AD3185418324A12
:100C8000944660441A000133195C1170A342F9D1F3
:100C90008021274A002013680B43136007222B4B47
:100CA00000211A6001F0D8FB02B010BD00230F2113
:100CB0001F4A9A181268114229D01033802BF7D19D
:100CC00000230F2102E01033802BEDD0184A9A1830
:100CD00012680A40012AF6D1B9E76B461B79002B4E
:100CE00003D16B465A881A4B1A808021104A136828
:100CF0000B4313600022154B1A60D5E76B461B7936
:100D0000002BF2D107210E4801F0A6FBEDE7094ABE
:100D10000221944663441A680A431A60D0E7054AE0
:100D20000221944663441A680A431A6083E7C04666
:100D3000080506400C050640000506400701064070
:100D40004400002000010640FFFEF9BF04050640F4
:100D5000F0030020F0B5CE464746254B80B59946B6
:100D60001B889BB29C461D00402B00DD402563463E
:100D7000002B15D000228026002390461D491E4CD2
:100D80001E4FB6000A88B24201D342460A80088844
:100D9000421C92B20A803A5CE25401339D42F1DC7B
:100DA000012383F310884B464A461B885B1B9BB28A
:100DB0001380002383F310886146114B1D60114B93
:100DC0001A68114BD31800290BD00B4C5819A41AD0
:100DD0000E4A944664441A000133195D117083422F
:100DE000F9D10B4B1D60C0BCB946B046F0BDC04642
:100DF000E4030020E60300209C0300209C01002067
:100E0000F80300202005064000010640FFFEF9BF60
:100E1000240506400D4B0E4819884A1C92B21A80D0
:100E20000D22425419884A1C92B21A800A22425456
:100E3000F7321988FF32914201D300221A80054A05
:100E4000138801339BB213807047C046E80300202B
:100E50009C010020E403002070B5042000F082FF14
:100E60001D4E102000F0A6FF0021042000F008FF16
:100E700030000022002100F041FFE021174C002249
:100E80002000C90200F03AFFE021154D0022C903FD
:100E9000280000F033FF300000F070FF280000F061
:100EA0006DFF104800F06AFF200000F067FF01F0BE
:100EB000A1FBA023DB055A6B0B490A405A63882229
:100EC000596B52010A435A63C023084A1B01516AF5
:100ED0000B43536270BDC0469B3C80720400005FB0
:100EE0000500405F09000040FF00FFFF0040005088
:100EF000F0B5D6464F464646C0B5804601F0B6FD31
:100F0000144B8027994600240023134D9A46134E14
:100F1000BF00844219D22B88BB4213D24346328889
:100F20001957531C9BB233804B4699543388BB42AC
:100F300001D3534633802B88404601339BB22B802C
:100F400001F094FD01348442E5D3E0BCBA46B146D9
:100F5000A846F0BD9C010020E4030020E803002027
:100F6000F0B501268640C6468023F6B200B5DB0503
:100F700032007021284800249846284DFFF744F994
:100F8000002845D042462B68142113432B60234888
:100F9000FFF7D4FB0023224F14213B601F48FFF7CB
:100FA000CDFB01230134E4B23B60052C25D1802523
:100FB0001C4C1D4F1D4EAD0005E0FFF7CBFE1C493C
:100FC0001648FFF7BBFB2388AB4201D2FFF722FF95
:100FD0003800FFF78DFF2388AB4201D2FFF71AFFDD
:100FE0003368002BEBD123889AB2002BE5D1114B4B
:100FF00019684029E3D11A60E1E72B680E4A702195
:101000001340054832002B60FFF7FEF80028B9D1E5
:1010100080BCB846F0BDC046000012400000114040
:10102000CC420050E4030020D0340000F80300203C
:1010300040420F0024050640FFFFFFBFF0B55746B2
:101040004E464546DE46E0B5164B00221B78082684
:101050009A46154B04251B78144F9946144B1B7860
:101060009846144B1B789C4651464B461141134100
:10107000C9009B0031402B400B43414611410220E7
:1010800049000140604601241041204001435B18A3
:10109000BB540132062AE7D1F0BCBB46B246A94692
:1010A000A046F0BD0E0100200D0100201801002017
:1010B000100100200F010020F8B5474B4E46DE46D8
:1010C00099469B46454B45469846182357469A46AF
:1010D000434CE0B5A244434F434D444E21E04346C8
:1010E0001A681368002B40D02B7801332B703378AB
:1010F000032B32D02B78022B2FD0012223684846B5
:101100001A603B49053201F07FFC06239C46023BF6
:10111000E1449C4604340137E0440135013654452E
:1011200028D03B78072BDAD91A00083A032A2BD9A2
:101130001A000C3A012A33D90E2B3FD00F2BE4D1E1
:101140000022236848461A6043461B6801321A6031
:101150002849053201F058FCD7E7012113684B40BC
:10116000136000232B703370C7E733780133DBB291
:101170003370BDE7594600222033CA54F0BCBB4649
:10118000B246A946A046F8BD01232268484613602E
:101190004246126818491360062201F035FCB4E794
:1011A000012123684846196043461A6813684B407A
:1011B00013601249062201F027FCA6E701222368EA
:1011C00048461A60434600221B680D491A600632E1
:1011D00001F01AFC99E7C0462001002028000020F9
:1011E0001000002018010020EC00002094010020D5
:1011F000D8340000F8340000E0340000E834000087
:10120000F0340000F0B54E46DE4657464546DC4B0E
:10121000E0B59A46DB4B87B09946DB4B002401933F
:10122000DA4BDB4E0293DB4B9846DB4B9B463CE0B4
:10123000DA4B1B7823411D4240D0D94B2F001B783D
:1012400023411F401D4239D100220B21D548FEF712
:10125000DBFF002849D05246D34B49461380FA227F
:1012600052000A8042461380FA239B0033805B467B
:10127000A5401F70CD4B1A781543CD4A1D70A35C55
:101280000133A35402239C46019BE24402330193A1
:10129000029BE144023302930223013BE0449C465B
:1012A00001340236E344062C18D02000FFF758FE24
:1012B000C04B01251B7823411D42B9D10023524662
:1012C00013804A461380019A594613804246138080
:1012D00000220A70029A33801380D3E707B0F0BC73
:1012E000BB46B246A946A046F0BD08220B21AD4838
:1012F000FEF78AFF05AF1421AF48FFF71FFA02235C
:101300003A000B21A748FFF76FF87A783B78120272
:101310009B18CA229BB21201934270D309220B215F
:10132000A048FEF771FF1421A348FFF707FA022334
:101330003A000B219B48FFF757F87A783B78120266
:101340009B1852460B21138096480A22FEF75CFF39
:1013500014219948FFF7F2F902233A000B21914832
:10136000FFF742F87A783B7812029B184A460B2125
:1013700013808C480822FEF747FF14218E48FFF7A0
:10138000DDF902233A000B218648FFF72DF87A7821
:101390003B7812029B18019A0B2113808148162278
:1013A000FEF732FF14218448FFF7C8F902233A0000
:1013B0000B217C48FFF718F87A783B7812029B18CB
:1013C000029A0B2113800023424633801380754814
:1013D0000D22FEF719FF14217748FFF7AFF902231A
:1013E0003A000B216F48FEF7FFFF5A463B786F49E2
:1013F00013700122A2400B7893430B7042E7162230
:101400000B216848FEF700FF14216B48FFF796F99F
:1014100002233A000B216348FEF7E6FF7A783B7817
:1014200012029B181900654A11400391134200D023
:1014300074E709220B215B48FEF7E6FE14215E48A3
:10144000FFF77CF902233A000B215648FEF7CCFF48
:101450007A783B7812029B1852460B211380514830
:101460000A22FEF7D1FE14215348FFF767F9022341
:101470003A000B214B48FEF7B7FF7A783B7812020F
:101480009B184A460B21138046480822FEF7BCFEF3
:1014900014214948FFF752F902233A000B21414831
:1014A000FEF7A2FF7A783B7812029B18019A0B2173
:1014B00013803C481622FEF7A7FE14213E48FFF792
:1014C0003DF902233A000B213648FEF78DFF7A786A
:1014D0003B7812029B18029A0B2113803148152287
:1014E000FEF792FE14213448FFF728F902233A0050
:1014F0000B212C48FEF778FF7A783B7812029B1874
:1015000042460B21138027481422FEF77DFE14214A
:101510002948FFF713F902233A000B212148FEF76F
:1015200063FF7A783B7812029B1833800D220B21DF
:101530001C48FEF769FE14211F48FFF7FFF802233D
:101540003A000B211748FEF74FFF5B46A5401749AD
:101550003A786DB21A700B782B430B70622A06D959
:10156000174A13781D43039B157033808AE6622A5D
:1015700000D187E6124A1378AB43137082E6C04667
:1015800078010020600100206C010020540100203F
:10159000F400002000010020840100200D01002043
:1015A0000C01002000001240D84000001001002073
:1015B0008C0100200E01002000001140405000006E
:1015C0000F010020F0B54746CE4680B52C4F0223D0
:1015D0003A0021212B4883B0FEF706FF2A4B002456
:1015E00098463A78294E1300012523411D4203D025
:1015F000337823411D421ED00134062CF3D1244BF5
:10160000002518780121002310403070214E3478D5
:1016100002001A41114203D10A009A400125944365
:101620000133062BF4D1002D00D0347003B0C0BCC0
:10163000B946B046F0BD0D220B211248FEF7E4FD7D
:1016400014211548FFF77AF801AB99460B210223C4
:101650004A460C48FEF7C8FE4B4642461B78A35448
:10166000612B06D9A5400D4B1A7815431D703A78A9
:10167000C2E7A540094A1378AB4313703A78BBE739
:101680005001002000001240840100200D010020C4
:101690000E0100200C010020000011400F0100206D
:1016A000F0B54746CE4680B5234B85B0002498461A
:1016B000224F03AD04E0002301342B80062C36D0EA
:1016C00002262000FFF74CFC2B00FF2209211C48BA
:1016D0000096FEF713FF2B78302BECD16B78002BA4
:1016E000E9D10133A3403A78092113433B703F22EB
:1016F000434613480096FEF709FE124B1222994604
:1017000009210F480096FEF7F9FE4B4660225B78F0
:10171000092193434A460A4853704B4612220096C9
:10172000FEF7F4FD002301342B80062CC8D105B050
:10173000C0BCB946B046F0BD400000200E010020FC
:101740000000124014010020F0B54F464646D64630
:10175000204B00249846204BC0B5994686B01F4DBB
:101760001F4F03AE3B782341DB0727D52B883288F8
:101770009A4223D020003380FFF7F2FB2B880F2200
:10178000190091430A0041465B045B0E4B70803A9E
:10179000B8230A704A46DB00138002239A461522BA
:1017A000092100930F484346FEF7B0FD534614222B
:1017B000009309214B460B48FEF7A8FD0134023681
:1017C0000235062CCED106B0E0BCBA46B146A846DA
:1017D000F0BDC0464C01002048010020000100205F
:1017E0000E01002000001240F0B5C64600B582B0E0
:1017F00002006C46002929D0102931D00A292AD0AC
:101800006B469D1D0023200080249C46174A1849E2
:10181000184EA4001388A34211D20023C3560F8888
:1018200098467B1C9BB20B804346F3550B88A34222
:1018300001D363460B80138801339BB213800130C0
:10184000A842E7D102B080BCB846F0BD20000A49EA
:1018500001F0ECF8D4E72000084901F0E7F8CFE701
:101860002000074901F0E2F8CAE7C046E40300207F
:10187000E80300209C010020003500000C3500002A
:101880000835000070B58024A400220000214948DA
:1018900001F0C3F80022484B484D1A802B88A34220
:1018A00001D2FFF7B7FA4648FFF722FB80232A88C8
:1018B0009B009A4201D2FFF7ADFA4248FFF718FBAE
:1018C0004148FFF715FB80232A889B009A4201D2EA
:1018D000FFF7A0FA3D48FFF70BFB3D4C26000C3606
:1018E000208800210234FFF77FFFB442F8D1802323
:1018F0002A889B009A4201D2FFF78CFA3548FFF7FD
:10190000F7FA354C26000C360022A05E2388C0432F
:10191000C017002118400234FFF766FFB442F3D12C
:1019200080232A889B009A4201D2FFF773FA2B4842
:10193000FFF7DEFA2A4C26000C362A4B20889C46FC
:101940000A21604400F03AFF02340A2180B2FFF716
:101950004BFFB442F1D180232A889B009A4201D2E6
:10196000FFF758FA2048FFF7C3FA204CA61D20784D
:1019700000210134FFF738FFA642F8D180232A88DE
:101980009B009A4201D2FFF745FA1948FFF7B0FAD7
:10199000184C26000C36208810210234FFF724FF53
:1019A000B442F8D180232A889B009A4201D2FFF7E3
:1019B00031FA70BD9C010020E8030020E403002000
:1019C000143500004435000020010020503500008F
:1019D000780100205C3500006001002068350000BF
:1019E0006C010020BDF6FFFF74350000840100206B
:1019F000803500005401002001220E4B10B599687B
:101A00000A4200D110BD9A60FFF7FCFBFFF79CFE75
:101A1000FFF714FBFFF750FB074A13780133DBB2E3
:101A2000012B01D81370EDE700231370FFF72AFF95
:101A3000E8E7C046200011409A0100208022084BB0
:101A4000D201196A114204D01A621922054B1A7088
:101A50007047054A116A11621A6A1A62F8E7C046AD
:101A6000404000508A01002000400050F8B5A025F9
:101A70008024592016218822ED056400285129511F
:101A80002A512B59002BF9D0FFF7E6F90023012248
:101A90002B5101215548FEF777FB012202215348C3
:101AA000FEF772FB012204215048FEF76DFB012274
:101AB00008214E48FEF768FB802101224B4849006F
:101AC000FEF762FB8021012248488900FEF75CFB9B
:101AD000802780213F0101224448C900FEF754FBC2
:101AE000390001224148FEF74FFB802101223F4887
:101AF0004901FEF749FB8021102601223B4889015C
:101B0000FEF742FB012210213948FEF73DFB01227E
:101B100020213748FEF738FB00223649364800F0CE
:101B200077F9FFF72FF800F091F9344B344D1A682C
:101B3000344B35491A601A68344B35481A60354BB6
:101B4000354C5E6080231B042B60FEF741FBFFF7E2
:101B5000A7FDFFF737FD022208213048FEF714FBEE
:101B6000012280212E4B20001A6009050022FEF779
:101B7000BDFD802322689B051343236080238021C1
:101B80002F602268DB051343236000221848C90137
:101B9000FEF7FAFA01220E211548FEF70BFB214F42
:101BA0002E60214C214D224E2378002B0BD0142186
:101BB0002048FEF7C3FD2378013BDBB22370002BE6
:101BC00001D1FFF7FFFC2B68002BEDD133889AB2CF
:101BD000002B05D0FFF7BEF82378002BE7D1F2E702
:101BE0003B68402BE0D13A60DEE7C04680400050C1
:101BF00040400050010C00000C3400001001005067
:101C000000E100E0FC030020102700000004002099
:101C1000000012400000064020001140C04000506B
:101C2000CC420050240506408A010020F803002021
:101C3000E40300200000114010B500F0DBFC054B70
:101C40001B695B0603D5044B1868400810BD024BA6
:101C50001868FBE7000200505800002010B500F0A3
:101C6000C9FC054B1B691B0603D5044B18684008CB
:101C700010BD024B1868FBE700020050580000201E
:101C8000F8B5102604221A4C0700E36808001E402D
:101C900023681849134300222360174B10251B6843
:101CA0000A609B0802E0013B002B1CD0E268154251
:101CB000F9D0002B17D0072204250D4C236993433C
:101CC0002B4323610F23A16999430143A16120693B
:101CD00090433843206100F08DFC002E02D1236830
:101CE000AB432360F8BD01235B420B60E3E7C046D2
:101CF000000200500404002058000020F0B5C64641
:101D000000B58303884684B01B0E07D08505ED0E11
:101D1000AB40114E34689C432243326003015B0F99
:101D200015D06C4625000D4AC2CAC2C5126841468C
:101D30002A608200920F92001459094AC001944609
:101D4000C00E8340644422689A431143216004B06A
:101D500080BCB846F0BDC046180200508C3500006B
:101D600010020050044A13680343DB439B0702D070
:101D700013681843106070470002005070B584B0BB
:101D800001AA1100094B103370CB70C1830F9B0067
:101D90009A58074B1F219C46012308408340624408
:101DA00014682343136004B070BDC0468C35000036
:101DB000040200500C4B02001868002310B50B4CB5
:101DC0000B498008236002E00138002808D0CB6866
:101DD00013409342F8D1002801D0012010BD0130FA
:101DE00001235B422360F9E758000020040400202F
:101DF000000200507046EFF30881EFF30982024BB6
:101E000098470047704700000D1E0000FEE7C046DF
:101E1000094B1860094B1960094B90211A6003683F
:101E20000120DA79074B1A60FA22074BD2001A61B7
:101E30005A5802435A507047100400201C040020D6
:101E4000240400204C000020000006400E4B80219E
:101E50001A680E4B490253430D4A536000239360A6
:101E60000533136013680B42FCD00023902101203E
:101E70001360084B5A5882435A50813959601A6886
:101E80000A431A607047C04650000020A086010037
:101E900010E000E00000064000230349CA5CC25481
:101EA0000133082BFAD170470804002030B51E4DCD
:101EB0002B688B421ED22B681C4AC31813602B68F8
:101EC0001B4AC91A1B4B1960802113680B4313600E
:101ED000194B1968194B2C689C466144002C05D09D
:101EE0000023C25CCA5401339C42FAD12A68144BC5
:101EF0001A6030BD002380240C4A13600D4A136021
:101F00000B4A1368234313600B4B1C680B4B9C4616
:101F10006444002905D00023C25CE2540133994295
:101F2000FAD1074B1960E4E74C0000202C04002094
:101F30000805064034040020000506400001064064
:101F400004050640F8B50023424C2370424BD97972
:101F50009A7909025118DA78222A03D83F48920068
:101F60008258974602213E4B1A680A431A603D4A3E
:101F700013680B431360F8BD3B4A1D791768AD0029
:101F80003B695E598E420AD2384B3000196800F026
:101F900011FC0B003100002B01D101332370FB68D1
:101FA0005859FFF783FFE6E7122900D912212E4B7B
:101FB0001B681868FFF77AFFDDE72B4B1B685E682C
:101FC000F378B5781B02ED18A9420AD9274B2800EF
:101FD000196800F0EFFB0B002900002B01D1013341
:101FE00023703000FFF762FFC5E79B78032BB9D859
:101FF0001D4A9B00126892689D582E788E420AD224
:102000001A4B3000196800F0D5FB0B003100002B93
:1020100001D1013323702800FFF748FFABE7124BD3
:102020001B68986900289DD00C2910D8FFF73EFF47
:10203000A1E70D4A1268092900D909211B795469C1
:102040009B0050681B59C018FFF730FF93E70C2125
:10205000ECE7C0465004002008040020A83500002A
:102060000C0506401C050640100400204C00002012
:10207000F0B5D6464F46464600240022874BC0B5F1
:102080001C60874B1C60874B9A561978002A06DB28
:102090005A780B2A32D8844992008A5897465A783F
:1020A000082A00D1A4E015D8002A00D180E0062A31
:1020B00024D1FFF747FF7D4B1C607D4B1C607D4B9F
:1020C0001C607D4B1A687D4B1A60E0BCBA46B14675
:1020D000A846F0BD0A2A11D1794B7A491A688C4674
:1020E0008021794BD2B21B6863441A70774A136817
:1020F0000B4313600122764B1A60DCE70221754B1B
:102100001A680A431A60744A13680B431360DCE7C9
:102110009A78002A6ED10F241B79013292461C4016
:1021200001326E4B90467E321F680F250023944685
:1021300002E00133082B1ED0644A19018818026896
:102140002A40A242F5D152469A401742F1D1614A43
:102150004646914649440A68B2430A6061460268AD
:102160008A430260E5E79A78554B1A605C4B1B681E
:10217000002B00D098478021544A13680B4313600A
:102180000022534B1A60A0E79A78564B1A60564BC0
:102190001B68002BEED1EEE79A78544B1A60EAE701
:1021A0009A78002A33D0012AE5D1514B1A70E2E720
:1021B000802943D0812923D0822953D0424B8020CB
:1021C0001A684C4B41499C460023624413700A68CC
:1021D00002430A6002213E4A1160344A1360344AC5
:1021E0001360344A1360344B1A68344B1A606CE73E
:1021F0003C4B72E7012ABED100223D4B1A70BAE770
:102200003049314B8C461B6863441A70D6E70F2166
:102210001B790F201940002302E01033802BAAD035
:102220002A4A9A18126802408A42F6D1294A0221A3
:10223000944663441A680A431A609CE72E4B1B6855
:102240005B68DA795306DB0F920604D5284A1278C8
:1022500052001343DBB21B491B4A8C46126862448E
:102260001370ABE70F201B790F2418400023174A87
:1022700099180A68224082420CD01033802BF6D184
:102280000B681049104A8C4612689B076244DB0FAA
:10229000137093E70F4A9918F2E7C0462C04002008
:1022A00034040020080400203436000030040020EC
:1022B000380400203C0400204C0000201405064097
:1022C00048040020000106400005064008050640BD
:1022D000040506400C0506401C05064018040020B5
:1022E000240400204C04002020040020440400208A
:1022F0001404002001010640100400200022184BA5
:1023000010B51A60174B18489969184B9C46002362
:102310006144CA5CC2540133082BFAD102785833A5
:102320001340202B0DD0402B14D0002B0FD00221B6
:102330000F4B1A680A431A600E4A13680B43136066
:1023400010BD0D4B1B68002BFAD09847F8E7FFF73C
:102350008FFEF5E7094B1B68002BF1D09847EFE79C
:102360004004002000000640080400200001064050
:102370000C0506401C0506401C0400202804002013
:102380002B49F0B50B68002B1FD02A4F0A683B6819
:102390009A422AD9284B294E1C68294B3D689C46F5
:1023A00030686444002D05D00023C25CE254013340
:1023B0009D42FAD13A68234B1A603B683A68C018CC
:1023C0000B6830609B1A0B60F0BD1F4B1A78002A17
:1023D00002D15B78052B1FD01C4B1A78002AF3D052
:1023E000002218490A601A70EEE7134B134E186862
:1023F000134B0C689C4635686044002C05D00023C4
:10240000EA5CC25401339C42FAD10A680D4B1A604F
:10241000002333600B60D7E70D4B0E4A98681168B4
:102420008842D9D099680029D6D112689A60D3E73A
:10243000340400204C000020000506402C0400203D
:102440000001064004050640080400205004002056
:1024500000000640440400200022054B1860054B94
:102460001A60054B1960054B1A68054B1A607047D6
:1024700030040020380400203C0400204C000020E0
:1024800014050640E021F0B5C6461E481E4AC36842
:102490001468890100B50B40A3422BD0C3681B4CC4
:1024A00019401B4D116022682B689A4226D2194BA5
:1024B0001E68194B1968194B9C461F68184BCB189E
:1024C000002E0DD0164A88199046164A4044904670
:1024D000791A41441A00127801335A548342F9D1CF
:1024E0006346BF191F6023689E19266022682B6807
:1024F0009A4203D20C4B1A68064B1A6080BCB8464D
:10250000F0BDC04600000640400400203804002012
:102510003C0400201405064010050640300400204D
:1025200000010640FFFEF9BF4C0000200023114AC5
:1025300010B51360104A00211360104A1048136050
:10254000104A1360104A1360104A1360082200F00A
:1025500064FA002280200E4913018C4663441968F6
:10256000013281431960082AF5D10022094B9A6093
:1025700010BDC0462C04002034040020300400208C
:1025800008040020380400203C0400201804002027
:1025900008050640000006400B490C4A0C4B9B1AEC
:1025A00003DD043BC858D050FBDC0A480A490160EF
:1025B0000A4901600A4901600A480B49016005485F
:1025C0000A490160FDF7A6FD283700000000002041
:1025D000C800002000010050590000001600000053
:1025E0008800000024000050A55A000000000000F0
:1025F000FEE7C04610B50724224B82B01A6914408A
:10260000214A0192A0221B6AD202134238D18820AB
:1026100000041840421E90411C4A4042944610401B
:1026200060449A030FD4DA05D20D02328008504379
:102630001A0401A99B04920F8A5CD90E02315143FE
:1026400000F032F88000124B1860022C05D04008D0
:10265000052C02D00F4BA400E0580F21094B9B69B9
:102660001940013100F020F80B4B0C4918600C4B5D
:102670009C46604400F018F80A4B186002B010BD88
:102680000020E0E70002005001020204001BB70036
:1026900054000020643600005800002040420F0023
:1026A00020A1070050000020002243088B4274D371
:1026B00003098B425FD3030A8B4244D3030B8B4243
:1026C00028D3030C8B420DD3FF22090212BA030C4C
:1026D0008B4202D31212090265D0030B8B4219D32D
:1026E00000E0090AC30B8B4201D3CB03C01A52414D
:1026F000830B8B4201D38B03C01A5241430B8B4295
:1027000001D34B03C01A5241030B8B4201D30B037D
:10271000C01A5241C30A8B4201D3CB02C01A5241A4
:10272000830A8B4201D38B02C01A5241430A8B4267
:1027300001D34B02C01A5241030A8B4201D30B0250
:10274000C01A5241CDD2C3098B4201D3CB01C01A6A
:10275000524183098B4201D38B01C01A5241430974
:102760008B4201D34B01C01A524103098B4201D362
:102770000B01C01A5241C3088B4201D3CB00C01ACF
:10278000524183088B4201D38B00C01A5241430847
:102790008B4201D34B00C01A5241411A00D201466C
:1027A000524110467047FFE701B5002000F0F0F8F5
:1027B00002BDC0460029F7D076E7704703460B43B9
:1027C0007FD4002243088B4274D303098B425FD32A
:1027D000030A8B4244D3030B8B4228D3030C8B4256
:1027E0000DD3FF22090212BA030C8B4202D312123C
:1027F000090265D0030B8B4219D300E0090AC30B11
:102800008B4201D3CB03C01A5241830B8B4201D3BD
:102810008B03C01A5241430B8B4201D34B03C01AA6
:102820005241030B8B4201D30B03C01A5241C30A1E
:102830008B4201D3CB02C01A5241830A8B4201D38F
:102840008B02C01A5241430A8B4201D34B02C01A79
:102850005241030A8B4201D30B02C01A5241CDD21E
:10286000C3098B4201D3CB01C01A524183098B4269
:1028700001D38B01C01A524143098B4201D34B0152
:10288000C01A524103098B4201D30B01C01A5241B5
:10289000C3088B4201D3CB00C01A524183088B423C
:1028A00001D38B00C01A524143088B4201D34B0025
:1028B000C01A5241411A00D2014652411046704797
:1028C0005DE0CA0F00D04942031000D3404253409C
:1028D00000229C4603098B422DD3030A8B4212D35C
:1028E000FC22890112BA030A8B420CD3890192118E
:1028F0008B4208D3890192118B4204D389013AD0CB
:10290000921100E08909C3098B4201D3CB01C01A9F
:10291000524183098B4201D38B01C01A52414309B2
:102920008B4201D34B01C01A524103098B4201D3A0
:102930000B01C01A5241C3088B4201D3CB00C01A0D
:10294000524183088B4201D38B00C01A5241D9D225
:1029500043088B4201D34B00C01A5241411A00D2A6
:102960000146634652415B10104601D34042002BA2
:1029700000D54942704763465B1000D3404201B521
:10298000002000F005F802BD0029F8D016E77047D6
:102990007047C046084B10B50400002B02D0002140
:1029A00000E000BF054B1868836A002B00D09847F1
:1029B000200000F0BBFCC046000000008436000090
:1029C00070B500260C4D0D4C641BA410A64209D115
:1029D000002600F0ADFC0A4D0A4C641BA410A64270
:1029E00005D170BDB300EB5898470136EEE7B30050
:1029F000EB5898470136F2E7C0000020C0000020E5
:102A0000C0000020C4000020002310B59A4200D16D
:102A100010BDCC5CC4540133F8E703008218934224
:102A200000D1704719700133F9E700000EB400B50A
:102A30000B499CB01DAB0290069007910491094888
:102A4000094904CB0591006802A9019300F05CF9E3
:102A50000023029A13701CB008BC03B01847C0468C
:102A6000FFFFFF7F5C0000200802FFFF0023C25C25
:102A70000133002AFBD1581E704770477047000091
:102A800070B50500002910D00C1F2368002B00DA58
:102A9000E418280000F0EAFB1D4A1368002B05D15A
:102AA00063601460280000F0E9FB70BDA34208D900
:102AB000216860188342F3D118685B68411821606F
:102AC000EEE71A005B68002B01D0A342F9D9116828
:102AD0005018A0420BD12068091850181160834289
:102AE000E0D118685B68411811605360DAE7A042D2
:102AF00002D90C232B60D5E721686018834203D1EB
:102B000018685B684118216063605460CAE7C0467A
:102B10005C04002070B50F4E0D00316804000029E0
:102B200002D100F073FB30602900200000F06EFB42
:102B3000431C0AD00323C51C9D43A84207D0291A71
:102B4000200000F063FB431C01D101256D422800E9
:102B500070BDC04660040020F7B50322CB1C934330
:102B6000083306001F000C2B32D20C27B94231D893
:102B7000300000F07BFB324D2B681C00002C2ED166
:102B800039003000FFF7C6FF0400431C1ED12C683B
:102B90002500002D4AD123682900E3183000019355
:102BA00000F034FB019B834243D123680337FF1AB3
:102BB00003239F4308370C2F00D20C273900300025
:102BC000FFF7A8FF431C34D02368DF19276013E008
:102BD000002BCBDA0C23002533602800FEBD2268D1
:102BE000D11B20D40B2917D9E2192760A34211D198
:102BF0002A606368116053603000250000F03EFBDE
:102C000007220B35231D9543EA1A9D42E5D05B1B35
:102C1000A350E2E75A60ECE76268A34201D12A6060
:102C2000EAE75A60E8E723006468A7E72C006D68CC
:102C3000AFE70C233000336000F020FBCDE7C04647
:102C40005C040020F0B58E6885B007000C0003928C
:102C500001939E423CD890238A89DB001A4234D0EB
:102C60000969236860695B1A029303234343DD0FFC
:102C7000ED18019B029801331B186D10AB4200D96F
:102C80001D00530532D529003800FFF765FF061EE9
:102C900009D10C233B6040230120A2894042134309
:102CA000A38105B0F0BD029A2169FFF7ADFEA389AB
:102CB000144A1A4080231343A381029B2661F6180D
:102CC00026606561019EED1AA560019B9E4200D9B8
:102CD000019E32000399206800F0B5FAA368002035
:102CE0009B1BA36023689E192660DAE72A00380040
:102CF00000F0CCFA061EE0D138002169FFF7C0FED3
:102D0000C7E7C0467FFBFFFFF0B5A1B003901D00F1
:102D10008B890F0016001B0611D50B69002B0ED1F5
:102D20004021FFF719FF38603861002805D10C23D6
:102D3000039A0138136021B0F0BD40237B6100236A
:102D400008AC6361203363761033A37607953500B2
:102D50002B78002B01D0252B47D1AB1B0593B54217
:102D60000CD0320039000398FFF76CFF431C00D1F0
:102D7000AEE06269059B9446634463612B78002B47
:102D800000D1A5E0012200235242626004A954321E
:102D900052186E1C2360E360A3601370A3650522C4
:102DA0003178544800F044FA751C00281FD122687D
:102DB000D30604D5532304A95B18202119701307E7
:102DC00004D5532304A95B182B21197033782A2BBF
:102DD00016D0350000210A20E3682A786E1C303AAC
:102DE000092A4ED9002911D117E00135B0E7414B2E
:102DF0002268C01A0123834013432E002360CEE7CC
:102E0000079B191D1B680791002B01DB0B9304E046
:102E10005B42E3600223134323602B782E2B0AD1FD
:102E20006B782A2B35D1079B02351A1D1B68079238
:102E3000002B2BDB0993304E03223000297800F061
:102E4000F7F9002806D04023801B83402268013513
:102E5000134323602978062228486E1C217600F04F
:102E6000E7F900283CD0264B002B25D10722079BF1
:102E700007339343083307936369049A9B1863618C
:102E800065E74343350001219B18A6E701235B4218
:102E9000D0E700230A201A000135636029786E1CF0
:102EA0003039092903D9002BC5D00992C3E7424321
:102EB000350001235218F1E707AB00933A002100D7
:102EC000104B039800E000BF0490049B0133D3D162
:102ED000BB890D985B0600D42DE7012040422AE70C
:102EE00007AB00933A002100064B039800F07CF8F2
:102EF000EAE7C046E8360000EE360000F236000091
:102F000000000000452C0000F7B5150001938A6809
:102F10000B690C000090934200DA130022002B6032
:102F200043321278002A01D001332B6023689B06BC
:102F300002D52B6802332B602268062317001F403E
:102F40001A4227D0230043331B785A1E934122682C
:102F5000920630D4220001990098089E4332B0476F
:102F6000431C25D0062320682A68E1680025034019
:102F7000042B03D18D1AEB43DB171D40A368226994
:102F8000934201DD9B1AED180027BD4220D100209D
:102F900010E00137E3682A689B1ABB42D2DD2200A9
:102FA000012301990098089E1932B047431CF0D1C3
:102FB00001204042FEBD3020E1184331087021005D
:102FC0005A1C45310978A218433202331170C1E707
:102FD0002200012301990098089E1A32B047431C31
:102FE000E6D00137D1E70000F0B58BB006920A00B9
:102FF00043320793059004920A7E0C00109B782AB6
:1030000007D8622A09D8002A00D1C1E0582A00D185
:103010008CE026004236327022E01000633815281A
:10302000F7D800F06BF916001F00F6FFF6FFF6FF69
:10303000F6FF1F00F6FFF6FFF6FFF6FFA8003600CA
:103040009A00F6FFF6FFB900F6FF3600F6FFF6FF2E
:103050009E0026001A684236111D196013683370ED
:103060000123A7E0086819680A1D05060BD50D683D
:103070001A60002D03DA2D23049A6D421370614B00
:103080000A2703931BE00D681A604106F1D52DB2A3
:10309000EFE70D681968081D18602E0601D50D6848
:1030A00003E06D06FBD50D68ADB2564B08270393C0
:1030B0006F2A00D002372300002243331A7063685E
:1030C000A360002B03DB0422216891432160002DC3
:1030D00002D1049E002B0CD0049E28003900FFF77B
:1030E00069FB039B013E5B5C33702B0005009F4234
:1030F000F3D9082F09D12368DB0706D56368226955
:10310000934202DC3023013E3370049B9B1B2361FE
:10311000079B210000930598069B09AAFFF7F4FE80
:10312000431C4CD1012040420BB0F0BD45310A7028
:10313000344A03921A68216820CA1A60080616D514
:10314000CB0702D52023194321601027002DB2D1CF
:10315000202322689A432260ADE7202209680A43AF
:1031600022602200782145321170274AE1E74806A3
:10317000E6D5ADB2E4E71A680D68101D496918601C
:1031800013682E0601D5196002E06D06FBD5198083
:103190000023049E2361BBE71A68111D196016689D
:1031A00000213000626800F043F8002801D0801B45
:1031B0006060636823610023049A1370A8E72369A1
:1031C000320006990598079DA847431CAAD023689A
:1031D0009B0715D4099BE0689842A5DA1800A3E77D
:1031E0002200012306990598079E1932B047431C17
:1031F00098D00135E368099A9B1AAB42F0DCE9E705
:103200000025F7E7F93600000A370000002370B503
:10321000064D040008002B6000F07AF8431C03D12F
:103220002B68002B00D0236070BDC04654040020E2
:10323000C9B28218904201D10020704703788B42B6
:10324000FBD00130F6E710B5884202D98B189842BE
:1032500003D3002307E08B5C8354013AFBD210BDFB
:10326000CC5CC45401339A42FAD1F8E710B5024855
:10327000FFF703FC10BDC0465804002010B50248FB
:10328000FFF7FCFB10BDC04658040020F7B507004F
:103290000E001400002905D11100FFF75DFC0500A8
:1032A0002800FEBD002A03D1FFF7EAFB2500F7E75F
:1032B00000F01BF80190844203D835004308A34274
:1032C000EED321003800FFF747FC051EE8D0019B34
:1032D00022009C4200D91A0031002800FFF794FB1D
:1032E00031003800FFF7CCFBDAE70B1F1B68181F13
:1032F000002B01DA0B58C0187047000003B4714668
:10330000490840004900095E49008E4403BC7047EB
:10331000044A03001068002802D0C31813607047E5
:103320000148FAE76404002068040020FEE7C04674
:10333000F8B5C046F8BC08BC9E467047F8B5C04614
:10334000F8BC08BC9E467047D80500007A0500000E
:103350007A0500007A0500007A0500007A05000071
:103360007A0500007A050000C80500007A05000013
:103370007A0500007A0500007A0500007A05000051
:103380007A0500007A050000BA0500007A05000001
:103390007A0500007A0500007A0500007A05000031
:1033A0007A0500007A0500009E0500007A050000FD
:1033B0007A0500007A0500007A0500007A05000011
:1033C0007A0500007A050000AC0500007A050000CF
:1033D0007A0500007A0500007A0500007A050000F1
:1033E0007A0500007A0500009E050000001BB7006A
:1033F000008000000000000000000000000000004D
:10340000102700000000000000366E016C34000040
:103410002834000000000020000000000000000030
:10342000000000000000000009024300020100C08B
:103430003209040000010202010005240010010508
:10344000240100010424020005240600010705836D
:103450000308000109040100020A000000070581B9
:1034600002400000070502024000000012011001A6
:1034700002000040160402B0000301020301000034
:1034800020035500530042002000560069007200DE
:103490007400750061006C00200043004F004D0077
:1034A000040309041A0341003000320030003100E7
:1034B00034003000390030003300300035000000A7
:1034C00010034E00750076006F0074006F006E00F0
:1034D0004932434661696C00426F4E4578200000D6
:1034E00042614E457820000043726745722000001B
:1034F0004372675063200000437267446E200000EF
:10350000253564200000000025355800253566313A
:10351000000000004E554D42455220203A20202008
:103520002020302020202020312020202020322068
:103530002020202033202020202034202020202064
:103540003500000053544154452020203A2000000B
:10355000564F4C54414745203A20000043555252A3
:10356000454E54203A20000054454D502020202044
:103570003A20000043415041434954593A20000049
:1035800053544154555320203A20000000000000BD
:10359000040000000C0000002400000000000000F7
:1035A000040000002C000000641F0000A81F0000A1
:1035B000BA1F0000EA1F0000641F0000641F000023
:1035C000641F0000641F0000641F0000641F0000EF
:1035D000641F0000641F0000641F0000641F0000DF
:1035E000641F00001E200000641F0000641F000014
:1035F000641F0000641F0000641F0000641F0000BF
:10360000641F0000641F0000641F0000641F0000AE
:10361000641F0000641F0000641F0000641F00009E
:10362000641F0000641F0000641F000032200000BF
:10363000781F0000FC20000010210000FC2000008A
:10364000A0210000FC20000098210000FC200000C8
:10365000FC200000FC20000088210000FC2000006D
:1036600066210000001BB7000080000000D8B805EC
:1036700010270000006CDC02006CDC02000000007F
:1036800000366E0160000020000000000000000015
:10369000000000000000000000000000000000002A
:1036A000000000000000000000000000000000001A
:1036B000000000000000000000000000000000000A
:1036C00000000000000000000000000000000000FA
:1036D00000000000000000000000000000000000EA
:1036E0000000000000000000232D302B2000686C3B
:1036F0004C00656667454647003031323334353615
:10370000373839414243444546003031323334354D
:103710003637383961626364656600000000000076
:08372000E8C9FF7F0100000071
:10372800A0340000C034000080340000A43400003D
:10373800504200508C42005084420050B442005025
:10374800AC420050A44200505442005088420050FD
:1037580080420050B0420050A8420050A0420050A1
:10376800AC0D000000C201000000080008000000C5
:103778006000000000D8B80500D8B8056000002037
:1037880000000000A8360000C83600008836000097
:103798000000000000000000000000000000000021
:1037A8000000000000000000000000000000000011
:1037B8000000000000000000000000000000000001
:1037C80000000000000000000000000000000000F1
:1037D80000000000000000000000000000000000E1
:0837E800E9000000C10000002F
:04000003000025993B
:00000001FF
