:100000000020002029320000713200002526000067
:1000100000000000000000000000000000000000E0
:10002000000000000000000000000000713200002D
:10003000000000000000000071320000713200007A
:100040007132000071320000713200007132000024
:10005000C9210000713200007132000071320000CD
:100060007132000071320000713200007121000015
:10007000713200000000000071320000000000003A
:10008000000000000000000071320000713200002A
:10009000713200007132000071320000A50C0000C6
:1000A000000000007132000071320000000000000A
:1000B0007132000071320000713200000000000057
:1000C00010B5064C2378002B07D1054B002B02D02E
:1000D000044800E000BF0123237010BDCC000020C5
:1000E00000000000C0430000084B10B5002B03D0F7
:1000F0000749084800E000BF07480368002B00D10B
:1001000010BD064B002BFBD09847F9E7000000001C
:10011000D0000020C0430000C80000200000000004
:10012000164B002B00D1144B9D46402292029A1A86
:10013000924600218B460F461348144A121A03F0C8
:1001400008FA0F4B002B00D098470E4B002B00D025
:1001500098470020002104000D000D48002802D01F
:100160000C4800E000BF03F0C7F92000290002F0AE
:100170004FF803F0ABF9C046000008000020002053
:100180000000000000000000CC000020800A0020D9
:10019000000000000000000080B586B000AFF860ED
:1001A000B9607A6000237B611BE001227B699A4081
:1001B00013001A00BB68134010D0FB681B687A69F3
:1001C0005200032191400A00D2431A407B695B0030
:1001D000796899400B001A43FB681A607B69013308
:1001E0007B617B690F2BE0D9C046BD4606B080BD60
:1001F00080B584B000AFF860B9607A60FB689A6936
:100200007B68190EBB6899400B001A43FB689A6122
:10021000FB68DA697B681B02190ABB6899400B000E
:100220001A43FB68DA61C046BD4604B080BD0000D9
:1002300080B584B000AF78603960164B1A6813003F
:100240009B009B185B001A003B689B001900100084
:1002500003F0B0F8030005330A21180003F0AAF8F0
:100260000300013BFB607B68FA681A617B681B68CE
:1002700040221A437B681A60064B1A68FB680133F8
:100280009B001900100003F095F803001800BD460C
:1002900004B080BD5000002080B584B000AF78600D
:1002A00008001100FB1C021C1A70BB1C0A1C1A70EF
:1002B0000F23FB1801221A700E23FB1800221A705C
:1002C0000D23FB1800221A70404B00221A607B6835
:1002D0001B6828221A437B681A6060E03C4B1B684D
:1002E0001B09BB600EE0BB68013BBB60BB68002B19
:1002F00008D1364B012252421A600E23FB1801220C
:100300001A7004E07B681B6808221340EBD07B68FE
:10031000DB68083B282B26D89A002E4BD3181B6885
:100320009F46FB1C1B785B001A007B689A600D23BC
:10033000FB1808221A7027E0BB1C1A787B689A60A9
:1003400022E00D23FB1818221A700E23FB1801223D
:100350001A7019E00D23FB1818221A700F23FB18CE
:1003600000221A7010E07B681B683C22934318221D
:100370001A437B681A600D23FB1808221A700E239B
:10038000FB1801221A70C0467B681B683C2293430D
:100390001A000D23FB181B781A437B681A600F2381
:1003A000FB181B78002B04D00E23FB181B78002BA6
:1003B00094D00E23FA180F23FB1812781B781343DE
:1003C000DBB21800BD4604B080BDC046E800002086
:1003D00050000020DC3D000080B588B000AFF86020
:1003E000080011007B600B23FB18021C1A700A2303
:1003F000FB180A1C1A701F23FB1801221A701E23F7
:10040000FB1800221A701D23FB1800221A7000230B
:10041000BB61434B00221A60FB681B6828221A4309
:10042000FB681A606CE03F4B1B681B097B610AE0AC
:100430007B69013B7B617B69002B04D1384B012236
:1004400052421A6004E0FB681B6808221340EFD098
:10045000FB68DB68083B282B36D89A00324BD31850
:100460001B689F460B23FB181B785B001A00FB6878
:100470009A601D23FB1808221A7036E00A23FB1825
:100480001A78FB689A6030E01D23FB1818221A7056
:100490001E23FB1801221A7027E0BA69BB6A9A4230
:1004A00009D2BB695A1CBA617A68D3181B781A0042
:1004B000FB689A6019E01D23FB1818221A701F238D
:1004C000FB1800221A7010E0FB681B683C22934363
:1004D00018221A43FB681A601D23FB1808221A70A1
:1004E0001E23FB1801221A70C046FB681B683C22C1
:1004F00093431A001D23FB181B781A43FB681A60EC
:100500001F23FB181B78002B04D01E23FB181B781D
:10051000002B88D0BB691800BD4608B080BDC0461E
:10052000E800002050000020803E000080B588B028
:1005300000AFF8607A603B600B23FB180A1C1A704E
:100540001F23FB1801221A701E23FB1800221A70A9
:100550001D23FB1800221A700023BB614F4B0022A1
:100560001A60FB681B6828221A43FB681A6085E042
:100570004B4B1B681B097B610AE07B69013B7B617C
:100580007B69002B04D1454B012252421A6004E0E2
:10059000FB681B6808221340EFD0FB68DB68482B20
:1005A0001DD004D8082B07D0402B13D04AE0502B85
:1005B0001ED0582B34D045E00B23FB181B785B0072
:1005C000012213431A00FB689A601D23FB180822BE
:1005D0001A7048E01D23FB180C221A7043E01D23FB
:1005E000FB1818221A701E23FB1801221A703AE019
:1005F000BB695A1CBA617A68D218FB689B68DBB287
:1006000013703B685A1EBB699A4204D91D23FB181C
:100610000C221A7027E01D23FB1808221A7022E012
:10062000BB695A1CBA617A68D218FB689B68DBB256
:1006300013701D23FB1818221A701F23FB180022A9
:100640001A7010E0FB681B683C22934318221A437F
:10065000FB681A601D23FB1808221A701E23FB1862
:1006600001221A70C046FB681B683C2293431A00A3
:100670001D23FB181B781A43FB681A601F23FB1805
:100680001B78002B05D01E23FB181B78002B00D1F4
:100690006EE7BB691800BD4608B080BDE8000020C9
:1006A0005000002080B588B000AFF860080011004D
:1006B0007B600B23FB18021C1A700A23FB180A1C10
:1006C0001A701F23FB1801221A701E23FB18002228
:1006D0001A701D23FB1800221A700023BB615D4BAA
:1006E00000221A60FB681B6828221A43FB681A6004
:1006F000A0E0594B1B685B097B610AE07B69013B09
:100700007B617B69002B04D1524B012252421A605B
:1007100004E0FB681B6808221340EFD0FB68DB682D
:10072000083B502B6AD89A004C4BD3181B689F4645
:100730000B23FB181B785B001A00FB689A601D23D3
:10074000FB1808221A706AE00A23FB181A78FB6863
:100750009A6064E01D23FB1818221A701E23FB18F0
:1007600001221A705BE01D23FB1828221A7056E044
:100770000B23FB181B785B00012213431A00FB6854
:100780009A601D23FB1808221A7048E01D23FB18ED
:100790000C221A7043E01D23FB1818221A701E2326
:1007A000FB1801221A703AE0BB695A1CBA617A68D8
:1007B000D218FB689B68DBB21370BB6A5A1EBB6918
:1007C0009A4204D91D23FB180C221A7027E01D231E
:1007D000FB1808221A7022E0BB695A1CBA617A68B9
:1007E000D218FB689B68DBB213701D23FB1818221C
:1007F0001A701F23FB1800221A7010E0FB681B6898
:100800003C22934318221A43FB681A601D23FB18ED
:1008100008221A701E23FB1801221A70C046FB68BA
:100820001B683C2293431A001D23FB181B781A43B4
:10083000FB681A601F23FB181B78002B05D01E23B2
:10084000FB181B78002B00D153E7BB691800BD468D
:1008500008B080BDE800002050000020243F0000C8
:1008600080B588B000AFF860B9607A60FB681800A6
:1008700000F028F903007B610023FB610023BB61CA
:100880007B695A087B689A4202D20223FB6113E01B
:100890007968786902F08EFD0300FB61FB691B0E2D
:1008A000BB61BB69002B07D0BB6901331900F86934
:1008B00002F080FD0300FB61BA68BB691A43FB6864
:1008C0001A60FB68FA695A60BB690133FA695343DD
:1008D0001900786902F06EFD03001800BD4608B0EB
:1008E00080BD000090B58BB000AF786039607B6848
:1008F000180000F0E7F803007B6200233B6200234E
:100900003B617B6800221A607B6800225A617B6A27
:10091000654A93420DD83B68644A934202D8FA2351
:100920009B003B603B68604A93420DD95E4B3B6045
:100930000AE03B68632B01D864233B603B685A4A5A
:10094000934201D9584B3B607B6A574A934212D875
:1009500000233B62796A564802F02CFD0300FB60DD
:100960003B68FA2292005343F968180002F022FD16
:100970000300BB614BE07B6A4E4A934205D90723D3
:100980003B627B6ADB087B6212E07B6A4A4A9342E5
:1009900005D903233B627B6A9B087B6208E07B6A84
:1009A000464A934204D901233B627B6A5B087B621F
:1009B0003B68F92B09D83B687A6A53433A491800D7
:1009C00002F0F8FC0300BB6121E07B6A36491800A5
:1009D00002F076FD0B1E0AD17B6A3349180002F043
:1009E000E9FC03001A003B685343BB610FE0796ADE
:1009F0002F4802F0DFFC0300FB603B68FA22920004
:100A00005343F968180002F0D5FC0300BB617B6812
:100A1000BA695A603B6A8022D2051A437B681A6021
:100A2000274B1B68796A180002F0C4FC03000133ED
:100A3000FB6103E0C046FB69013BFB61FB69002BE6
:100A4000F8D11F4B1C687B68180000F03BF80300CE
:100A50001900200002F0AEFC03001A003B6A0133CB
:100A60005343FB617B68DB687B6112E07B68DA687B
:100A70007B699A4208D13B695A1C3A61FA699342F0
:100A800007D901235B420BE000233B617B68DB68F5
:100A90007B617B681A6880239B041340E6D10023A6
:100AA0001800BD460BB090BD40420F00E7030000A8
:100AB00000CA9A3B0090D0030048E8010024F400EB
:100AC0005000002090B58DB000AF78600823FB186F
:100AD0002A4A13CA13C313CA13C303CA03C37B68C6
:100AE000274A934206D1274B5B691B0A0722134012
:100AF000FB6222E07B68244A934206D1214B5B696A
:100B00001B0B07221340FB6217E07B681F4A9342CE
:100B100006D11C4B5B691B0C07221340FB620CE0E7
:100B20007B681B4A934206D1164B5B691B0D07225B
:100B30001340FB6201E000231BE0FB6A022B11D192
:100B40007B680F4A934203D07B680F4A934204D1DB
:100B500001F01EFC0300BB620AE001F02FFC030061
:100B6000BB6205E00823FB18FA6A9200D358BB6207
:100B7000BB6A1800BD460DB090BDC046684000007D
:100B80000000014000020050200001400000114020
:100B90002000114080B582B000AF0200FB1D1A702A
:100BA000FB1D1B787F2B09D8064BFA1D127811000C
:100BB0001F220A40012191400A001A60C046BD462A
:100BC00002B080BD00E100E080B582B000AF02005D
:100BD000FB1D1A70FB1D1B787F2B0ED80949FB1DCE
:100BE0001B781A001F23134001229A401300802211
:100BF0008B50BFF34F8FBFF36F8FC046BD4602B01F
:100C000080BDC04600E100E080B584B000AFF86070
:100C1000B9607A6007E0FB685A1CFA60BA68511C38
:100C2000B96012781A707B685A1E7A60002BF2D174
:100C3000C046BD4604B080BD80B586B000AF02009E
:100C4000FB1D1A7000237B6121E07B691B01134AA5
:100C5000944663443B613B691B68FB60FB680F2261
:100C60001A40FB1D1B789A420ED17B691B010C4A6E
:100C7000944663443B613B691B68FB603B69FA68CF
:100C800002210A431A6005E07B6901337B617B69BD
:100C9000072BDADDC046BD4606B080BD080506401C
:100CA0000C05064080B582B000AF654B5B687B6089
:100CB000634B1B690F2213403B607B680422134087
:100CC00014D05F4B04225A605D4B5B6901221340D4
:100CD00006D05B4B5A4A126990210A431A6105E01B
:100CE000574B574A126980218A431A617B68012257
:100CF000134025D0524B01225A603B680122134019
:100D00000AD04F4B4E4A126990210A431A6102F0F1
:100D10003DFA4C4B00221A603B680222134005D07A
:100D2000474B474A126910218A431A613B680422E3
:100D3000134005D0424B424A126990210A431A617E
:100D40007B680822134002D03D4B08225A607B6822
:100D50000222134000D16FE07B68002B11DA384B80
:100D6000802212065A60384B374A126801210A4322
:100D70001A60364B354A126801210A431A6001F0A5
:100D800077FD7A6880235B02134005D02C4B8022CC
:100D900052025A6002F008F97A6880239B021340DD
:100DA00010D0274B802292025A6002F095F9284B0E
:100DB0005B78202B06D1264B1B79002B02D100201B
:100DC00000F052F97A688023DB02134005D01C4BF7
:100DD0008022D2025A6000F03DF87A6880231B031B
:100DE000134005D0164B802212035A6000F03CF8E5
:100DF0007A6880235B03134003D0114B8022520397
:100E00005A607A6880239B03134003D00C4B8022E6
:100E100092035A607A688023DB03134003D0084BA7
:100E20008022D2035A607A6880231B04134003D0C7
:100E3000034B802212045A60C046BD4602B080BDFA
:100E400000000640EC0000200C0506401C05064092
:100E50005C01002080B500AF024B00221A60C04642
:100E6000BD4680BD5001002080B500AF124BDA684E
:100E7000E0231B031A40114B1B689A4203D1104B0D
:100E800040221A6015E00E4B1A680E4B1A600E4B8A
:100E90001B680E4A944663441A000D4B1A60064BB9
:100EA000DA68E0231B031A40044B1A60094B012245
:100EB0001A70C046BD4680BD00000640EC00002010
:100EC000340506404C010020300506400001064074
:100ED000480100205401002080B500AF144B0022CF
:100EE0009A61144B902292001A60134B08221A60E8
:100EF000124B882292001A60114B08221A60114B83
:100F000041221A60104B48221A60104B22221A60AC
:100F10000F4B88221A600F4B40221A600E4B43225F
:100F20001A600E4BC8221A60C046BD4680BDC0463E
:100F3000000006400805064000050640180506406A
:100F400010050640280506402005064038050640E5
:100F50003005064034050640480506404005064079
:100F600080B582B000AF3B00180001F071FC3B007F
:100F70001B785BB2002B28DA3B005B78212B1CD15D
:100F80003B001B79002B0AD1314B1B68314A944638
:100F900063441800304B07221900FFF735FE2F4B32
:100FA0002E4A126880210A431A602D4B07221A60CC
:100FB0000021002002F070F846E00020FFF73CFE20
:100FC0000120FFF739FEC0463EE03B005B78202B56
:100FD00020D0222B31D13B001B79002B10D13B00BC
:100FE000DB789AB21F4B1A801E4B1B881B021AB269
:100FF0003B009B781BB213431BB29AB2194B1A8069
:10100000164B164A126880210A431A60144B0022BC
:101010001A6019E03B001B79002B04D10E4B07210D
:10102000180002F039F80D4B0C4A126880210A436F
:101030001A600B4B00221A6006E00020FFF7FCFD4F
:101040000120FFF7F9FDC046C046BD4602B080BD95
:10105000000506400001064010000020080506407B
:1010600004050640F800002090B585B000AF0200EE
:10107000FB1D1A70FB1D1B78002B00D085E00023A0
:10108000BB600C20FFF7A0FD424B00221A80424BB0
:1010900000221A80414B00221A80414B00221A8004
:1010A000404B00221A80404B00221A803F4B062200
:1010B0009A603F4B1B685B083E4A9A183C4B1B6882
:1010C0001900100002F076F90300023BBB60BB6818
:1010D000394A934211D9354C354B1B68374A9446EF
:1010E0006344DA00324B1B681900100002F062F909
:1010F00003001B09023B636205E02C4BBA68C02168
:1011000089050A435A622A4B5B79002B02D10023DE
:10111000FB600FE0264B5B79012B02D10823FB60BB
:1011200008E0234B5B79022B02D11823FB6001E01E
:101130000023FB601E4B9B79062B08D002DC052B9D
:1011400014D014E0072B07D0082B0AD00FE0FB685F
:1011500001221343FB600AE0FB6802221343FB6099
:1011600005E0FB6803221343FB6000E0C046104B20
:101170001B79002B03D0FB6804221343FB600B4B4D
:10118000FA68DA600C20FFF705FDC046BD4605B0E1
:1011900090BDC046FC000020FE00002000010020A1
:1011A000020100200401002006010020000005408B
:1011B0001000002000366E01FFFF0000C0C62D00A9
:1011C00080B582B000AF0200FB1D1A70FB1D1B78BA
:1011D0007F2B09D8064BFA1D127811001F220A40F6
:1011E000012191400A001A60C046BD4602B080BD90
:1011F00000E100E080B500AFA023DA0580235B00AA
:101200005921D150A023DA0580235B001621D1504B
:10121000A023DA0580235B008821D150A023DA05C2
:1012200080235B00D358002BE6D0C046BD4680BD6E
:1012300080B500AFA023DA0580235B000021D150E8
:10124000C046BD4680BD80B582B000AF78607B6887
:101250001B688022D2051A437B681A60C046BD46CF
:1012600002B080BD80B582B000AF78607B681B683B
:10127000034A1A407B681A60C046BD4602B080BD72
:10128000FFFFFFBF80B582B000AF78607B681B684E
:10129000802292051A437B681A60C046BD4602B0A0
:1012A00080BD80B582B000AF78607B689B6801220A
:1012B00013405A1E9341DBB21800BD4602B080BDF8
:1012C00080B582B000AF78607B6801229A60C0462A
:1012D000BD4602B080BD80B584B000AFF860B96093
:1012E0007A6007E0FB685A1CFA60BA68511CB96062
:1012F00012781A707B685A1E7A60002BF2D1C046B1
:10130000BD4604B080BD000080B500AF042001F0F0
:101310000BF9102001F04EF90021042001F064F8CF
:10132000204B00220021180001F09CF8E023DB0292
:101330001D480022190001F095F8E023DB031B484B
:101340000022190001F08EF8164B180001F006F982
:10135000164B180001F002F9154B180001F0FEF8C9
:10136000114B180001F0FAF801F0D6FFA023DB05BD
:10137000A022D205526B0F490A405A63A023DB0515
:10138000A022D205526B882149010A435A630A4BB5
:10139000094A526AC02109010A435A62C046BD4641
:1013A00080BDC0469B3C80720400005F0500405F2A
:1013B00009000040FF00FFFF0040005080B584B0EE
:1013C00000AF334B1B68002B5DD1324B1B889BB2A7
:1013D000002B4FD02F4B1B889BB2BB60BB68402BB0
:1013E00001DD4023BB600023FB601AE02A4B1B8811
:1013F0009BB22A4A934202D9274B00221A80264BDD
:101400001B889BB25A1C91B2234A11801A00244BAC
:10141000995C244AFB68D3180A1C1A70FB680133D4
:10142000FB60FA68BB689A42E0DB01233B603B68E3
:1014300083F31088174B1B889AB2BB689BB2D31AF0
:101440009AB2144B1A8000237B607B6883F3108868
:10145000BA680F4B1A60144B1B68144A94466344D5
:101460001800BA680F4B1900FFF735FF104BBA6828
:101470001A6008E00E4B1B68BB60BB68402B02D1B2
:101480000B4B00221A60C046BD4604B080BDC0466A
:1014900050010020FC000020FE000020FF0300009F
:1014A000E801002008010020200506400001064058
:1014B0002405064080B584B000AF78600023FB604F
:1014C00028E01A4B1B889BB2194A93421FD8194B2C
:1014D0001B889BB25A1C91B2164A11801900FB68F6
:1014E0007A68D3181B785BB2DAB2134B5A54114B9B
:1014F0001B889BB20E4A934202D90E4B00221A80DF
:101500000A4B1B889BB201339AB2084B1A80FB68C6
:101510000133FB607B68180002F046F80200FB68AC
:101520009A42CED8C046BD4604B080BDFC00002023
:10153000FF03000000010020E801002080B500AF9B
:10154000174B1B889BB2174A934225D8164B1B8812
:101550009BB25A1C91B2144A11801A00134B0D21F0
:101560009954114B1B889BB25A1C91B20E4A1180A0
:101570001A000E4B0A2199540B4B1B889BB2094A47
:10158000934202D9084B00221A80054B1B889BB25C
:1015900001339AB2024B1A80C046BD4680BDC04698
:1015A000FC000020FF03000000010020E8010020F3
:1015B00080B584B000AF786034E0224B1800FFF7AC
:1015C00042FE204B14211800FFF78CF91E4B00221D
:1015D0001A601C4B14211800FFF784F91A4B0122E2
:1015E0001A600F23FB181A780F23FB1801321A70A8
:1015F0000FE0FFF7A3FF154B1800FFF75BFFFFF7A6
:101600009DFFFFF7DBFE124A0E4B11001800FFF79B
:1016100069F90F23FB181B78042BEAD8094B180033
:10162000FFF720FE01227B689A401300DBB20948D5
:101630001A007021FEF730FE031EBED1C046BD4623
:1016400004B080BD00001140CC4200504C4100006D
:1016500040420F000000124080B582B000AF00236E
:101660007B6039E0204B1B781A007B681A4113001D
:10167000DB005BB2082213405AB21C4B1B781900E6
:101680007B6819410B009B005BB204210B405BB2ED
:1016900013435BB2DAB2164B1B7819007B68194111
:1016A0000B005B00DBB202210B40DBB2D318DAB2D5
:1016B000104B1B7819007B6819410B00DBB201212C
:1016C0000B40DBB2D318D9B20B4A7B68D3180A1C83
:1016D0001A707B6801337B607B68052BC2DDC046D6
:1016E000BD4602B080BDC046C00100200C0A0020EB
:1016F000C1010020340A0020E001002080B582B042
:1017000000AF00237B60E3E0784A7B68D3181B7846
:10171000072B51D8764B7A689200D3581B68002B60
:101720000BD0744A7B68D3181B780133D9B2714A45
:101730007B68D3180A1C1A700AE06F4A7B68D318BA
:101740001B780133D9B26C4A7B68D3180A1C1A7013
:10175000694A7B68D3181B78032B05D0654A7B68E0
:10176000D3181B78022B15D1614B7A689200D3589D
:101770005F4A796889008A58126801214A401A60D4
:101780005C4A7B68D31800221A705B4A7B68D318C6
:1017900000221A70594B7A689200D35801221A60BD
:1017A0007B68DA00564BD218564B100019000823FC
:1017B0001A0001F0C5FE88E04C4A7B68D3181B78FC
:1017C0000B2B1DD8494A7B68D3181B78072B17D9D8
:1017D0004A4B7A689200D35801221A60444B7A68C7
:1017E0009200D35801221A607B68DA00444BD21869
:1017F000454B1000190008231A0001F0A1FE64E017
:101800003A4A7B68D3181B780D2B23D8374A7B685C
:10181000D3181B780B2B1DD9384B7A689200D358FC
:1018200001221A60324B7A689200D358304A7968A4
:1018300089008A58126801214A401A607B68DA00E0
:101840002F4BD218314B1000190008231A0001F059
:1018500077FE3AE0254A7B68D3181B780E2B17D108
:10186000264B7A689200D35801221A60204B7A687E
:101870009200D35800221A607B68DA00204BD218FD
:10188000234B1000190008231A0001F059FE1CE038
:10189000164A7B68D3181B780F2B16D1174B7A6822
:1018A0009200D35800221A60114B7A689200D358E4
:1018B00001221A607B68DA00114BD218154B100018
:1018C000190008231A0001F03BFE7B6801337B609E
:1018D0007B68052B00DC17E70F4B00215956084B9E
:1018E00030229954C046BD4602B080BDE0010020C0
:1018F00030000020C8010020D00100201800002086
:10190000380A002054410000604100006C41000092
:1019100078410000844100009041000080B584B00F
:1019200000AF0200FB1D1A70BB1D0A1C1A70BB1D04
:101930001A78FB1D1B7816481900FEF7ADFC154BF5
:1019400014211800FEF7CEFF0C23FA1810480223CA
:101950000B21FEF7EBFD0C23FB181B7899B20C232F
:10196000FB185B789BB21B029AB20E23FB188A18F5
:101970001A800C23FB1802220021180001F0E9FD57
:101980000E23FB181B881800BD4604B080BDC0465E
:10199000000012400000114080B582B000AF00236B
:1019A0007B604DE17B681800FFF702FEA84B1B78B7
:1019B0001A007B681A4113000122134013D0A54B73
:1019C0001B781A007B681A411300012213400AD0C9
:1019D000A14B1B781A007B681A41130001221340A7
:1019E00001D1012200E00022FB1C1A701A780121AB
:1019F0000A401A70FB1C1B78002B00D1FAE0974BB1
:101A000000220B211800FEF747FC031E33D0944B35
:101A10007A6852009349D152934B7A685200FA2166
:101A20004900D152914B7A6852008E49D152904B65
:101A30007A685200FA214900D1528E4A7B68D31845
:101A400000221A7001227B689A4013005AB28A4B16
:101A50001B785BB213435BB2DAB2874B1A70874ACA
:101A60007B68D3181B780133D9B2844A7B68D318BA
:101A70000A1C1A70E1E009210B20FFF74FFF030059
:101A80001900774B7A685200D1520A210B20FFF7D8
:101A900045FF030019B2744B7A685200D1520821F5
:101AA0000B20FFF73BFF03001900754B7A685200CB
:101AB000D15216210B20FFF731FF03001900714BA3
:101AC0007A685200D1520D210B20FFF727FF030047
:101AD000D9B2684A7B68D3180A1C1A70684B7A68B6
:101AE0005200D35A684A934219D9604B7A6852001F
:101AF0000021D1525E4B7A6852000021D15201225E
:101B00007B689A4013005BB2DB435BB25A4A12789F
:101B100052B213405BB2DAB2574B1A708DE0554A9D
:101B20007B68D3181B78612B24D84F4B7A685200FE
:101B3000D35E002B1EDC15210B20FFF7EFFE030008
:101B400019004A4B7A685200D152494B7A685200C8
:101B50004E49D15201227B689A4013005BB2DB43AD
:101B60005BB2454A127852B213405BB2DAB2424BD2
:101B70001A7062E015210B20FFF7D0FE0300190058
:101B80003A4B7A685200D152394B7A6852003F4939
:101B9000D15201227B689A4013005AB2364B1B780F
:101BA0005BB213435BB2DAB2334B1A70314A7B68D3
:101BB000D3181B78612B0DD901227B689A40130042
:101BC0005AB2334B1B785BB213435BB2DAB2304B81
:101BD0001A7032E001227B689A4013005BB2DB434B
:101BE0005BB22B4A127852B213405BB2DAB2284B86
:101BF0001A7022E01A4B7A6852000021D1521A4B17
:101C00007A6852000021D1521D4B7A68520000219F
:101C1000D152164B7A6852000021D152144B7A6887
:101C200052000021D152134A7B68D31800221A7047
:101C3000144B7A6852000021D1527B6801337B60DB
:101C40007B68052B00DCADE6C046BD4602B080BD1A
:101C5000C00100200C0A0020E8050020000012400E
:101C6000000A0020D8400000F4090020280A0020C3
:101C7000B40100206C0A0020C1010020EC09002002
:101C8000100A00201C0A0020350D0000DC050000B1
:101C9000340A002080B582B000AF194A19480223E7
:101CA0002121FEF743FC164B1B78174A127813408C
:101CB000DAB2164B1A7000237B601AE0134B1B78C4
:101CC0001A007B681A411300012213400ED1012231
:101CD0007B689A4013005BB2DB435BB20C4A12781C
:101CE00052B213405BB2DAB2094B1A707B6801330F
:101CF0007B607B68052BE1DDC046BD4602B080BD40
:101D0000C401002000001240C00100200C0A002085
:101D1000E805002080B584B002AF00237B604CE072
:101D20007B681800FFF744FC3A0027480223009321
:101D30001300FF220921FEF7B5FC3B001B78302B76
:101D400032D13B005B78002B2ED101227B689A4078
:101D500013005AB21D4B1B785BB213435BB2DAB26D
:101D60001A4B1A701A4A18480223009313003F2294
:101D70000921FEF731FB174A134802230093130091
:101D800012220921FEF78EFC124B5B7860229343EE
:101D9000DAB2104B5A700F4A0B480223009313001B
:101DA00012220921FEF718FB3B0002220021180035
:101DB00001F0CFFB7B6801337B607B68052BAFDDD7
:101DC000C046BD4602B080BD00001240C0010020E8
:101DD00048000020740A002080B582B000AF78600F
:101DE000184B7A685200D35ADBB20F229343DBB20E
:101DF000803BDAB2144B1A70124B7A685200D35AF5
:101E00001B0A9BB2DBB27F221340DAB20E4B5A7030
:101E10000E4B7A685200D35ADBB23F229343DAB2B8
:101E20000B4B1A70094B7A685200D35A1B0A9BB2AB
:101E3000DBB21F221340DAB2054B5A70C046BD46D2
:101E400002B080BD280A0020D8010020B401002083
:101E5000B001002080B584B002AF00237B6025E094
:101E6000164B1B781A007B681A411300012213409D
:101E700019D07B681800FFF79BFB7B681800FFF701
:101E8000ABFF0F4A0F4802230093130015220921CC
:101E9000FEF7A2FA0C4A0B48022300931300142207
:101EA0000921FEF799FA7B6801337B607B68052B7B
:101EB000D6DDC046BD4602B080BDC046C001002090
:101EC000D801002000001240B001002080B586B08B
:101ED00000AF0200BB1D1A807B1D0A1C1A707B1DFF
:101EE0001B78002B0AD1BB1D1A883B490823FB181D
:101EF000180001F037FB03003B6139E07B1D1B78C4
:101F0000102B08D1BB1D1A8834490823FB18180070
:101F100001F028FB2CE07B1D1B780A2B28D1BB1D70
:101F20001B88002B08D1BB1D1A882B490823FB18DE
:101F3000180001F017FB1BE0BB1D1B88284A9A18EC
:101F400025490823FB18180001F00CFB0823FB1897
:101F500004229A560823FB18DA700823FB1805227E
:101F60009A560823FB181A710823FB182E225A715F
:101F700000237B6129E01B4B1B889BB21A4A9342CA
:101F800020D81A4B1B889BB25A1C91B2174A118059
:101F900019000823FA187B69D3181B785BB2DAB2F0
:101FA000134B5A54114B1B889BB20F4A934202D9D0
:101FB0000E4B00221A800B4B1B889BB201339AB246
:101FC000084B1A807B6901337B617B69072BD2DD6B
:101FD000C046BD4606B080BD944100009C41000053
:101FE00055F5FFFFFC000020FF030000000100206A
:101FF000E801002080B586B000AF8023DA004D4BA9
:102000000021180001F0A5FA4B4B00221A80FFF7BF
:1020100095FA4A4B1800FFF74DFAFFF78FFA484B35
:102020001800FFF747FA474B1800FFF743FAFFF78E
:1020300085FA454B1800FFF73DFA00237B610AE063
:10204000424B7A695200D35A00211800FFF73EFF35
:102050007B6901337B617B69052BF1DDFFF76EFA4C
:102060003B4B1800FFF726FA00233B6112E0394B87
:102070003A695200D35E1A1C13B2002B01DA002316
:102080001A1C13B29BB200211800FFF71FFF3B6917
:1020900001333B613B69052BE9DDFFF74FFA2E4B1E
:1020A0001800FFF707FA0023FB600AE02B4BFA68E1
:1020B0005200D35A0A211800FFF708FFFB680133CA
:1020C000FB60FB68052BF1DDFFF738FA244B1800A5
:1020D000FFF7F0F90023BB600BE0224ABB68D3187E
:1020E0001B789BB200211800FFF7F0FEBB6801339C
:1020F000BB60BB68052BF0DDFFF720FA1A4B180018
:10210000FFF7D8F900237B600AE0184B7A68520089
:10211000D35A10211800FFF7D9FE7B6801337B608A
:102120007B68052BF1DDFFF709FAC046BD4606B016
:1021300080BDC046E801002000010020A44100004D
:10214000E0410000380A0020EC410000000A0020B5
:10215000F8410000F409002004420000100A0020A9
:10216000104200006C0A00201C4200001C0A0020E3
:1021700080B500AF124B1800FFF793F80300012B56
:102180001AD10F4B1800FFF79BF8FFF705FCFFF77C
:1021900061FEFFF761FAFFF7B1FA0A4B1B780133D2
:1021A000DAB2084B1A70074B1B78012B04D9054B88
:1021B00000221A70FFF71EFFC046BD4680BDC04614
:1021C00020001140FA00002080B582B000AF0E4B15
:1021D0001A6A8023DB01134006D00B4B8022D20108
:1021E0001A62FFF757FD0BE0084B1B6A7B60074B39
:1021F0007A681A62044B1B6A7B60034B7A681A6226
:10220000C046BD4602B080BD404000500040005076
:1022100080B500AFFEF7EEFFFFF776F8FFF708F89E
:102220004E4B012201211800FDF7B6FF4B4B012256
:1022300002211800FDF7B0FF484B012204211800CD
:10224000FDF7AAFF454B012208211800FDF7A4FF66
:1022500080235B00414801221900FDF79DFF802388
:102260009B003E4801221900FDF796FF8023DB000A
:102270003A4801221900FDF78FFF80231B013748E0
:1022800001221900FDF788FF80235B0133480122FA
:102290001900FDF781FF80239B01304801221900BE
:1022A000FDF77AFF2E4B012210211800FDF774FF75
:1022B0002B4B012220211800FDF76EFF29492A4BE4
:1022C0000022180000F074FAFEF706FE00F0A2FAF1
:1022D000264B1A68264B1A60254B1A68254B1A6044
:1022E000254B10225A601720FEF76AFF234A244B21
:1022F00011001800FDF79CFFFFF70CFDFFF7CAFC6B
:10230000204B022208211800FDF746FF1E4B012238
:102310001A6080231B051D4801221900FEF7A0FA50
:102320001A4B1800FEF7AEFF0B20FEF749FF174BC4
:102330001800FEF788FF8023DB01094800221900FE
:10234000FDF72AFF064B01220E211800FDF750FF72
:102350000420FEF735FFFFF731F8FCE7804000501E
:1023600040400050610F000030410000100100505B
:10237000F0000020F40000200000064010270000BC
:1023800000001240C0400050CC42005020001140DC
:1023900080B500AF00F0C0FF064B1B694022134020
:1023A00003D0054B1B685B0801E0034B1B6818005A
:1023B000BD4680BD000200505000002080B500AF37
:1023C00000F0AAFF064B1B698022134003D0054B87
:1023D0001B685B0801E0034B1B681800BD4680BD0D
:1023E000000200505000002080B584B000AF78603B
:1023F00039601B4BDB6810221340FB60184B184AF6
:10240000126804210A431A60102000F0D3F8144B1C
:10241000134A126907218A4304210A431A61104BA7
:102420000F4A92690F218A4311003A680A439A6160
:102430000B4B0B4A126907218A4311007A680A4341
:102440001A6100F069FFFB68002B05D1044B044AB8
:10245000126804218A431A60C046BD4604B080BD9C
:102460000002005090B58DB000AFF860B9607A609E
:10247000FB689B0AFF22134022D000237B62FB688B
:102480009B0C032213409B0030229446BC446344BF
:102490000C3B1B68214A94466344FB62FB6AFA6A60
:1024A0001268F968890AFF200840F96849091F2461
:1024B000214088400100C94311407A680A431A60EC
:1024C000FB685B0E0722134024D01423FB18144A28
:1024D00013CA13C312681A60FB681B0F03221A4049
:1024E0001423FB189200D3580E4A94466344BB62EF
:1024F000BB6ABA6A1268F968490E07200840F96891
:10250000090D1F24214088400100C9431140BA68C9
:102510000A431A60C046BD460DB090BD1802005077
:102520002C4200001002005080B582B000AF7860ED
:10253000094B1A687B68134303221340032B06D010
:10254000054B054A11687A680A431A6000E0C046E4
:10255000BD4602B080BDC0460002005090B587B0B5
:1025600000AF78600C23FB18104A13CA13C37B68B2
:102570009A0F0C23FB189200D3580D4A94466344DB
:102580007A68910F0C22BA1889008A5808498C463B
:102590006244126879681F200140012088400100D0
:1025A0000A431A60C046BD4607B090BD3C420000D9
:1025B0000402005080B584B000AF7860124B1B68F5
:1025C0009B08FB600123BB60104B00221A6008E0EF
:1025D000FB68013BFB60FB68002B02D10023BB6062
:1025E00006E00B4BDB687A681A407B689A42EFD1B1
:1025F000FB68002B03D1054B012252421A60BB68D5
:102600001800BD4604B080BD5000002058010020D5
:102610000002005080B582B000AF7860C046BD4671
:1026200002B080BD80B500AF7046EFF30881EFF3D4
:102630000982034B98470047C046BD4680BD000055
:102640004526000080B586B000AFF860B9607A60BA
:10265000FB680422134002D07B687B6101E0BB6809
:102660007B617B691800FFF7D5FFFEE780B582B07C
:1026700000AF78600C4A0D4B1B6879684B43536080
:10268000094B00229A60084B05221A60C046064B8F
:102690001A6880235B021340F9D0034B00221A60B2
:1026A000C046BD4602B080BD10E000E054000020EE
:1026B00080B584B000AFF860B9607A6007E0FB686D
:1026C0005A1CFA60BA68511CB96012781A707B689B
:1026D0005A1E7A60002BF2D1C046BD4604B080BDC0
:1026E00080B586B000AF0200FB1D1A7000237B612D
:1026F00021E07B691B01134A944663443B613B69BB
:102700001B68FB60FB680F221A40FB1D1B789A4276
:102710000ED17B691B010C4A944663443B613B69C3
:102720001B68FB603B69FA6802210A431A6005E0F6
:102730007B6901337B617B69072BDADDC046BD46CF
:1027400006B080BD080506400C05064080B586B081
:1027500000AF0200FB1D1A7000233B6119E03B69CA
:102760001B01114A944663447B617B691B68FB60D3
:10277000FB680F221A40FB1D1B789A4206D13B6969
:102780001B010A4A944663447B6105E03B690133BF
:102790003B613B69072BE2DD7B691B68022213402A
:1027A0001800BD4606B080BD080506400C05064071
:1027B00080B584B000AFF860B9607A60104BFA68F9
:1027C0001A60104BBA681A600F4B7A681A600C4B8B
:1027D0001B681B6807331B781A000C4B1A600C4BE4
:1027E000FA22D2001A610A49094A9023D3580122D9
:1027F000134390228B50C046BD4604B080BDC046F6
:10280000780A002094010020980100204C0000204C
:102810000000064080B500AF0B4B1800FFF726FF05
:102820000A490A4A9023D3580122934390228B509D
:10283000064B0F225A60054B044A12680F210A43C7
:102840001A60C046BD4680BDA0860100000006405B
:1028500080B582B000AF786004497B680822180018
:10286000FFF726FFC046BD4602B080BD5C010020D8
:1028700080B500AF1E4B00221A601E4B9B691E4A9A
:1028800099181E4B08221800FFF712FF1B4B1B78EC
:102890001A0060231340202B06D0402B0CD0002BB5
:1028A00012D100F055F91FE0154B1B68002B18D012
:1028B000134B1B68984714E0124B1B68002B12D077
:1028C000104B1B6898470EE00F4B0F4A126802210D
:1028D0000A431A600D4B0D4A126802210A431A601E
:1028E00002E0C04600E0C046C046BD4680BDC046CE
:1028F0008C01002000000640000106405C01002021
:1029000094010020900100200C0506401C050640A3
:1029100080B584B000AF874B00221A700023FB60A3
:10292000854BDB79FB60FB681B02FB60824B9B796C
:102930001A00FB689B18FB607F4BDB78222B00D9C9
:10294000E6E09A007D4BD3181B689F46FB68122B6C
:1029500000D91223FB607A4B1B681B68FA681100D0
:10296000180000F0C9FAE0E0754B1B685B680333A0
:102970001B78BB60724B1B685B6802331B781A00C4
:10298000BB681B02D318BB60FA68BB689A420DD9BA
:10299000BB68FB606B4B1A68FB681100180000F005
:1029A0008FFD0B1E02D1634B01221A70644B1B6812
:1029B0005B68FA681100180000F09EFAB5E0FB6849
:1029C000092B00D90923FB605D4B1B685A695A4BE0
:1029D0001B799B00D3181B687B60594B1B685A6896
:1029E0007B68D318FA681100180000F085FA9CE0A3
:1029F000534B1B681A69504B1B799B00D3181A68FC
:102A0000FB689A4214D24E4B1B681A694A4B1B79D9
:102A10009B00D3181B68FB604A4B1A68FB681100C7
:102A2000180000F04DFD0B1E02D1424B01221A701E
:102A3000434B1B68DA68404B1B799B00D3181B681B
:102A4000FA681100180000F057FA6EE03A4B9B78D4
:102A5000032B30D83A4B1B689A68374B9B789B0006
:102A6000D3181B681B781A00FB689A4215D2344BA6
:102A70001B689A68304B9B789B00D3181B681B78A7
:102A8000FB60304B1A68FB681100180000F018FD5D
:102A90000B1E02D1274B01221A70294B1B689A6822
:102AA000254B9B789B00D3181B68FA68110018000F
:102AB00000F022FA39E0244B234A126802210A432B
:102AC0001A60224B214A126802210A431A602CE044
:102AD0001B4B1B689B69002B0CD11B4B1A4A1268BD
:102AE00002210A431A60194B184A126802210A434C
:102AF0001A601AE0FB680C2B00D90C23FB60104B0A
:102B00001B689B69FA681100180000F0F5F90CE0E9
:102B10000D4B0D4A126802210A431A600B4B0B4AF7
:102B2000126802210A431A60C046C046BD4604B07E
:102B300080BDC046880100205C01002048420000A2
:102B4000780A00204C0000200C0506401C050640B9
:102B500090B585B000AFD34B00221A60D24B002253
:102B60001A60D24B1B785BB2002B00DBC7E0CF4B67
:102B70005B78062B20D002DC002B3CD0B1E0082B88
:102B800002D00A2B1FD0ACE0C94B1B68C94A94463F
:102B900063441A00C84B1B68DBB21370C74BC74AAB
:102BA000126880210A431A60C54B01221A60002175
:102BB000002000F071FA71E1FFF7AAFE0021002069
:102BC00000F06AFA6AE1BA4B1B68BA4A9446634459
:102BD0001A00BC4B1B68DBB21370B84BB74A1268C3
:102BE00080210A431A60B64B01221A60002100209E
:102BF00000F052FA52E1AD4B1B78802B36D10F23F7
:102C0000FB1800221A70B04B1B685B6807331B78F7
:102C10001A004023134007D00F23FB180F22BA18C5
:102C2000127801210A431A70A74B1B685B680733AF
:102C30001B781A00202313400DD0A44B1B78DBB265
:102C40005B005AB20F23FB181B785BB213435AB2D6
:102C50000F23FB181A70964B1B68964A94466344E0
:102C60001A000F23FB181B78137025E08F4B1B787D
:102C7000812B07D18E4B1B688E4A944663440022F9
:102C80001A7019E0894B1B78822B15D1874B1A7962
:102C9000FB1D0F210A401A70854B1B68854A94461C
:102CA00063441C00FB1D1B781800FFF74FFD030059
:102CB0005A1E9341DBB223707D4B1B68844A9446B5
:102CC000634400221A707D4B7C4A126880210A43BB
:102CD0001A607B4B02221A600021002000F0DCF910
:102CE000DCE07C4B7B4A126802210A431A607A4B73
:102CF000794A126802210A431A60C046CEE06B4B43
:102D00005B780B2B00D9BCE09A00744BD3181B687E
:102D10009F46664B9B78002B49D1644B1B791A0068
:102D20000F2313403B600023BB603CE06C49BA6852
:102D3000A123DB0012018A18D3181B680F221A4046
:102D40003B689A422CD10122BB689A4013001A00BA
:102D5000644B1B68134023D161486149BB68624AD8
:102D60001B01CB189B181B68022293431A00BB68F7
:102D70005D491B01C3185B181A6059485849BA6865
:102D8000A123DB0012018A18D3181B688022934309
:102D90001A00B968A123DB0009014118CB181A6099
:102DA000BB680133BB60BB68072BBFD906E03F4B54
:102DB0009B78012B02D1454B00221A703F4B3F4AB2
:102DC000126880210A431A603D4B00221A6065E0B8
:102DD000364B9B781A00454B1A60384B374A1268BD
:102DE00080210A431A60364B00221A6056E02F4BAE
:102DF0009B781A00304B1A603D4B1B68002B02D0A9
:102E00003B4B1B6898472D4B2C4A126880210A4384
:102E10001A602B4B00221A6040E0244B9B78002B59
:102E200008D1224B1B790F221340DBB21800FFF7A9
:102E300057FC06E01D4B9B78012B02D1234B01224E
:102E40001A701E4B1D4A126880210A431A601C4BDF
:102E500000221A6022E0154B9B781A00194B1A6069
:102E6000244B1B68002B02D0224B1B689847134B46
:102E7000124A126880210A431A60114B00221A601C
:102E80000CE0144B134A126802210A431A60124BD9
:102E9000114A126802210A431A60C046C046BD4664
:102EA00005B090BD680100206C0100205C0100208D
:102EB000000506400001064080010020080506408C
:102EC0000405064084010020780A002064010020E7
:102ED000010106400C0506401C050640D4420000D6
:102EE00000000640A00100200C0500007C0100202D
:102EF0009C0100209801002080B582B000AF78606E
:102F00003960224B1B683A689A4221D91F4B1B68D3
:102F10007A68D2181E4B1A601C4B1B683A68D21A8A
:102F20001C4B1A601C4B1C4A126880210A431A6011
:102F30001A4B1B681A4A9818144B1B681A007B68B6
:102F40001900FFF7B5FB174A104B1B68136018E018
:102F50000F4B00221A600F4B00221A600E4B0E4AD4
:102F6000126880210A431A600C4B1B680C4A944675
:102F700063443A6879681800FFF79AFB094B3A688E
:102F80001A60C046BD4602B080BDC0464C0000205D
:102F9000680100206C01002008050640000506407D
:102FA000000106400405064080B500AF304B1B68A9
:102FB000002B39D02E4B1A682E4B1B689A421DD914
:102FC0002D4B1B682D4A98182D4B1968294B1B68EF
:102FD0001A00FFF76DFB2B4A264B1B681360254B2D
:102FE0001A68274B1B689A18254B1A60214B1A68E0
:102FF0001F4B1B689A1A1E4B1A6036E01E4B1B684B
:103000001E4A98181E4B1968194B1B681A00FFF7C7
:103010004FFB1C4A164B1B681360194B00221A60A9
:10302000134B00221A6020E0174B1B78002B11D1A4
:10303000154B5B78052B0DD1144B9A68144B1B680C
:103040009A4207D0114B9B68002B03D10F4A104BBB
:103050001B6893600F4B1B78DBB2002B05D0094B2C
:1030600000221A600B4B00221A70C046BD4680BD7C
:103070006C0100204C0000200005064000010640C5
:1030800068010020040506405C01002000000640A5
:103090007C0100208801002080B582B000AF7860FC
:1030A0003960084B7A681A60074B00221A60074B98
:1030B0003A681A60064A074B1B681360C046BD4653
:1030C00002B080BD70010020740100207801002052
:1030D000140506404C00002080B582B000AF224BA2
:1030E000DA68E0239B011A40204B1B689A4233D0D8
:1030F0001D4BDA68E0239B011A401C4B1A601C4BE5
:103100001A681C4B1B689A422AD21B4B1B687B60B7
:103110001A4B1B681A4A944663443B60194B1B6860
:1031200039687A681800FFF7C3FA164B1A687B688B
:10313000D218144B1A600E4B1A687B68D2180C4BCD
:103140001A600B4B1A680B4B1B689A4208D20A4A4A
:103150000D4B1B68136003E0074A0B4B1B681360A1
:10316000C046BD4602B080BD000006408C01002074
:103170007401002078010020140506401005064067
:1031800000010640700100204C00002080B582B094
:1031900000AF1D4B00221A601C4B00221A601C4B12
:1031A00000221A601B4B00221A601B4B00221A607F
:1031B0001A4B00221A601A4B08220021180000F056
:1031C000C8F900237B6015E0164816497A68A123E8
:1031D000DB0012018A18D3181B68802293431A005F
:1031E0007968A123DB0009014118CB181A607B68BC
:1031F00001337B607B68072BE6DD0A4B00229A6077
:10320000C046BD4602B080BD680100206C010020B0
:10321000700100207401002078010020A00100202E
:103220005C010020000006400B490C4A0C4B9B1A25
:1032300003DD043BC858D050FBDC0A48592101602B
:10324000162101608821016007480849016005488E
:1032500000210160FCF764FFCC4300000000002067
:10326000CC0000200001005024000050A55A0000AE
:10327000FEE7C04680B588B000AF0023BB613B1DB0
:10328000214A12681A60214B1B6A7B617A69A0236C
:10329000DB02134001D0002331E07A6988231B044C
:1032A000134002D01A4BFB6101E01A4BFB617A69B3
:1032B00080239B02134001D0FB6920E07B699B0BBC
:1032C000032213403A1DD35C3B617B69DB05DB0DB8
:1032D0000233FB607B695B0A1F2213400233BB6031
:1032E000FB699B08FA685A431000BB683A6953436C
:1032F000190000F05FF803009B00BB61BB69180078
:10330000BD4608B080BDC046044300000002005026
:1033100000366E01001BB70080B584B000AF1E4BB5
:103320001B6907221340BB60FFF7A4FF02001B4B81
:103330001A60BB68022B02D0052B04D008E0174BA3
:103340001B68FB6009E0154B1B685B08FB6004E031
:10335000134BBA689200D358FB600F4B9B690F2246
:10336000134001337B607968F86800F023F80300AC
:103370001A000C4B1A600B4B1B680B4A94466344B3
:103380000A49180000F016F803001A00084B1A60EA
:10339000C046BD4604B080BD000200505800002069
:1033A000084300005000002020A1070040420F0009
:1033B00054000020002243088B4274D303098B423F
:1033C0005FD3030A8B4244D3030B8B4228D3030CF5
:1033D0008B420DD3FF22090212BA030C8B4202D397
:1033E0001212090265D0030B8B4219D300E0090ABF
:1033F000C30B8B4201D3CB03C01A5241830B8B42C8
:1034000001D38B03C01A5241430B8B4201D34B03B0
:10341000C01A5241030B8B4201D30B03C01A524115
:10342000C30A8B4201D3CB02C01A5241830A8B429A
:1034300001D38B02C01A5241430A8B4201D34B0283
:10344000C01A5241030A8B4201D30B02C01A5241E7
:10345000CDD2C3098B4201D3CB01C01A524183099B
:103460008B4201D38B01C01A524143098B4201D3D5
:103470004B01C01A524103098B4201D30B01C01A00
:103480005241C3088B4201D3CB00C01A524183087A
:103490008B4201D38B00C01A524143088B4201D3A7
:1034A0004B00C01A5241411A00D201465241104607
:1034B0007047FFE701B5002000F006F802BDC046E6
:1034C0000029F7D076E770477047C046084B10B523
:1034D0000400002B02D0002100E000BF054B18685B
:1034E000836A002B00D09847200000F069FCC0469A
:1034F000000000002843000070B500260C4D0D4C64
:10350000641BA410A64209D1002600F05BFC0A4D02
:103510000A4C641BA410A64205D170BDB300EB5841
:1035200098470136EEE7B300EB5898470136F2E7CB
:10353000C0000020C0000020C0000020C400002007
:10354000002310B59A4200D110BDCC5CC4540133A5
:10355000F8E703008218934200D1704719700133D5
:10356000F9E700000EB410B59DB002A90290086101
:103570000B48822488604861012040421FABC8810B
:10358000084804CBA400006801938C8100F01EF968
:103590000023029A13701DB010BC08BC03B018477A
:1035A000FFFFFF7F5C0000200023C25C0133002A84
:1035B000FBD1581E7047000070B50500002910D0DF
:1035C0000C1F2368002B00DAE418280000F0B9FB78
:1035D0001D4A1368002B05D163601460280000F0B9
:1035E000B1FB70BDA34209D9216860188342F3D1B1
:1035F00018685B6841182160EEE713005A68002ADA
:1036000001D0A242F9D919685818A0420BD12068FC
:103610000918581819608242E0D1106852684118A0
:1036200019605A60DAE7A04202D90C232B60D5E773
:1036300021686018824203D11068526841182160E5
:1036400062605C60CAE7C046A4010020032370B535
:10365000CD1C9D43083506000C2D1ED20C25A94219
:103660001DD8300000F06DFB254A146821000029A8
:1036700019D1244C2368002B03D1300000F032FB19
:1036800020602900300000F02DFB431C2CD10C23BE
:103690003000336000F056FB03E0002DDFDA0C232E
:1036A0003360002070BD0B685B1B1AD40B2B03D951
:1036B0000B60CC18256003E08C420ED16368136068
:1036C000300000F03FFB200007220B30231D904309
:1036D000C31AE7D05A42E250E4E74B6863600C003B
:1036E000EEE70C004968C2E70323C41C9C43A042D8
:1036F000E0D0211A300000F0F5FA431CDAD1C6E719
:10370000A4010020A8010020F0B58E6885B0070054
:103710000C00039201939E4239D890238A89DB00E2
:103720001A4234D00325096923685B1A029363693E
:1037300002985D43EB0F5D19019B6D1001331B185F
:10374000AB4200D91D00530532D529003800FFF7E0
:103750007DFF061E09D10C233B6040230120A28976
:1037600040421343A38105B0F0BD029A2169FFF7DF
:10377000E7FEA389144A1A4080231343A381029BC6
:103780002661F61826606561019EED1AA560019B11
:10379000B34200D21E0032000399206800F0BFFA45
:1037A000A36800209B1BA36023689E192660DAE7AC
:1037B0002A00380000F0C7FA061EE0D1216938005F
:1037C000FFF7FAFEC7E7C0467FFBFFFFF0B59FB0EB
:1037D000029005938B890F0016001B0611D50B690B
:1037E000002B0ED14021FFF731FF386038610028EF
:1037F00005D10C23029A013813601FB0F0BD40239D
:103800007B61002306AD6B6120336B761033AB76A2
:1038100034002378002B47D1A31B04930DD0A31BA6
:10382000320039000298FFF76FFF431C00D1B5E06A
:103830006A69049B944663446B612378002B00D132
:10384000ACE00122002352426A6002A954325218AD
:1038500001342B60EB60AB601370AB65584E0522F2
:103860002178300000F050FA621C002820D129682D
:10387000CB0604D5532302AE20309B1918700B07DA
:1038800004D553232B2002AE9B19187023782A2BC2
:1038900016D000200A21099B2278303A092A55D9EE
:1038A000002815D0099313E0252BB5D00134B0E7DB
:1038B0000123801B8340296814000B432B60CDE754
:1038C000059B181D1B680590002B39DB099314001C
:1038D00023782E2B0BD16378621C2A2B3ED1059BBB
:1038E00002341A1D1B680592002B34DB0793354EFA
:1038F00021780322300000F007FA002806D0402388
:10390000801B83402A68013413432B6021780622F0
:103910002D48661C297600F0F7F9002846D02B4B7D
:10392000002B2FD12968059B0722C90528D59B1894
:103930009343083305936B69039A9B186B6167E7A0
:103940005B42EB6002230B432B60C0E74B43013427
:103950009B180120A0E701235B42C7E70023140066
:103960000A201A006B6021783039092903D9002B0D
:10397000BDD00792BBE74243013452180123F2E75E
:103980000733D5E705AB00933A00114B29000298A5
:1039900000E000BF0390039B0133CCD1BB890B989F
:1039A0005B0600D429E70120404226E705AB0093DF
:1039B0003A00074B2900029800F07AF8EAE7C0467F
:1039C0008C4300009243000096430000000000007A
:1039D00009370000F7B5150001938A680B6900905C
:1039E0000C00934200DA130022002B60433212785D
:1039F000002A01D001332B6023689B0602D52B6877
:103A000002332B60062723681F4027D0230043334F
:103A10001B785A1E93412268920630D422000199E5
:103A200043320098089EB047431C25D006232068E7
:103A30002A68E16803400025042B03D18D1AEB436B
:103A4000DB171D40A3682269934201DD9B1AED1824
:103A50000027BD4220D1002010E00137E3682A682A
:103A60009B1A9F42D2DA2200012319320199009851
:103A7000089EB047431CF0D101204042FEBD3020DB
:103A8000E1184331087021005A1C45310978A21809
:103A9000433202331170C1E7220001231A32019927
:103AA0000098089EB047431CE6D00137D1E70000DC
:103AB000F0B58BB006920A0043320793059004924A
:103AC0000A7E0C00109B6E2A00D18FE017D8632A63
:103AD0002CD008D8002A00D199E0582A54D02600CA
:103AE0004236327029E0642A01D0692AF7D1216870
:103AF0001A68080623D5111D1960156825E0732A78
:103B000000D188E008D86F2A29D0702AE7D1202276
:103B100009680A43226003E0752A20D0782ADED1A2
:103B200022007821453211706C4A30E00E001A688C
:103B30004236111D196013683370012379E049067C
:103B4000D9D5111D19600023D55E002D03DA2D2370
:103B5000049A6D421370624B0A2703932FE020688A
:103B60001968050603D5081D18600D6805E04006B4
:103B7000F9D50D68081D1860ADB2594B082703939D
:103B80006F2A18D00A2716E045310A70544A03926A
:103B90001A682168101D18601568080622D5CB0721
:103BA00002D52023194321601027002D03D12023A3
:103BB00022689A4322602300002243331A7063680C
:103BC000A360002B5CDB0422216891432160002D5F
:103BD00058D1049E002B64D02600039B42361B78EC
:103BE00033705EE04806DAD5ADB2D8E709681A68E6
:103BF000080605D5111D1960136862691A6006E090
:103C00004906F7D5111D19601368A28A1A8000238E
:103C1000049E236154E01A68111D19601668002182
:103C20006268300000F070F8002801D0801B6060EE
:103C3000636823610023049A137041E02369320012
:103C400006990598079DA847431C43D02368002583
:103C50009B070FD4099BE06898423DDA18003BE0CF
:103C600022000123193206990598079EB047431C8C
:103C700030D00135E368099A9B1A9D42F0DBE9E7F1
:103C8000002DA9D0049E28003900FFF719FC039BE2
:103C9000013E5B5C280033703900FFF78BFB051E8B
:103CA000F1D1082F09D12368DB0706D563682269A3
:103CB000934202DC3023013E3370049B9B1B236143
:103CC000079B09AA00932100069B0598FFF782FE37
:103CD000431CB3D1012040420BB0F0BDAE43000005
:103CE0009D430000002370B5064C050008002360CA
:103CF00000F058F8431C03D12368002B00D02B6040
:103D000070BDC0467C0A0020C9B28218904201D121
:103D10000020704703788B42FBD00130F6E710B5E6
:103D2000884202D98B18984208D300239A4207D0C0
:103D3000CC5CC4540133F9E78B5C8354013AFBD269
:103D400010BD70477047F8B507000D001600002938
:103D500005D11100FFF77AFC04002000F8BD002A0D
:103D600003D1FFF729FC3400F7E700F012F82C002C
:103D70008642F2D931003800FFF768FC041EECD00F
:103D800029003200FFF7DCFB29003800FFF714FCA4
:103D9000E3E70B1F1B68181F002B01DA0B58C01834
:103DA00070470000044A1368002B03D018181060F5
:103DB00018007047014BF9E7AC010020800A002091
:103DC000FEE7C046F8B5C046F8BC08BC9E46704742
:103DD000F8B5C046F8BC08BC9E46704722030000F8
:103DE000660300006603000066030000660300002F
:103DF000660300006603000066030000660300001F
:103E0000660300006603000066030000660300000E
:103E1000660300006603000066030000380300002C
:103E200066030000660300006603000066030000EE
:103E30006603000066030000660300004203000002
:103E400066030000660300006603000066030000CE
:103E500066030000660300006603000054030000D0
:103E600066030000660300006603000066030000AE
:103E700066030000660300006603000042030000C2
:103E800064040000C8040000C8040000C804000066
:103E9000C8040000C8040000C8040000C8040000F2
:103EA000C8040000C8040000C8040000C8040000E2
:103EB000C8040000C8040000C8040000C8040000D2
:103EC0007C040000C8040000C8040000C80400000E
:103ED000C8040000C8040000C8040000C8040000B2
:103EE00088040000C8040000C8040000C8040000E2
:103EF000C8040000C8040000C8040000C804000092
:103F00009A040000C8040000C8040000C8040000AF
:103F1000C8040000C8040000C8040000C804000071
:103F20008804000030070000FC070000FC070000C8
:103F3000FC070000FC070000FC070000FC07000075
:103F4000FC07000070070000FC070000FC070000F1
:103F5000FC070000FC070000FC070000FC07000055
:103F6000FC07000048070000FC070000FC070000F9
:103F7000FC070000FC070000FC070000FC07000035
:103F8000FC07000054070000FC070000FC070000CD
:103F9000FC070000FC070000FC070000FC07000015
:103FA000FC07000066070000FC070000FC0700009B
:103FB000FC070000FC070000FC070000FC070000F5
:103FC000FC07000054070000FC070000FC0700008D
:103FD000FC070000FC070000FC070000FC070000D5
:103FE000FC070000FC070000FC070000FC070000C5
:103FF000FC070000FC070000FC070000FC070000B5
:10400000FC0700008C070000FC070000FC07000014
:10401000FC070000FC070000FC070000FC07000094
:10402000FC07000096070000FC070000FC070000EA
:10403000FC070000FC070000FC070000FC07000074
:10404000FC070000A8070000FC070000FC070000B8
:10405000FC070000FC070000FC070000FC07000054
:10406000FC070000D8070000001BB700008000001C
:104070000000000000000000000000001027000009
:104080000000000000366E01120110010200004025
:10409000160402B0000301020301000009024300FC
:1040A000020100C0320904000001020201000524DF
:1040B000001001052401000104240200052406006B
:1040C000010705830308000109040100020A00003A
:1040D00000070581024000000705020240000000C1
:1040E0000403090410034E00750076006F0074008D
:1040F0006F006E0020035500530042002000560060
:10410000690072007400750061006C0020004300BB
:104110004F004D001A0341003000320030003100E2
:10412000340030003900300033003000350000002A
:10413000884000009C4000000000002000000000BB
:10414000000000000000000000000000493243466B
:1041500061696C004272644E45786920000000007D
:104160004261744E45786920000000004368726720
:10417000457272200000000043687267507263202D
:104180000000000043687267446F6E20000000006A
:104190000000000025376420000000002523375868
:1041A000200000004E554D42455220203A2020204C
:1041B00020202020302020202020202031202020DE
:1041C00020202020322020202020202033202020CA
:1041D0002020202034202020202020203500000016
:1041E00053544154452020203A200000564F4C544F
:1041F000414745203A20000043555252454E542035
:104200003A20000054454D50202020203A20000044
:1042100043415041434954593A20000053544154BA
:10422000555320203A200000010202040000000043
:10423000040000000C00000024000000000000004A
:10424000040000002C000000102B00004C2900008E
:10425000682900004C2A0000102B0000102B0000E1
:10426000102B0000102B0000102B0000102B000062
:10427000102B0000102B0000102B0000102B000052
:10428000102B0000D02A0000102B0000102B000083
:10429000102B0000102B0000102B0000102B000032
:1042A000102B0000102B0000102B0000102B000022
:1042B000102B0000102B0000102B0000102B000012
:1042C000102B0000102B0000102B0000BE29000056
:1042D000F0290000822E0000122D0000822E000026
:1042E0001A2E0000822E0000D02D0000822E000029
:1042F000822E0000822E0000EE2D0000822E000093
:10430000562E000001020204001BB70000800000CE
:1043100000D8B80510270000006CDC02006CDC023D
:104320000000000000366E01600000200000000068
:10433000000000000000000000000000000000007D
:10434000000000000000000000000000000000006D
:10435000000000000000000000000000000000005D
:10436000000000000000000000000000000000004D
:10437000000000000000000000000000000000003D
:10438000000000000000000000000000232D302B82
:104390002000686C4C006566674546470030313246
:1043A000333435363738394142434445460030319D
:1043B00032333435363738396162636465660000FC
:0443C00000000000F9
:0843C4005CBDFF7F0100000059
:1043CC00E0400000E4400000F44000001441000014
:1043DC0000C2010000000800504200508C42005006
:1043EC0084420050B4420050AC420050A4420050F1
:1043FC00544200508842005080420050B04200505D
:10440C00A8420050A0420050AC0D00000800000073
:10441C0000D8B8056000000000D8B8056000002086
:10442C00000000004C4300006C4300002C430000D3
:10443C000000000000000000000000000000000070
:10444C000000000000000000000000000000000060
:10445C000000000000000000000000000000000050
:10446C000000000000000000000000000000000040
:10447C000000000000000000000000000000000030
:0C448C00E9000000C1000000000000007A
:04000003000032299E
:00000001FF
