:1000000000200020211E0000691E0000451700008E
:1000100000000000000000000000000000000000E0
:10002000000000000000000000000000691E000049
:100030000000000000000000691E0000691E0000B2
:10004000691E0000691E0000691E0000691E000094
:1000500031140000691E0000691E0000691E0000C6
:10006000691E0000691E0000691E0000F1130000F7
:10007000691E000000000000691E00000000000072
:100080000000000000000000691E0000691E000062
:10009000691E0000691E0000691E0000790800004A
:1000A00000000000691E0000691E00000000000042
:1000B000691E0000691E0000691E000000000000AB
:1000C00010B5064C2378002B07D1054B002B02D02E
:1000D000044800E000BF0123237010BDC8000020C9
:1000E00000000000782C0000044B10B5002B03D05A
:1000F0000349044800E000BF10BDC04600000000F6
:10010000CC000020782C0000402292029A1A9246DD
:100110007047C046174B002B00D1134B9D46FFF78D
:10012000F3FF00218B460F461348144A121A01F0C0
:10013000DCFF0E4B002B00D098470D4B002B00D05E
:1001400098470020002104000D000D48002802D02F
:100150000C4800E000BF01F08DFF2000290001F0F5
:100160007DF901F071FFC0460000080000000000AA
:100170000000000000200020C800002058040020DB
:100180000000000000000000F0B500230326012459
:100190009C40214208D035005F00BD400468AC435C
:1001A0001500BD402C4304600133102BEFD1F0BD8E
:1001B000130E8B401202120A8A4010B58469234341
:1001C0008361C3691A43C26110BD000070B50A267D
:1001D000050030000A4B89001C68604301F0A8FE4E
:1001E0003100053001F0A4FE431E2B6140232A6834
:1001F000810013432B60200001F09AFE70BDC046C1
:1002000058000020F0B585B0039200222D4B046801
:100210001A602823234303602B4B15001B680092B0
:100220001B0902934B00019308239C4611000132E5
:10023000029B66460468344211D00024C368202B18
:100240001AD015D8082B19D0182B1CD03C23654682
:1002500004689C43243B23430360140011E0013BEA
:10026000002BE6D101235B42110014000093E5E767
:10027000282B0BD0302BE9D11825EEE76546019BE2
:100280008360130004E0039B8360FAE718250023D2
:100290003C270668BE432E430660002B08D1002988
:1002A00002D0084A009911602343D8B205B0F0BDCE
:1002B000002CBDD0002902D0024B009A1A60230006
:1002C000F2E7C046E400002058000020F0B504002A
:1002D000002085B00393294B0292186028232268DE
:1002E000050013433C222360254B94461B681B09E1
:1002F00001934B0000930123019A082621683142A3
:1003000006D1013A002AF8D101211C4A4942116064
:10031000E268202A11D00CD8082A10D0182A1ED042
:10032000624621680825914318220A4322601A0078
:1003300009E0282A16D0302AF2D11825F7E7082537
:10034000009AA2600022190067462668BE432E4329
:100350002660002901D0002ACED005B0F0BD029A57
:10036000A260EFE70A9A824204D9039A125C013034
:10037000A260E7E7002218251100E5E7E40000206D
:1003800058000020F0B50400002085B00393294BED
:10039000019218609C462823226849001343236079
:1003A000012319430291244A126812090825216881
:1003B000294205D1013A002AF8D16146013A0A6082
:1003C000E268482A34D00DD8082A21D0402A2DD0FE
:1003D0003C22082521689143243A0A4322601A00EE
:1003E00019000AE0502A18D0582AF1D1A2680199C0
:1003F00018250A540022110001303C272668BE430C
:1004000035432560002901D0002ACCD005B0F0BDCD
:10041000029AA26008250022E2E7A168019D421C21
:1004200029540399100001399142F3D90C25F2E7C0
:100430001825D4E7E400002058000020F0B504009F
:10044000002085B00193364B039218602823226860
:10045000134323604B0000930123009A01001A43C9
:1004600002923C2294462F4A1268120908262568F7
:10047000354206D1013A002AF8D10125284A6D42B9
:100480001560E268282A48D014D8102A38D00BD832
:10049000082A2DD062462168914318220A43082178
:1004A00022601A001D0018E0182A25D0202AF1D158
:1004B0001821F6E7502A25D006D8402A2BD0482A02
:1004C000F6D0302AF4D0E5E7582AE3D1A2680199A2
:1004D0000A54002218211500013066462768B743E8
:1004E0000F432760002D01D0002ABCD005B0F0BD1D
:1004F000009AA260082101E0039AA2600022D1E7DD
:10050000029AF6E7A168019D421C29540A9910003D
:1005100001399142EED90C21F0E71100EEE7C04617
:10052000E40000205800002070B588B069461A4BDE
:10053000040061CB61C161CB61C121CB21C1174BEB
:100540006A469C4209D1164B5B695B055B0F022B27
:100550001ED101F03DF808B070BD124B9C4203D192
:100560000F4B5B695B04F1E70F4B9C4208D10C4BCE
:100570005B695B035B0F022B0AD101F039F8EAE7F4
:100580000A4B00209C42E6D1054B5B695B02F1E718
:100590009B00D058DFE7C046282A00000000014039
:1005A00000020050200001400000114020001140D6
:1005B000F8B506000F001400FFF7B6FF050043086A
:1005C000A34210D3210001F0B3FC040E02D0611C41
:1005D00001F0AEFC2743611C376041437060280086
:1005E00001F0A6FCF8BD00240220F3E7F8B50600F0
:1005F0000C00FFF799FF002305003E48336073614C
:1006000085422FD8844200D90400FA208000844219
:1006100000D2040044432900374801F089FC01005E
:10062000200001F085FC00278023DB053B43706040
:100630003360324B29001C68200001F079FC451C16
:10064000002D46D13000FFF76FFF0100200001F0C0
:100650006FFC802101374743F36889043068084004
:100660003AD1F8BD84420DD90400254B9D420DD9E5
:100670000727ED08F92C16D8200068431D4901F022
:1006800057FCD1E7642CF0D26424EEE71D4B9D4269
:1006900002D9AD080327EDE71B4B00279D42E9D99E
:1006A0006D080137E6E71349280001F0C7FC00296F
:1006B00005D11049280001F03BFC6043B4E7FA2063
:1006C0008000444329000C4801F032FC0100200066
:1006D000D5E7C046013DB3E7F268934205D16A1CF5
:1006E000BD4204D901204042BBE70022F368150057
:1006F000B4E7C04640420F0000CA9A3B58000020B1
:100700000090D0030048E8010024F40000230F21EA
:10071000084A9A1812680A40824206D1064A9B1873
:10072000022219680A431A6070471033802BEFD1F8
:10073000FAE7C046080506400C05064080222A4B11
:10074000520170B5DA67BFF34F8FBFF36F8F00238D
:10075000264A274C1380274A274D1380274A1380A7
:10076000274A1380274A1380274A13800633A36041
:100770002E68264B7008C018310001F0D9FB244BBD
:100780000238984225D9234B3100F018C00001F0FF
:10079000CFFB00090238002360626A799A4204D0D4
:1007A000012A1AD0022A00D11833AA79072A16D0B2
:1007B000082A16D0062A01D1053A13432A79002ABD
:1007C00001D0042213438022E360134B52011A60CC
:1007D00070BDC0239B051843DDE70823E5E702222F
:1007E000EBE70322E9E7C04604E100E0D403002080
:1007F00000000540D603002044000020D80300205C
:10080000DA030020DC030020DE03002000366E0146
:10081000FFFF0000C0C62D0000E100E0E0200E4B0D
:100820000E4930B5DA680D68000302400C4CAA424C
:1008300002D14023236030BD24680A4A14600A4A6A
:100840000A4C1268DB681219094C0340226001222D
:100850000B60084B1A70EEE700000640E80000202D
:1008600034050640E4030020300506400001064040
:10087000D0030020CF030020042370B53E4C6568F0
:1008800026691D4208D063606369DB0700D46FE00E
:10089000902322691343236101231D4217D0636013
:1008A0001E4208D022698F331343236101F084FA7A
:1008B0000022324B1A60B30703D5102223699343F9
:1008C0002361730703D5902322691343236108230F
:1008D0001D4200D06360AB0749D5002D0DDA80239F
:1008E0001B066360012326490A681A430A60254AE9
:1008F00011680B43136001F0DBF980235B021D429A
:1009000002D0636001F048F880239B021D420BD0A7
:10091000636001F009FA1C4B5A78202A04D11B7934
:10092000002B01D1FFF70AFF8023DB021D4203D019
:1009300000226360154B1A6080231B031D4202D006
:100940006360FFF76BFF80235B031D4200D0636091
:1009500080239B031D4200D063608023DB031D4284
:1009600000D0636080231B041D4200D0636070BD13
:100970008022236993438EE700000640E8000020B0
:100980000C0506401C050640F8030020E803002083
:100990000022124B88219A619022114B92001A601A
:1009A0000823104A890013600F4A11600F4A136030
:1009B00041220F4B1A600F4B07321A600E4B263A3A
:1009C0001A600E4B66321A600D4B483A1A600D4B96
:1009D00003321A600C4B85321A60704700000640E3
:1009E00008050640000506401805064010050640AB
:1009F000280506402005064038050640300506401B
:100A000034050640480506404005064037B56846AF
:100A100000F0F4FE6B461A785B787F2A22D9212BEE
:100A200042D16B461B79002B0CD08023224A1168DF
:100A30000B43136000210722204B08001A6001F0CD
:100A400007F837BD1E4B1F4C1A681F4BD0181F4BA1
:100A5000D3188342E9D01E4D991A4919615C197067
:100A60000133F6E7DBB2202B15D0222B1CD16B46CD
:100A70001B79002B06D16B46DA789B781202134360
:100A8000144A138080230C4A11680B431360002220
:100A90000A4B1A60D5E76B461B79002BF2D1072170
:100AA000084800F0D5FFEDE70020FFF72FFE0120FA
:100AB000FFF72CFEC5E7C0460805064004050640C2
:100AC00000050640440000200701064000010640E2
:100AD00000FFF9BFE003002070B5042000F0C8FD5E
:100AE000102000F0E9FD0021042000F005FE0022A6
:100AF000194E1100300000F08BFDE021174C002250
:100B00002000C90200F084FDE021154D0022C90338
:100B1000280000F07DFD300000F0B6FD280000F058
:100B2000B3FD104800F0B0FD200000F0ADFD01F075
:100B30009DF9A023DB055A6B0B490A405A638822B2
:100B4000596B52010A435A63C023084A1B01516A78
:100B50000B43536270BDC0469B3C80720400005F33
:100B60000500405F09000040FF00FFFF004000500B
:100B7000F0B5224E3368002B23D1214803889AB266
:100B8000002B34D0028893B2402A00DD402300219C
:100B90008C461C4A1C4C8B4214D1012181F31088D5
:100BA0000188C91A89B20180002181F31088174990
:100BB0003360174809680918C818814212D1154ACC
:100BC0001360F0BD80272588BF00BD4201D3654674
:100BD000258027887D1CADB225800F4DED5D8D549D
:100BE0000131D8E7147801320C700131E5E7094B87
:100BF00019684029E5D11A60E3E7C046E803002000
:100C0000D40300208F030020D603002020050640D7
:100C100000010640240506408F010020F8B50500BC
:100C200000240F4F0F4E280001F090FAA04200D888
:100C3000F8BD80203B88800083420FD2328829573C
:100C4000531C9BB23380084B99543388834201D3A1
:100C5000002333803B8801339BB23B800134E2E7C1
:100C6000D4030020D80300208F01002070B5012498
:100C700084400025E4B2220070210D48FFF7C2FA3B
:100C8000002800D170BD14210A48FFF7AFFC0023F3
:100C9000094E142133600748FFF7A8FC0123ED1823
:100CA000EDB23360142DE6D90448FFF7B7FFE2E751
:100CB0000000124000001140CC420050072B000001
:100CC000F0B5194B85B01B7804270193174B02250B
:100CD0001B780293164B1B789C46164B1E78164BBE
:100CE0001B7803930023624631001A411941920098
:100CF00049003A4029401143039A01201A41024019
:100D00008918019A0F301A411201024002980824F2
:100D10001841C00020401043084A09189954013373
:100D2000062BE0D105B0F0BD060100200501002032
:100D30000801002009010020070100200C0100200B
:100D4000F0B5334B85B00193324B0124039300235C
:100D5000314F324E324D0293324B029AD35C0F2BFD
:100D60002BD8019B019A1B780133DBB21370039AD5
:100D70001278032A01D0022B08D12A681368634035
:100D800013600023019A1370039A13703B6826497D
:100D90001C60300001F0D2F9029B0437013302934A
:100DA000019B063601330193039B04350133039302
:100DB000029B062BD0D105B0F0BD1A00103A072ACD
:100DC00005D83B6819491C602B681C60E1E71A00D4
:100DD000183A032A07D83B682A681C60136814492C
:100DE00063401360D5E7022293431C2B06D10022F7
:100DF0003B6810491C602B681A60CAE71D2BCBD1D9
:100E000000223B680C491A602B681C60C1E7C04691
:100E1000360100208801002010000020120100206F
:100E2000280000200C010020152B00001C2B0000C6
:100E3000232B00002A2B0000312B000013B50C4C93
:100E40000A0001002000FFF7DDF914210948FFF72F
:100E5000CDFB01AA02230B212000FFF793FA6B467A
:100E60006A465B7910791B02C01880B216BDC04675
:100E70000000124000001140F0B500257F4B89B002
:100E800002937F4B7F4F00937F4B04937F4B0193E3
:100E90007F4B03937F4B06937F4B05932800FFF70F
:100EA000E5FE7E4B01221B782B41134256D07C4B32
:100EB0001B782B41134251D07A4B11001B782B41E8
:100EC00019400791134249D101240A0076480B21A9
:100ED000FFF798F9AC40060064B2002866D11621ED
:100EE0000B20FFF7ABFFE02302001B021A40092191
:100EF0000792184200D176E00B20FFF79FFF029B7C
:100F00000A2118800B20FFF799FF009B0821188009
:100F10000B20FFF793FF049B162118800B20FFF78F
:100F20008DFF059B0D211880019B3E801E800B20AC
:100F3000FFF784FF039B5D4E188033781621A3438F
:100F40000B203370FFF77AFF030413D53378584A28
:100F50002343337013781C4314700BE00023029A70
:100F60003B801380009A1380049A1380019A1380A7
:100F7000039A1380029B013502330293009B0237D0
:100F800002330093049B02330493019B02330193C9
:100F9000039B02330393069B01330693059B0233A5
:100FA0000593062D00D079E709B0F0BD414B029AB8
:100FB00000991380FA2252000A80019A1380FA23C2
:100FC0009B00079A3B80039B1A80384A137823437F
:100FD0001370394A13781C43069B14701B78069AC9
:100FE00001331370C6E70B20FFF728FF029B0A218D
:100FF00018800B20FFF722FF009B082118800B2090
:10100000FFF71CFF049B162118800B20FFF716FF2B
:10101000059B152118800B20FFF710FF019B142161
:1010200018800B20FFF70AFF0D2138800B20FFF7F7
:1010300005FF1E4A039B1880137823431370059BFA
:101040001B4A19888B0608D5137823431370079B16
:101050003B804B0609D4184A7CE70023D3564E0642
:1010600007D55A2805D923431370134A1378A3438D
:10107000B7E70F4AA3431370EBE7C0466A010020AD
:1010800052010020EC0000205E010020F80000204A
:101090007601002082010020460100200601002088
:1010A000050100200401002000001240080100207A
:1010B00007010020D84000000901002070B5104C45
:1010C0000223220021210F48FFF75CF900200E4A7D
:1010D0002378127801241A400C4B0D4D1A7003002E
:1010E000297816001E41264203D1200098408143F2
:1010F00020000133062BF4D1002800D0297070BDE8
:1011000040010020000012400601002005010020DF
:1011100004010020F0B50024022685B0200003ADB4
:10112000FFF7A4FD2B00FF22092118480096FFF7C6
:1011300085F92B78302B22D16B78002B1FD101330E
:10114000A340134A114811780B43137009213F2221
:10115000104B0096FFF7BAF80F4F12223B000921FF
:101160000A480096FFF76AF960227B7809219343C9
:101170007B7006483B0000964E3AFFF7A7F8002325
:1011800001342B80062CC9D105B0F0BD00001240FF
:1011900006010020400000200A0100200C4B400006
:1011A000C35A10B50F221C009443220009495B0466
:1011B00060325B0E0A704B700749435A5A0842521C
:1011C0003F2006499B048243DB0E0A704B7010BD22
:1011D000F80000203E010020EC0000203C0100202F
:1011E000F7B500241D4B01221B782341134231D057
:1011F0002000FFF73BFD2000FFF7D0FF184D194FEF
:1012000002222900380000F059FF00280CD00226E5
:1012100029003200380000F05FFF2B001522092161
:1012200011480096FFF752F8104D114F0222290085
:10123000380000F043FF00280CD0022629003200BD
:10124000380000F049FF2B001422092106480096BF
:10125000FFF73CF80134062CC4D1F7BD060100208D
:101260003E01002044010020000012403C0100200B
:1012700042010020F7B5020010496846802400F0C2
:101280003DFF00220E480F490F4DA4000388A342E2
:101290000FD26B460E889F56731C9BB20B800B8837
:1012A000AF55A34201D300230B80038801339BB2C7
:1012B00003800132062AE9D1F7BDC046382B000071
:1012C000D4030020D80300208F01002080200F4A83
:1012D00030B513888000834216D20D4B0D4D1C880B
:1012E000611C89B219800D2129551C88611C89B2A5
:1012F00019800A2129551988814201D300211980BA
:10130000138801339BB2138030BDC046D403002044
:10131000D80300208F010020802210B50024002176
:101320009200264800F0E1FE254B1C80FFF7CEFF1F
:101330002448FFF773FCFFF7C9FF2348FFF76EFC53
:101340002248FFF76BFCFFF7C1FF2148FFF766FC5F
:10135000204B6200D05A0134FFF78CFF062CF7D1E6
:10136000FFF7B4FF1C48FFF759FC00241B4B620039
:10137000D05A0134FFF77EFF062CF7D1FFF7A6FF06
:101380001748FFF74BFC0024164B6200D05A01347B
:10139000FFF770FF062CF7D1FFF798FF1248FFF711
:1013A0003DFC0024114B6200D05A0134FFF762FF6C
:1013B000062CF7D1FFF78AFF10BDC0468F01002031
:1013C000D80300203D2B00006B2B000012010020F1
:1013D000762B00006A010020812B000052010020C2
:1013E0008C2B00005E010020972B0000760100206E
:1013F00001220D4B10B5996811420FD09A60FFF78A
:101400003BFDFFF7EDFEFFF75BFCFFF799FC074A9A
:1014100013780133DBB2012B01D8137010BD002308
:101420001370FFF779FFF9E7200011408E010020CB
:101430008022084BD201196A10B5114203D01A62FA
:10144000FFF73CFE10BD044A116A11621A6A1A6263
:10145000F8E7C04640400050004000505920162197
:101460008822F8B54B4C6060616062606368002B55
:10147000F9D0FFF731FB00250122474811006560D4
:10148000FEF782FE012202214348FEF77DFE012283
:1014900004214148FEF778FE012208213E48FEF76C
:1014A00073FE802101223C484900FEF76DFE802139
:1014B000012239488900FEF767FE80210122364863
:1014C000C900FEF761FE8021012233480901FEF7C1
:1014D0005BFE8021012230484901FEF755FE802144
:1014E00001222D488901FEF74FFE012210212B48D1
:1014F000FEF74AFE012220212848FEF745FE2A0079
:101500002749284800F034F9FFF742FA00F04EF975
:10151000254B264E1A68264B26491A601A68264B18
:1015200026481A601022264B01275A6080231B048C
:101530003360FEF74BFEFFF7EDFDFFF7BFFD022224
:1015400008212048FEF720FE80211F4C1F4B2A0057
:101550001F6009052000FFF72BF8802322689B05F8
:101560001343236080231B01336080238021226882
:10157000DB05134309482A002360C901FEF704FE76
:101580003A000E210548FEF713FE10223260FFF7E5
:10159000EFFAFCE7FC000050804000504040005053
:1015A0000D0A0000482A00001001005000E100E090
:1015B000EC03002010270000F00300200000124080
:1015C00000000640C040005020001140CC420050B6
:1015D00010B500F04BFC044B1A69044B1868520616
:1015E00000D5400810BDC046000200505800002041
:1015F00010B500F03BFC044B1A69044B1868120646
:1016000000D5400810BDC046000200505800002020
:10161000F0B5830ADBB285B08C46002B07D0860577
:10162000F60EB3400F4D2C689C4322432A60030101
:101630005B0F14D06D460C4A6C46C2CAC2C5126814
:1016400061462A608200C001C00E8340920F920062
:101650001459064AA41822689A431143216005B020
:10166000F0BDC04618020050A42B0000100200502C
:10167000044A13680343DB439B0702D013681843F3
:1016800010607047000200507FB501AA1100084B9E
:10169000103370CB70C1830F9B009A58054BD21842
:1016A0001F2318401E3B834011680B4313607FBD0E
:1016B000A42B0000040200500C4B0100186800230A
:1016C0000B4A10B50B4C80081360E3680B4099423D
:1016D00003D1002808D1013002E001380028F4D1FC
:1016E00001235B42136010BD0120FCE7580000207D
:1016F000F403002000020050F7B50425104C06004A
:10170000E3681020019323680F002B432360FFF749
:10171000D3FF07220F21236993432B432361A3693E
:101720008B431F43A761236993431E43266100F047
:101730009DFB019BDB0602D42368AB432360F7BD0E
:10174000000200507046EFF30881EFF30982024B6C
:1017500098470047704700005D170000FEE7002330
:1017600010B5934200D110BDCC5CC4540133F8E7EE
:10177000094B1860094B1960094B1A600368DA7944
:10178000084B1A60FA22084BD2001A6101229033EA
:1017900019680A431A6070475404002008040020A6
:1017A000100400204C000020000006400E4B0F4AA1
:1017B0001B685A430E4B5A6000229A6005321A6029
:1017C0008022520219681142FCD0002201200949EE
:1017D0001A600B68084A83430B600F23536011683B
:1017E0000B4313607047C04650000020A0860100E4
:1017F00010E000E0900006400000064010B508220E
:101800000149FFF7ACFF10BDF8030020F8B5194CF3
:10181000194B226807009C460D001848184B194EBA
:101820008A4215D261462268BA180A6022683900D5
:10183000AD1A80220560186802431A60124B1868BE
:10184000124B2268C018FFF78AFF23683360F8BD87
:1018500000226146026018680A60803202431A6002
:10186000094B2A001868094B3900C018FFF777FFA9
:101870003560ECE74C000020180400202004002014
:101880000805064004050640000506400001064024
:10189000F8B500233A4C3B4A2370D1799379090279
:1018A0005918D378032B5ED00DD8012B1AD0022BF8
:1018B00021D0022334490A681A430A60334A116866
:1018C0000B43136016E0212B2AD0222B34D00F2B90
:1018D000EFD12F4B1B6898690028EAD00C2907D953
:1018E0000C2105E0122900D91221294B1B68186828
:1018F000FFF78CFFF8BD264B1B685E68F578B37860
:101900002D025D19A94238D9224B2800196800F030
:1019100095FB002901D10123237029003000E7E75E
:101920001B4B1868092900D90921137942699B00CA
:1019300040689B58C018DBE7154B15791F68AD0050
:101940003B695E59B1420CD9124B3000196800F066
:1019500075FB002901D101232370FB683100585920
:10196000C6E70E00F9E79378032BA2D8084A9B003C
:10197000126892689E583578C4E70D00CDE7C046DE
:101980003C040020F80300200C0506401C0506401E
:10199000540400204C000020F7B5234C2368002B92
:1019A00026D0224D2168224B2A68224E224F1868E9
:1019B000914212D933682A680193204B0199C018CB
:1019C000FFF7CDFE2B68019A3B602B68D31833607C
:1019D0002A6823689B1A2360F7BD184B2268C01839
:1019E0003168FFF7BCFE23683B6000233360F2E7F9
:1019F000134B1A78002A0DD15B78052B0AD1114BB5
:101A0000114A98681168884204D09968002901D168
:101A100012689A600D4B1A78002ADDD00022064920
:101A20000A601A70D8E7C046200400204C0000204D
:101A30000005064018040020040506400001064089
:101A4000F803002000000640300400203C04002081
:101A50000022054B1860054B1A60054B1960054BB9
:101A60001A68054B1A6070471C04002024040020EB
:101A7000280400204C000020140506400023F7B580
:101A8000784A1360784A1360784A1378507859B2CC
:101A9000002900DB6DE00A2800D9D8E000F03EFA0A
:101AA00024D7D7D7D7D717D706D71E00704B714A80
:101AB0001B689B18704A1268D2B21A7080236F4A52
:101AC00011680B43136001226D4B1A6001E0FFF7B0
:101AD000DFFE00210800FFF7BBFFF7BD644B654A3E
:101AE0001B689B18674AE6E76149644C802B1ED14E
:101AF000654B1B685B68DA795306DB0F920604D5E9
:101B0000624A127852001343DBB20A68594812182D
:101B1000137000200B685E4A01009B181870802328
:101B20002268134302222360554B1A60D3E7812BAE
:101B300005D10B684F4A9B1800221A70E9E7822BE7
:101B4000E7D14C4B0868534D16790F22C018AC46AC
:101B5000230016401F681D001740B74205D1043509
:101B60002B689B07DB0F0370D3E710336345F1D17C
:101B7000F6E701380A286AD800F0D0F90669496901
:101B80003C696969406964009378002B2CD10F216E
:101B9000127901260A4000923F4A022715688022E6
:101BA0009446019135481A011018019904680C40B7
:101BB0000099A1420CD134009C40254208D13749FC
:101BC000521861461468BC43146002688A4302607C
:101BD0000133082BE6D18023284A11680B43136098
:101BE0000022274B1A6078E7012BF4D10022274B03
:101BF0001A70F0E792782A4B1A60ECE71E4B927845
:101C00001A60284B1B68002BE5D09847E3E79378D0
:101C1000002B12D111790F221140184818180068B2
:101C20001040884205D11D4A9B18022219680A43B8
:101C3000E2E71033802BF0D1CDE7012BCBD1134A53
:101C40001370C8E70F4B92781A60174BDAE702233C
:101C500012490A681A430A60144A11680B43136058
:101C60003BE7C0461804002020040020F8030020B1
:101C70000005064000010640380400200805064023
:101C80000405064034040020540400200004002011
:101C90000101064088050640040400200C050640AA
:101CA000300400200C040020100400201C05064015
:101CB0000022154B10B51A60144B154C9969154B41
:101CC0000832C9182000FFF74AFD6022237813402C
:101CD000202B06D0402B0AD0002B0AD1FFF7CEFED6
:101CE00010BD0D4B1B68002BFAD09847F8E70B4B43
:101CF000F8E702230A490A681A430A60094A116888
:101D00000B431360ECE7C0462C04002000000640A3
:101D1000F8030020000106400804002014040020FD
:101D20000C0506401C050640F7B5E020194B1A4982
:101D3000DA680C6880010240A24226D0DB68174CAA
:101D40000340174E0B60226833689A421CD2154D2F
:101D5000154F2B680093154B009A19683B68019347
:101D6000134B0198C918FFF7FAFC009A019B94469F
:101D700063443B602368D3182360226833689A4227
:101D800002D20C4B1B682B60F7BD0A4B1A68054B3F
:101D90001A60F9E7000006402C040020240400200B
:101DA00028040020140506401C04002010050640ED
:101DB000000106404C00002010B500240F4B21000C
:101DC0001C600F4B08221C600E4B0F481C600F4B11
:101DD0001C600F4B1C600F4B1C6000F086F98021CB
:101DE0000D4A23019B181A6801348A431A60082C93
:101DF000F6D10022094B9A6010BDC046180400209D
:101E0000200400201C040020F803002024040020EB
:101E100028040020040400200805064000000640B5
:101E20000B490C4A0C4B9B1A03DD043BC858D0509D
:101E3000FBDC0A48592101601621016088210160FC
:101E4000074808490160054800210160FEF762F972
:101E5000842C000000000020C80000200001005079
:101E600024000050A55A0000FEE7C046072337B5FE
:101E7000A021214D01AA2C69C9021C40063B137008
:101E80000133537093700233D3702B6A00200B42DE
:101E900015D1882109040B422BD1184899030ED47F
:101EA000D905C90D0231800848431904890F525CD5
:101EB0009904C90E0231514300F03AF88000104BEA
:101EC0001860022C05D04008052C02D00D4BA40050
:101ED000E0580F23A9691940013100F029F80A4B95
:101EE0000A4918600A4BC01800F022F8094B186024
:101EF00037BD0948D2E7C04600020050001BB700BA
:101F000054000020C02B00005800002040420F0069
:101F100020A107005000002000366E0102B4714677
:101F200049084900095C49008E4402BC7047C0461C
:101F3000002243088B4274D303098B425FD3030A08
:101F40008B4244D3030B8B4228D3030C8B420DD31B
:101F5000FF22090212BA030C8B4202D312120902A9
:101F600065D0030B8B4219D300E0090AC30B8B42E7
:101F700001D3CB03C01A5241830B8B4201D38B0395
:101F8000C01A5241430B8B4201D34B03C01A52413A
:101F9000030B8B4201D30B03C01A5241C30A8B427D
:101FA00001D3CB02C01A5241830A8B4201D38B0268
:101FB000C01A5241430A8B4201D34B02C01A52410C
:101FC000030A8B4201D30B02C01A5241CDD2C3097E
:101FD0008B4201D3CB01C01A524183098B4201D3FA
:101FE0008B01C01A524143098B4201D34B01C01AE5
:101FF000524103098B4201D30B01C01A5241C3085D
:102000008B4201D3CB00C01A524183088B4201D3CB
:102010008B00C01A524143088B4201D34B00C01AB7
:102020005241411A00D20146524110467047FFE723
:1020300001B5002000F006F802BDC0460029F7D027
:1020400076E770477047C046084B10B50400002B78
:1020500002D0002100E000BF054B1868836A002B06
:1020600000D09847200000F0D1FCC04600000000DE
:10207000E02B000070B500260C4D0D4C641BA41025
:10208000A64209D1002600F0C3FC0A4D0A4C641B8D
:10209000A410A64205D170BDB300EB589847013695
:1020A000EEE7B300EB5898470136F2E7C000002096
:1020B000C0000020C0000020C400002030B5002473
:1020C0000139A24201D1002005E0035D01340D5D1C
:1020D000AB42F6D0581B30BD002310B59A4200D158
:1020E00010BDCC5CC4540133F8E70300821893425E
:1020F00000D1704719700133F9E700000EB400B544
:102100000B499CB01DAB02900690079104910948C1
:10211000094904CB0591006802A9019300F064F914
:102120000023029A13701CB008BC03B01847C046C5
:10213000FFFFFF7F5C0000200802FFFF03000A781A
:1021400001311A700133002AF9D170470023C25CB3
:102150000133002AFBD1581E7047704770470000BA
:1021600070B50500002910D00C1F2368002B00DA81
:10217000E418280000F0EAFB1D4A1368002B05D183
:1021800063601460280000F0E9FB70BDA34208D929
:10219000216860188342F3D118685B684118216098
:1021A000EEE71A005B68002B01D0A342F9D9116851
:1021B0005018A0420BD120680918501811608342B2
:1021C000E0D118685B68411811605360DAE7A042FB
:1021D00002D90C232B60D5E721686018834203D114
:1021E00018685B684118216063605460CAE7C046A4
:1021F0004804002070B50F4E0D003168040000291E
:1022000002D100F073FB30602900200000F06EFB6B
:10221000431C0AD00323C51C9D43A84207D0291A9A
:10222000200000F063FB431C01D101256D42280012
:1022300070BDC0464C040020F7B50322CB1C93436D
:10224000083306001F000C2B32D20C27B94231D8BC
:10225000300000F07BFB324D2B681C00002C2ED18F
:1022600039003000FFF7C6FF0400431C1ED12C6864
:102270002500002D4AD123682900E318300001937E
:1022800000F034FB019B834243D123680337FF1ADC
:1022900003239F4308370C2F00D20C27390030004E
:1022A000FFF7A8FF431C34D02368DF19276013E031
:1022B000002BCBDA0C23002533602800FEBD2268FA
:1022C000D11B20D40B2917D9E2192760A34211D1C1
:1022D0002A606368116053603000250000F03EFB07
:1022E00007220B35231D9543EA1A9D42E5D05B1B5F
:1022F000A350E2E75A60ECE76268A34201D12A608A
:10230000EAE75A60E8E723006468A7E72C006D68F5
:10231000AFE70C233000336000F020FBCDE7C04670
:1023200048040020F0B58E6885B007000C000392C9
:1023300001939E423CD890238A89DB001A4234D014
:102340000969236860695B1A029303234343DD0F25
:10235000ED18019B029801331B186D10AB4200D998
:102360001D00530532D529003800FFF765FF061E12
:1023700009D10C233B6040230120A2894042134332
:10238000A38105B0F0BD029A2169FFF7A5FEA389DC
:10239000144A1A4080231343A381029B2661F61836
:1023A00026606561019EED1AA560019B9E4200D9E1
:1023B000019E32000399206800F0B5FAA36800205E
:1023C0009B1BA36023689E192660DAE72A00380069
:1023D00000F0CCFA061EE0D138002169FFF7C0FEFC
:1023E000C7E7C0467FFBFFFFF0B5A1B003901D001B
:1023F0008B890F0016001B0611D50B69002B0ED11F
:102400004021FFF719FF38603861002805D10C23FF
:10241000039A0138136021B0F0BD40237B61002393
:1024200008AC6361203363761033A37607953500DB
:102430002B78002B01D0252B47D1AB1B0593B54240
:102440000CD0320039000398FFF76CFF431C00D119
:10245000AEE06269059B9446634463612B78002B70
:1024600000D1A5E0012200235242626004A9543247
:1024700052186E1C2360E360A3601370A3650522ED
:102480003178544800F044FA751C00281FD12268A6
:10249000D30604D5532304A95B1820211970130710
:1024A00004D5532304A95B182B21197033782A2BE8
:1024B00016D0350000210A20E3682A786E1C303AD5
:1024C000092A4ED9002911D117E00135B0E7414B57
:1024D0002268C01A0123834013432E002360CEE7F5
:1024E000079B191D1B680791002B01DB0B9304E070
:1024F0005B42E3600223134323602B782E2B0AD127
:102500006B782A2B35D1079B02351A1D1B68079261
:10251000002B2BDB0993304E03223000297800F08A
:10252000F7F9002806D04023801B8340226801353C
:10253000134323602978062228486E1C217600F078
:10254000E7F900283CD0264B002B25D10722079B1A
:1025500007339343083307936369049A9B186361B5
:1025600065E74343350001219B18A6E701235B4241
:10257000D0E700230A201A000135636029786E1C19
:102580003039092903D9002BC5D00992C3E742434A
:10259000350001235218F1E707AB00933A00210000
:1025A000104B039800E000BF0490049B0133D3D18B
:1025B000BB890D985B0600D42DE7012040422AE735
:1025C00007AB00933A002100064B039800F07CF81B
:1025D000EAE7C046442C00004A2C00004E2C0000C4
:1025E0000000000025230000F7B5150001938A685C
:1025F0000B690C000090934200DA130022002B605C
:1026000043321278002A01D001332B6023689B06E5
:1026100002D52B6802332B602268062317001F4067
:102620001A4227D0230043331B785A1E9341226855
:10263000920630D4220001990098089E4332B04798
:10264000431C25D0062320682A68E1680025034042
:10265000042B03D18D1AEB43DB171D40A3682269BD
:10266000934201DD9B1AED180027BD4220D10020C6
:1026700010E00137E3682A689B1ABB42D2DD2200D2
:10268000012301990098089E1932B047431CF0D1EC
:1026900001204042FEBD3020E11843310870210086
:1026A0005A1C45310978A218433202331170C1E730
:1026B0002200012301990098089E1A32B047431C5A
:1026C000E6D00137D1E70000F0B58BB006920A00E2
:1026D00043320793059004920A7E0C00109B782ADF
:1026E00007D8622A09D8002A00D1C1E0582A00D1AF
:1026F0008CE026004236327022E010006338152844
:10270000F7D800F06BF916001F00F6FFF6FFF6FF92
:10271000F6FF1F00F6FFF6FFF6FFF6FFA8003600F3
:102720009A00F6FFF6FFB900F6FF3600F6FFF6FF57
:102730009E0026001A684236111D19601368337016
:102740000123A7E0086819680A1D05060BD50D6866
:102750001A60002D03DA2D23049A6D421370614B29
:102760000A2703931BE00D681A604106F1D52DB2CC
:10277000EFE70D681968081D18602E0601D50D6871
:1027800003E06D06FBD50D68ADB2564B08270393E9
:102790006F2A00D002372300002243331A70636887
:1027A000A360002B03DB0422216891432160002DEC
:1027B00002D1049E002B0CD0049E28003900FFF7A4
:1027C0003DFC039B013E5B5C33702B0005009F4288
:1027D000F3D9082F09D12368DB0706D5636822697E
:1027E000934202DC3023013E3370049B9B1B236128
:1027F000079B210000930598069B09AAFFF7F4FEAA
:10280000431C4CD1012040420BB0F0BD45310A7051
:10281000344A03921A68216820CA1A60080616D53D
:10282000CB0702D52023194321601027002DB2D1F8
:10283000202322689A432260ADE7202209680A43D8
:1028400022602200782145321170274AE1E74806CC
:10285000E6D5ADB2E4E71A680D68101D4969186045
:1028600013682E0601D5196002E06D06FBD51980AC
:102870000023049E2361BBE71A68111D19601668C6
:1028800000213000626800F043F8002801D0801B6E
:102890006060636823610023049A1370A8E72369CA
:1028A000320006990598079DA847431CAAD02368C3
:1028B0009B0715D4099BE0689842A5DA1800A3E7A6
:1028C0002200012306990598079E1932B047431C40
:1028D00098D00135E368099A9B1AAB42F0DCE9E72E
:1028E0000025F7E7552C0000662C0000002370B58A
:1028F000064D040008002B6000F07AF8431C03D159
:102900002B68002B00D0236070BDC046400400201F
:10291000C9B28218904201D10020704703788B42DF
:10292000FBD00130F6E710B5884202D98B189842E7
:1029300003D3002307E08B5C8354013AFBD210BD24
:10294000CC5CC45401339A42FAD1F8E710B502487E
:10295000FFF703FC10BDC0464404002010B5024838
:10296000FFF7FCFB10BDC04644040020F7B507008C
:102970000E001400002905D11100FFF75DFC0500D1
:102980002800FEBD002A03D1FFF7EAFB2500F7E788
:1029900000F01BF80190844203D835004308A3429D
:1029A000EED321003800FFF747FC051EE8D0019B5D
:1029B00022009C4200D91A0031002800FFF78CFB4E
:1029C00031003800FFF7CCFBDAE70B1F1B68181F3C
:1029D000002B01DA0B58C0187047000003B4714691
:1029E000490840004900095E49008E4403BC704715
:1029F000044A03001068002802D0C318136070470F
:102A00000148FAE75004002058040020FEE7C046C1
:102A1000F8B5C046F8BC08BC9E467047F8B5C0463D
:102A2000F8BC08BC9E467047001BB7000080000041
:102A3000000000000000000000000000102700005F
:102A40000000000000366E01A72A0000642A000082
:102A50000000002000000000000000000000000056
:102A60000000000009024300020100C03209040016
:102A700000010202010005240010010524010001EB
:102A80000424020005240600010705830308000151
:102A900009040100020A000000070581024000004D
:102AA000070502024000001201100102000040165A
:102AB0000402B00003010203012003550053004249
:102AC0000020005600690072007400750061006CFF
:102AD00000200043004F004D00040309041A034185
:102AE0000030003200300031003400300039003056
:102AF0000033003000350010034E00750076006F83
:102B00000074006F006E0049324353776974636844
:102B10004661696C00426F4E4578200042614E4527
:102B2000782000437267457220004372675063202B
:102B300000437267446E200025357520004E554DC8
:102B400042455220203A20202020203020202020E2
:102B5000203120202020203220202020203320203F
:102B6000202020342020202020350053544154457B
:102B70002020203A2000564F4C54414745203A200F
:102B80000043555252454E54203A200054454D5072
:102B9000202020203A200043415041434954593AD3
:102BA0002000000000000000040000000C000000F5
:102BB0002400000000000000040000002C000000C1
:102BC000001BB7000080000000D8B80510270000E7
:102BD000006CDC02006CDC020000000000366E01BC
:102BE0006000002000000000000000000000000065
:102BF00000000000000000000000000000000000D5
:102C000000000000000000000000000000000000C4
:102C100000000000000000000000000000000000B4
:102C200000000000000000000000000000000000A4
:102C30000000000000000000000000000000000094
:102C400000000000232D302B2000686C4C006566CE
:102C500067454647003031323334353637383941ED
:102C60004243444546003031323334353637383903
:0C2C700061626364656600000000000003
:082C7C008CD4FF7F0100000071
:102C8400D92A0000F72A0000B92A0000DD2A000032
:102C9400504200508C42005084420050B4420050D4
:102CA400AC420050A44200505442005088420050AC
:102CB40080420050B0420050A8420050A042005050
:102CC400AC0D000000C20100000008000800000074
:102CD4006000000000D8B80500D8B80560000020E6
:102CE40000000000042C0000242C0000E42B000051
:102CF40000000000000000000000000000000000D0
:102D040000000000000000000000000000000000BF
:102D140000000000000000000000000000000000AF
:102D2400000000000000000000000000000000009F
:102D3400000000000000000000000000000000008F
:082D4400E9000000C1000000DD
:0400000300001E21BA
:00000001FF
