:1000000000200020E935000041360000E129000011
:1000100000000000000000000000000000000000E0
:100020000000000000000000000000004136000059
:1000300000000000000000004136000041360000D2
:1000400041360000413600004136000041360000D4
:100050002D250000413600004136000041360000E9
:10006000413600004136000041360000D524000032
:100070004136000000000000413600000000000092
:100080000000000000000000413600004136000082
:100090004136000041360000413600004D0E0000A0
:1000A0000000000041360000413600000000000062
:1000B00041360000413600004136000000000000DB
:1000C00010B5064C2378002B07D1054B002B02D02E
:1000D000044800E000BF0123237010BDC8000020C9
:1000E000000000004C460000044B10B5002B03D06C
:1000F0000349044800E000BF10BDC04600000000F6
:10010000CC0000204C460000402292029A1A9246EF
:100110007047C046174B002B00D1134B9D46FFF78D
:10012000F3FF00218B460F461348144A121A03F0BE
:10013000F8FB0E4B002B00D098470D4B002B00D046
:1001400098470020002104000D000D48002802D02F
:100150000C4800E000BF03F0B7FB2000290002F0CC
:1001600019FA03F09BFBC0460000080000000000E5
:100170000000000000200020C8000020AC06002085
:10018000000000000000000080B586B000AFF860FD
:10019000B9607A6000237B611BE001227B699A4091
:1001A00013001A00BB68134010D0FB681B687A6903
:1001B0005200032191400A00D2431A407B695B0040
:1001C000796899400B001A43FB681A607B69013318
:1001D0007B617B690F2BE0D9C046C046BD4606B0A7
:1001E00080BD80B584B000AFF860B9607A60FB680C
:1001F0009A697B68190EBB6899400B001A43FB682B
:100200009A61FB68DA697B681B02190ABB6899402E
:100210000B001A43FB68DA61C046BD4604B080BDDE
:1002200080B584B000AF78603960164B1A6813004F
:100230009B009B185B001A003B689B001900100094
:1002400003F0A0FA030005330A21180003F09AFA1C
:100250000300013BFB607B68FA681A617B681B68DE
:1002600040221A437B681A60064B1A68FB68013308
:100270009B001900100003F085FA03001800BD462A
:1002800004B080BD5000002080B584B000AF78601D
:1002900008001100FB1C021C1A70BB1C0A1C1A70FF
:1002A0000F23FB1801221A700E23FB1800221A706C
:1002B0000D23FB1800221A70434B00221A607B6842
:1002C0001B6828221A437B681A6066E03F4B1B6854
:1002D0001B09BB600EE0BB68013BBB60BB68002B29
:1002E00008D1394B012252421A600E23FB18012219
:1002F0001A7004E07B681B6808221340EBD07B680F
:10030000DB68302B1BD02CD8282B21D029D8202BD0
:1003100015D026D8082B02D0182B0BD021E0FB1CBF
:100320001B785B001A007B689A600D23FB1808227B
:100330001A7027E0BB1C1A787B689A6022E00D23B4
:10034000FB1818221A700E23FB1801221A7019E0EC
:100350000D23FB1818221A700F23FB1800221A70A5
:1003600010E07B681B683C22934318221A437B6889
:100370001A600D23FB1808221A700E23FB180122A5
:100380001A70C0467B681B683C2293431A000D23F9
:10039000FB181B781A437B681A600F23FB181B7825
:1003A000002B04D00E23FB181B78002B8ED00E23BD
:1003B000FA180F23FB1812781B781343DBB21800CE
:1003C000BD4604B080BDC046E400002050000020BF
:1003D00090B587B000AF78600C0010001900FB1CCE
:1003E000221C1A70BB1C021C1A707B1C0A1C1A707F
:1003F0001723FB1801221A701623FB1800221A700B
:100400001523FB1800221A7000233B61464B002283
:100410001A607B681B6828221A437B681A606DE0AB
:10042000424B1B681B09FB600AE0FB68013BFB6059
:10043000FB68002B04D13C4B012252421A6004E0BD
:100440007B681B6808221340EFD07B68DB68302B89
:100450001BD037D8282B21D034D8202B15D031D819
:10046000082B02D0182B0BD02CE0FB1C1B785B0058
:100470001A007B689A601523FB1808221A7032E074
:10048000BB1C1A787B689A602DE01523FB18182294
:100490001A701623FB1801221A7024E03B69002B06
:1004A00007D17B1C1A787B689A603B6901333B61FA
:1004B00019E01523FB1818221A701723FB180022C5
:1004C0001A7010E07B681B683C22934318221A4381
:1004D0007B681A601523FB1808221A701623FB1874
:1004E00001221A70C0467B681B683C2293431A00A5
:1004F0001523FB181B781A437B681A601723FB1817
:100500001B78002B04D01623FB181B78002B87D0F8
:100510001623FA181723FB1812781B781343DBB243
:100520001800BD4607B090BDE40000205000002038
:1005300080B588B000AFF860080011007B600B2325
:10054000FB18021C1A700A23FB180A1C1A701F23BE
:10055000FB1801221A701E23FB1800221A701D239B
:10056000FB1800221A700023BB61464B00221A6060
:10057000FB681B6828221A43FB681A6072E0424B32
:100580001B681B097B610AE07B69013B7B617B691E
:10059000002B04D13B4B012252421A6004E0FB685D
:1005A0001B6808221340EFD0FB68DB68302B1DD09E
:1005B0003CD8282B23D039D8202B17D036D8082B5D
:1005C00002D0182B0CD031E00B23FB181B785B00FA
:1005D0001A00FB689A601D23FB1808221A7036E087
:1005E0000A23FB181A78FB689A6030E01D23FB1879
:1005F00018221A701E23FB1801221A7027E0BA690C
:10060000BB6A9A4209D2BB695A1CBA617A68D3188C
:100610001B781A00FB689A6019E01D23FB1818224A
:100620001A701F23FB1800221A7010E0FB681B6869
:100630003C22934318221A43FB681A601D23FB18BF
:1006400008221A701E23FB1801221A70C046FB688C
:100650001B683C2293431A001D23FB181B781A4386
:10066000FB681A601F23FB181B78002B05D01E2384
:10067000FB181B78002B00D181E7BB691800BD4631
:1006800008B080BDE40000205000002080B588B094
:1006900000AFF8607A603B600B23FB180A1C1A70ED
:1006A0001F23FB1801221A701E23FB1800221A7048
:1006B0001D23FB1800221A700023BB61504B00223F
:1006C0001A60FB681B6828221A43FB681A6086E0E0
:1006D0004C4B1B681B097B610AE07B69013B7B611A
:1006E0007B69002B04D1464B012252421A6004E080
:1006F000FB681B6808221340EFD0FB68DB68582BAF
:100700003FD050D8502B24D04DD8482B18D04AD8A1
:10071000082B02D0402B0ED045E00B23FB181B7892
:100720005B00012213431A00FB689A601D23FB182B
:1007300008221A7048E01D23FB180C221A7043E0AF
:100740001D23FB1818221A701E23FB1801221A7091
:100750003AE0FB689968BB695A1CBA617A68D31899
:10076000CAB21A703B68013BBA699A4204D21D238F
:10077000FB180C221A7027E01D23FB1808221A70A0
:1007800022E0FB689968BB695A1CBA617A68D31881
:10079000CAB21A701D23FB1818221A701F23FB18E7
:1007A00000221A7010E0FB681B683C229343182259
:1007B0001A43FB681A601D23FB1808221A701E23B7
:1007C000FB1801221A70C046FB681B683C22934349
:1007D0001A001D23FB181B781A43FB681A601F239D
:1007E000FB181B78002B05D01E23FB181B78002B51
:1007F00000D16DE7BB691800BD4608B080BDC0469A
:10080000E40000205000002080B588B000AFF86000
:10081000080011007B600B23FB18021C1A700A23CE
:10082000FB180A1C1A701F23FB1801221A701E23C2
:10083000FB1800221A701D23FB1800221A700023D7
:10084000BB61684B00221A60FB681B6828221A43B0
:10085000FB681A60B5E0644B1B685B097B610AE0CA
:100860007B69013B7B617B69002B04D15D4B0122DD
:1008700052421A6004E0FB681B6808221340EFD064
:10088000FB68DB68582B00D16DE000D97DE0502B70
:1008900051D000D979E0482B44D000D975E0302BF5
:1008A0000AD8082B00D270E0083B282B6DD89A009C
:1008B0004E4BD3181B689F46402B2ED065E00B2370
:1008C000FB181B785B001A00FB689A601D23FB185D
:1008D00008221A706AE00A23FB181A78FB689A60EB
:1008E00064E01D23FB1818221A701E23FB18012236
:1008F0001A705BE01D23FB1828221A7056E00B23A8
:10090000FB181B785B00012213431A00FB689A60F6
:100910001D23FB1808221A7048E01D23FB180C2227
:100920001A7043E01D23FB1818221A701E23FB18AF
:1009300001221A703AE0FB689968BB695A1CBA61D7
:100940007A68D318CAB21A70BB6A013BBA699A4274
:1009500004D21D23FB180C221A7027E01D23FB185C
:1009600008221A7022E0FB689968BB695A1CBA61B8
:100970007A68D318CAB21A701D23FB1818221A708D
:100980001F23FB1800221A7010E0FB681B683C2232
:10099000934318221A43FB681A601D23FB18082290
:1009A0001A701E23FB1801221A70C046FB681B68D0
:1009B0003C2293431A001D23FB181B781A43FB6843
:1009C0001A601F23FB181B78002B05D01E23FB1871
:1009D0001B78002B00D13EE7BB691800BD4608B06C
:1009E00080BDC046E40000205000002050420000BE
:1009F00080B588B000AFF860B9607A60FB68180015
:100A000000F02EF903007B610023FB610023BB6132
:100A10007B695B087A689A4202D90223FB6113E082
:100A20007968786902F0AEFE0300FB61FB691B0E7A
:100A3000BB61BB69002B07D0BB6901331900F869A2
:100A400002F0A0FE0300FB61BA68BB691A43FB68B1
:100A50001A60FB68FA695A60BB690133FA6953434B
:100A60001900786902F08EFE03001800BD4608B038
:100A700080BD000090B58BB000AF786039607B68B6
:100A8000180000F0EDF803007B6200233B620023B6
:100A90003B617B6800221A607B6800225A617B6A96
:100AA000694A93420ED83A68FA239B009A4202D2CE
:100AB000FA239B003B603B68634A93420DD9624B2B
:100AC0003B600AE03B68632B01D864233B603B68D2
:100AD0005D4A934201D95C4B3B607B6A5A4A934220
:100AE00015D800233B62796A584802F04BFE030098
:100AF000FB603A6813005B019B1A9B009B18DB00AC
:100B0000F968180002F03EFE0300BB614EE07B6A0C
:100B10004F4A934205D907233B627B6ADB087B621D
:100B200012E07B6A4B4A934205D903233B627B6AFE
:100B30009B087B6208E07B6A474A934204D9012301
:100B40003B627B6A5B087B623B68F92B09D83B6898
:100B50007A6A53433C49180002F014FE0300BB615B
:100B600024E07B6A3849180002F092FE0B1E0AD17D
:100B70007B6A3549180002F005FE03001A003B6845
:100B80005343BB6112E0796A304802F0FBFD030079
:100B9000FB603A6813005B019B1A9B009B18DB000B
:100BA000F968180002F0EEFD0300BB617B68BA69CA
:100BB0005A603B6A8022D2051A437B681A60274B31
:100BC0001B68796A180002F0DDFD03000133FB6148
:100BD00003E0C046FB69013BFB61FB69002BF8D1D8
:100BE0001E4B1C687B68180000F03AF803001900DF
:100BF000200002F0C7FD03001A003B6A0133534393
:100C0000FB617B68DB687B6112E07B68DB687A698B
:100C10009A4208D13B695A1C3A61FA699A4207D252
:100C200001235B420BE000233B617B68DB687B6157
:100C30007B681A6880239B041340E6D100231800C8
:100C4000BD460BB090BDC04640420F0000CA9A3B63
:100C50000090D0030048E8010024F4005000002078
:100C600090B58DB000AF78600823FB182A4A13CAEC
:100C700013C313CA13C303CA03C37B68274A93422F
:100C800006D1274B5B691B0A07221340FB6222E057
:100C90007B68244A934206D1214B5B691B0B0722D8
:100CA0001340FB6217E07B681F4A934206D11C4B3E
:100CB0005B691B0C07221340FB620CE07B681B4A3C
:100CC000934206D1164B5B691B0D07221340FB6252
:100CD00001E000231BE0FB6A022B11D17B680F4A65
:100CE000934203D07B680F4A934204D101F02CFD5C
:100CF0000300BB620AE001F03DFD0300BB6205E0BA
:100D00000823FB18FA6A9200D358BB62BB6A18002A
:100D1000BD460DB090BDC046F44200000000014049
:100D2000000200502000014000001140200011404E
:100D300080B582B000AF0200FB1D1A70FB1D1B784E
:100D40007F2B09D8FB1D1B781A001F231A40044B68
:100D5000012191400A001A60C046BD4602B080BD24
:100D600000E100E080B582B000AF0200FB1D1A7008
:100D7000FB1D1B787F2B10D8FB1D1B781A001F232F
:100D80001340084901229A40130080228B50BFF380
:100D90004F8FC046BFF36F8FC046C046BD4602B0FE
:100DA00080BDC04600E100E080B584B000AFF860CF
:100DB000B9607A6007E0BA68531CBB60FB68591CD5
:100DC000F96012781A707B685A1E7A60002BF2D193
:100DD000C046C046BD4604B080BD000080B586B0A8
:100DE00000AF0200FB1D1A7000237B6121E07B69CC
:100DF0001B01144A944663443B613B691B68FB60DA
:100E0000FB680F221A40FB1D1B789A420ED17B69AA
:100E10001B010D4A944663443B613B691B68FB60C0
:100E20003B69FA6802210A431A6006E07B690133D4
:100E30007B617B69072BDADDC046C046BD4606B044
:100E400080BDC046080506400C05064080B582B04E
:100E500000AF654B5B687B60634B1B690F221340DF
:100E60003B607B680422134014D05F4B04225A601D
:100E70005D4B5B690122134006D05B4B1A695A4BEC
:100E800090210A431A6105E0574B1A69564B80219D
:100E90008A431A617B680122134025D0524B0122FC
:100EA0005A603B68012213400AD04F4B1A694E4BDF
:100EB00090210A431A6102F049FB4C4B00221A6050
:100EC0003B680222134005D0474B1A69464B10215C
:100ED0008A431A613B680422134005D0424B1A69C9
:100EE000414B90210A431A617B680822134002D0CB
:100EF0003D4B08225A607B680222134000D16FE00C
:100F00007B68002B11DA384B802212065A60384B6E
:100F10001A68374B01210A431A60364B1A68354B61
:100F200001210A431A6001F085FE7A6880235B0282
:100F3000134005D02C4B802252025A6002F014FA62
:100F40007A6880239B02134010D0274B80229202A4
:100F50005A6002F0A1FA284B5B78202B06D1264B71
:100F60001B79002B02D1002000F052F97A6880230F
:100F7000DB02134005D01C4B8022D2025A6000F0E5
:100F80003DF87A6880231B03134005D0164B80225E
:100F900012035A6000F03CF87A6880235B03134028
:100FA00003D0114B802252035A607A6880239B033E
:100FB000134003D00C4B802292035A607A6880233E
:100FC000DB03134003D0084B8022D2035A607A68B7
:100FD00080231B04134003D0034B802212045A6069
:100FE000C046BD4602B080BD00000640E8000020BB
:100FF0000C0506401C0506404C06002080B500AFDD
:10100000024B00221A60C046BD4680BD300600205B
:1010100080B500AF124BDA68E0231B031A40114B76
:101020001B689A4203D1104B40221A6015E00E4B08
:101030001A680E4B1A600E4B1B680E4A94466344A6
:101040001A000D4B1A60064BDA68E0231B031A40A6
:10105000044B1A60094B01221A70C046BD4680BD80
:1010600000000640E8000020340506402C06002061
:101070003005064000010640280600203406002006
:1010800080B500AF144B00229A61144B902292005D
:101090001A60134B08221A60124B882292001A60C1
:1010A000114B08221A60114B41221A60104B482242
:1010B0001A60104B22221A600F4B88221A600F4BC5
:1010C00040221A600E4B43221A600E4BC8221A604F
:1010D000C046BD4680BDC04600000640080506402B
:1010E0000005064018050640100506402805064084
:1010F0002005064038050640300506403405064008
:10110000480506404005064080B582B000AF3B0070
:10111000180001F07FFD3B001B785BB2002B27DA43
:101120003B005B78212B1CD13B001B79002B0AD1A3
:10113000314B1B68314A944663441800304B0722F8
:101140001900FFF731FE2F4B1A682E4B80210A43FE
:101150001A602D4B07221A600021002002F07CF952
:1011600045E00020FFF73AFE0120FFF737FE3EE0A2
:101170003B005B78202B20D0222B31D13B001B7908
:10118000002B10D13B00DB789AB2204B1A801F4B0A
:101190001B881B021AB23B009B781BB213431BB285
:1011A0009AB21A4B1A80174B1A68164B80210A43C1
:1011B0001A60154B00221A6019E03B001B79002BC6
:1011C00004D10F4B0721180002F046F90D4B1A68A5
:1011D0000C4B80210A431A600B4B00221A6006E078
:1011E0000020FFF7FBFD0120FFF7F8FDC046C046D9
:1011F000BD4602B080BDC046000506400001064065
:10120000100000200805064004050640F4000020F8
:1012100080B584B000AF0200FB1D1A70FB1D1B7867
:10122000002B00D088E00023BB600C20FFF79AFD64
:10123000434B00221A80434B00221A80424B00226B
:101240001A80424B00221A80414B00221A80414BE7
:1012500000221A80404B06229A60404B1B685B08B4
:101260003F4A9A183D4B1B681900100002F08AFA99
:101270000300023BBB60BA6880235B029A4211D331
:10128000364B1B68374A94466344DA00334B1B687D
:101290001900100002F076FA03001A092E4B023AE8
:1012A0005A6205E02C4BBA68C02189050A435A628C
:1012B0002A4B5B79002B02D10023FB600FE0274B08
:1012C0005B79012B02D10823FB6008E0234B5B799B
:1012D000022B02D11823FB6001E00023FB601F4BAF
:1012E0009B79082B12D016DC072B0AD013DC052BB8
:1012F00013D0062B00D00EE0FB6801221343FB60E5
:101300000CE0FB6802221343FB6007E0FB6803224A
:101310001343FB6002E0C04600E0C0460F4B1B7960
:10132000002B03D0FB6804221343FB600A4BFA68CE
:10133000DA600C20FFF7FCFCC046BD4604B080BD5F
:10134000DC050020DE050020E0050020E20500208D
:10135000E4050020E6050020000005401000002004
:1013600000366E01C0C62D0080B582B000AF02000D
:10137000FB1D1A70FB1D1B787F2B09D8FB1D1B78EA
:101380001A001F231A40044B012191400A001A60E1
:10139000C046BD4602B080BD00E100E080B500AFB0
:1013A000A023DA0580235B005921D150A023DA0560
:1013B00080235B001621D150A023DA0580235B0037
:1013C0008821D150A023DA0580235B00D358002B5D
:1013D000E6D0C046C046BD4680BD80B500AFA02364
:1013E000DA0580235B000021D150C046BD4680BD98
:1013F00080B582B000AF78607B681B688022D20520
:101400001A437B681A60C046BD4602B080BD00002A
:1014100080B582B000AF78607B681B68034A1A40D1
:101420007B681A60C046BD4602B080BDFFFFFFBFAB
:1014300080B582B000AF78607B681B68802292051F
:101440001A437B681A60C046BD4602B080BD80B5B5
:1014500082B000AF78607B689B68012213405A1EFF
:101460009341DBB21800BD4602B080BD80B582B0AA
:1014700000AF78607B6801229A60C046BD4602B02A
:1014800080BD80B584B000AFF860B9607A6007E0D5
:10149000BA68531CBB60FB68591CF96012781A705B
:1014A0007B685A1E7A60002BF2D1C046C046BD460A
:1014B00004B080BD80B500AF042001F013FA102005
:1014C00001F056FA0021042001F06AF9204B0022B5
:1014D0000021180001F0A4F9E023DB021D480022DE
:1014E000190001F09DF9E023DB031B4800221900DD
:1014F00001F096F9164B180001F00EFA164B180081
:1015000001F00AFA154B180001F006FA114B180009
:1015100001F002FA02F0E6F8A023DB055A6BA023E3
:10152000DB050F490A405A63A023DB055A6BA02351
:10153000DB05882149010A435A630A4B5A6A094B61
:10154000C02109010A435A62C046BD4680BDC0465B
:101550009B3C80720400005F0500405F0900004072
:10156000FF00FFFF0040005080B584B000AF344B57
:101570001B68002B60D1334B1B889BB2002B52D0D1
:10158000304B1B889BB2BB60BB68402B01DD402306
:10159000BB600023FB601BE02B4B1B889AB28023AF
:1015A000DB009A4202D3284B00221A80264B1B886C
:1015B0009BB25A1C91B2244A11801A00234B995CA9
:1015C000234AFB68D3180A1C1A70FB680133FB60BE
:1015D000FA68BB689A42DFDB01233B603B6883F318
:1015E0001088C046174B1B889AB2BB689BB2D31AAF
:1015F0009AB2144B1A8000237B607B6883F31088B7
:10160000C046BA680E4B1A60124B1B68124A9446C9
:1016100063441800BA680E4B1900FFF732FF0F4BF6
:10162000BA681A6008E00D4B1B68BB60BB68402BB2
:1016300002D10A4B00221A60C046BD4604B080BDEC
:1016400030060020DC050020DE050020DC01002043
:10165000E80500202005064000010640240506405C
:1016600080B584B000AF78600023FB602AE01C4B9B
:101670001B889AB28023DB009A4220D2FB687A68EA
:10168000D31800215956174B1B889BB25A1C90B295
:10169000144A10801A00C9B2134B9954114B1B887D
:1016A0009AB28023DB009A4202D30E4B00221A80AA
:1016B0000B4B1B889BB201339AB2094B1A80FB6813
:1016C0000133FB607B68180002F054F90200FB68EC
:1016D0009A42CCD8C046C046BD4604B080BDC04684
:1016E000DC050020E0050020DC01002080B500AF13
:1016F000184B1B889AB28023DB009A4226D2164BE5
:101700001B889BB25A1C91B2134A11801A00134BCA
:101710000D219954104B1B889BB25A1C91B20E4A52
:1017200011801A000D4B0A2199540B4B1B889AB259
:101730008023DB009A4202D3074B00221A80054B1C
:101740001B889BB201339AB2024B1A80C046BD4639
:1017500080BDC046DC050020E0050020DC01002043
:1017600080B584B000AF786033E0224B1800FFF7FB
:101770003FFE204B14211800FFF77CF91E4B00227E
:101780001A601C4B14211800FFF774F91A4B012240
:101790001A600F217B181A787B1801321A700FE03B
:1017A000FFF7A4FF154B1800FFF75AFFFFF79EFF46
:1017B000FFF7DAFE124A0F4B11001800FFF75AF933
:1017C0000F23FB181B78042BEAD80A4B1800FFF7ED
:1017D0001FFE01227B689A401300DBB209481A0001
:1017E0007021FEF751FD031EBFD1C046C046BD4665
:1017F00004B080BD00001140CC420050D84300002E
:1018000040420F000000124080B582B000AF0023BC
:101810007B6039E0204B1B781A007B681A4113006B
:10182000DB005BB2082213405AB21C4B1B78190034
:101830007B6819410B009B005BB204210B405BB23B
:1018400013435BB2DAB2164B1B7819007B6819415F
:101850000B005B00DBB202210B40DBB2D318DAB223
:10186000104B1B7819007B6819410B00DBB201217A
:101870000B40DBB2D318D9B20B4A7B68D3180A1CD1
:101880001A707B6801337B607B68052BC2DDC04624
:10189000C046BD4602B080BD9401002095010020E5
:1018A00096010020970100209801002080B582B0A9
:1018B00000AF00237B60E3E0774A7B68D3181B7896
:1018C000072B51D8754B7A689200D3581B68002BB0
:1018D0000BD0734A7B68D3181B780133D9B2704A96
:1018E0007B68D3180A1C1A700AE06E4A7B68D3180A
:1018F0001B780133D9B26B4A7B68D3180A1C1A7063
:10190000684A7B68D3181B78032B05D0644A7B6830
:10191000D3181B78022B15D1604B7A689200D358EC
:101920001A685E4B79688900CB5801214A401A60D9
:101930005B4A7B68D31800221A705A4A7B68D31816
:1019400000221A70584B7A689200D35801221A600C
:101950007B68DA00554BD218554B1000190008234C
:101960001A0001F0D5FF88E04B4A7B68D3181B783A
:101970000B2B1DD8484A7B68D3181B78072B17D927
:10198000494B7A689200D35801221A60434B7A6817
:101990009200D35801221A607B68DA00434BD218B8
:1019A000444B1000190008231A0001F0B1FF64E055
:1019B000394A7B68D3181B780D2B23D8364A7B68AD
:1019C000D3181B780B2B1DD9374B7A689200D3584C
:1019D00001221A60314B7A689200D3581A682F4B53
:1019E00079688900CB5801214A401A607B68DA0087
:1019F0002E4BD218304B1000190008231A0001F0AA
:101A000087FF3AE0244A7B68D3181B780E2B17D146
:101A1000254B7A689200D35801221A601F4B7A68CE
:101A20009200D35800221A607B68DA001F4BD2184C
:101A3000224B1000190008231A0001F069FF1CE076
:101A4000154A7B68D3181B780F2B16D1164B7A6872
:101A50009200D35800221A60104B7A689200D35833
:101A600001221A607B68DA00104BD218144B100068
:101A7000190008231A0001F04BFF7B6801337B60DB
:101A80007B68052B00DC17E7084B302200219954B6
:101A9000C046BD4602B080BD980100203000002045
:101AA000380600204006002018000020A001002079
:101AB000E0430000EC430000F84300000444000051
:101AC0001044000090B585B000AF0200FB1D1A70F5
:101AD000BB1D0A1C1A70BB1D1A78FB1D1B7814480D
:101AE0001900FEF7D1FB134B14211800FEF7C2FFBB
:101AF0000C243A190E4802230B21FEF7C7FD2000E3
:101B00003B181B7899B23B185B789BB21B029AB2C8
:101B10000E243B198A181A803B1802220021180053
:101B200001F0FFFE3B191B881800BD4605B090BDB3
:101B3000000012400000114080B582B000AF0023C9
:101B40007B60AEE17B681800FFF70AFED94B1B787B
:101B50001A007B681A4113000122134013D0D64BA0
:101B60001B781A007B681A411300012213400AD027
:101B7000D24B1B781A007B681A41130001221340D4
:101B800001D1012200E00022FB1C1A701A78012109
:101B90000A401A70FB1C1B78002B00D156E1C84B81
:101BA00000220B211800FEF76FFB031E33D0C54B3C
:101BB0007A685200C449D152C44B7A685200FA2163
:101BC0004900D152C24B7A685200BF49D152C14B31
:101BD0007A685200FA218900D152BF4A7B68D31833
:101BE00000221A7001227B689A4013005AB2BB4B44
:101BF0001B785BB213435BB2DAB2B84B1A70B84AC7
:101C00007B68D3181B780133D9B2B54A7B68D318E7
:101C10000A1C1A7042E1B34B7A685200D35A1A0078
:101C2000B14B13405CD009210B20FFF74BFF0300A1
:101C30001900A44B7A685200D1520A210B20FFF7F9
:101C400041FF030019B2A14B7A685200D15208211A
:101C50000B20FFF737FF03001900A44B7A685200EE
:101C6000D15216210B20FFF72DFF03001900A04BC6
:101C70007A685200D152964B7A6852000021D152B4
:101C8000944B7A6852000021D1520D210B20FFF7AE
:101C900019FF0300D9B2904A7B68D3180A1C1A7046
:101CA0008748512300220B21FEF792FB00210B20D5
:101CB000FFF708FF030019008A4B7A685200D152DF
:101CC00001227B689A4013005BB2DB435BB2834A1C
:101CD000127852B213405BB2DAB2804B1A70DDE078
:101CE00009210B20FFF7EEFE03001900754B7A68FF
:101CF0005200D1520A210B20FFF7E4FE030019B273
:101D0000724B7A685200D15208210B20FFF7DAFE9D
:101D100003001900754B7A685200D15216210B202E
:101D2000FFF7D0FE03001900714B7A685200D152C0
:101D300015210B20FFF7C6FE03001900644B7A68DB
:101D40005200D152634B7A6852006A49D1520D2138
:101D50000B20FFF7B7FE0300D9B25F4A7B68D318A8
:101D60000A1C1A705648512300220B21FEF730FB43
:101D700000210B20FFF7A6FE03001900594B7A68DB
:101D80005200D1523C210B20FFF79CFE03001900AA
:101D9000594B7A685200D1523D210B20FFF792FE39
:101DA00003001900554B7A685200D1523E210B2096
:101DB000FFF788FE03001900514B7A685200D15298
:101DC0003F210B20FFF77EFE030019004D4B7A6880
:101DD0005200D15201227B689A4013005AB23F4B05
:101DE0001B785BB213435BB2DAB23C4B1A703A4ACF
:101DF0007B68D3181B78622B12D901227B689A402A
:101E000013005AB2404B1B785BB213435BB2DAB299
:101E10003D4B1A702F4B7A6852000021D1523DE0A1
:101E20002D4A7B68D3181B78612B37D801227B6839
:101E30009A4013005BB2DB435BB2334A127852B272
:101E400013405BB2DAB2304B1A7027E01D4B7A6850
:101E500052000021D1521D4B7A6852000021D1520C
:101E6000224B7A6852000021D152194B7A685200F5
:101E70000021D152174B7A6852000021D152164AE4
:101E80007B68D31800221A70194B7A68520000211F
:101E9000D152144B7A6852000021D1527B68013331
:101EA0007B607B68052B00DC4CE6C046C046BD4627
:101EB00002B080BD9401002095010020DA010020CD
:101EC0000000124008010020D8400000140100204A
:101ED000380100204401002050010020960100201C
:101EE000D401002058010020625000002001002091
:101EF0002C010020DC05000064010020700100209E
:101F00007C010020880100209701002080B582B06C
:101F100000AF3E4A3E4802232121FEF7B7FB0023D3
:101F20007B6042E0394B1B781A007B681A41130032
:101F30000122134036D0374B1B781A007B681A41B8
:101F40001300012213402DD10D210B20FFF7BAFD04
:101F50000300D9B2304A7B68D3180A1C1A702E4A83
:101F60007B68D3181B78612B0DD901227B689A40BE
:101F700013005AB2294B1B785BB213435BB2DAB23F
:101F8000264B1A700EE001227B689A4013005BB268
:101F9000DB435BB2214A127852B213405BB2DAB231
:101FA0001E4B1A707B6801337B607B68052BB9DDA3
:101FB000164B1B781A4A12781340DAB2154B1A7076
:101FC00000233B601AE0134B1B781A003B681A4150
:101FD0001300012213400ED101223B689A401300E6
:101FE0005BB2DB435BB20F4A127852B213405BB272
:101FF000DAB20C4B1A703B6801333B603B68052B2F
:10200000E1DDC046C046BD4602B080BDF8000020FC
:10201000000012409501002050010020970100208F
:1020200094010020DA01002080B584B002AF0023C3
:102030007B6048E07B681800FFF792FB3B00264876
:1020400002220092FF220921FEF7DEFB3B001B78F3
:10205000302B2FD13B005B78002B2BD101227B68EA
:102060009A4013005AB21D4B1B785BB213435BB20C
:10207000DAB21A4B1A701A4B1748022200923F220A
:102080000921FEF755FA174B13480222009212223B
:102090000921FEF7B9FB134B5B7860229343DAB258
:1020A000104B5A700F4B0C48022200921222092149
:1020B000FEF73EFA3B0002220021180001F031FC3D
:1020C0007B6801337B607B68052BB3DDC046C0466F
:1020D000BD4602B080BDC046000012409401002001
:1020E000480000200401002080B582B000AF786075
:1020F000184B7A685200D35ADBB20F229343DBB2FB
:10210000803BDAB2144B1A70124B7A685200D35AE1
:102110001B0A9BB2DBB27F221340DAB20E4B5A701D
:102120000E4B7A685200D35ADBB23F229343DAB2A5
:102130000B4B1A70094B7A685200D35A1B0A9BB298
:10214000DBB21F221340DAB2054B5A70C046BD46BF
:1021500002B080BD38010020FC00002044010020B6
:102160000001002080B586B002AF0023FB6035E09F
:102170001E4B1B781A00FB681A4113000122134002
:1021800029D03B00FA685200D25A194BF96849002D
:10219000CB5A9A421FD0164BFA685200D15A3B00D4
:1021A000FA685200D152FB681800FFF7D9FAFB68B1
:1021B0001800FFF799FF0F4B0F48022200921522DB
:1021C0000921FEF7B5F90D4B0B48022200921422AB
:1021D0000921FEF7ADF9FB680133FB60FB68052BB5
:1021E000C6DDC046C046BD4604B080BD9401002097
:1021F00038010020FC0000200000124000010020F7
:1022000090B587B000AF0200BB1D1A807B1D0A1C71
:102210001A707B1D1B78002B0AD1BB1D1A883B4905
:102220000823FB18180001F085FB03003B6135E033
:102230007B1D1B78102B08D1BB1D1A88344908233D
:10224000FB18180001F076FB28E07B1D1B780A2B99
:1022500024D1BB1D1B88002B08D1BB1D1A882B491C
:102260000823FB18180001F065FB17E0BB1D1B8855
:10227000284A9A18254908243B19180001F05AFBEE
:1022800021007B1804229A567B18DA707B180522ED
:102290009A567B181A717B182E225A7100237B6183
:1022A0002BE01D4B1B889AB28023DB009A4221D27F
:1022B0000823FA187B69D31800215956174B1B883D
:1022C0009BB25A1C90B2154A10801A00C9B2144B26
:1022D0009954124B1B889AB28023DB009A4202D396
:1022E0000E4B00221A800C4B1B889BB201339AB212
:1022F000094B1A807B6901337B617B69072BD0DD39
:10230000C046C046BD4607B090BDC0461C44000054
:102310002444000055F5FFFFDC050020E005002007
:10232000DC01002080B586B000AF8023DA00584B76
:102330000021180001F0F5FA564B00221A80FFF731
:10234000D5F9554B1800FFF78BF9FFF7CFF9534B31
:102350001800FFF785F9524B1800FFF781F9FFF7D6
:10236000C5F9504B1800FFF77BF900237B610AE0A9
:102370004D4B7A695200D35A00211800FFF740FFF5
:102380007B6901337B617B69052BF1DDFFF7AEF9DA
:10239000464B1800FFF764F900233B6112E0444B01
:1023A0003A695200D35E1A1C13B2002B01DA0023E3
:1023B0001A1C13B29BB200211800FFF721FF3B69E2
:1023C00001333B613B69052BE9DDFFF78FF9394BA1
:1023D0001800FFF745F90023FB600AE0364BFA6866
:1023E0005200D35A0A211800FFF70AFFFB68013395
:1023F000FB60FB68052BF1DDFFF778F92F4B180028
:10240000FFF72EF90023BB600BE02D4ABB68D31801
:102410001B789BB200211800FFF7F2FEBB68013366
:10242000BB60BB68052BF0DDFFF760F9254B18009A
:10243000FFF716F900237B600AE0234B7A6852000D
:10244000D35A10211800FFF7DBFE7B6801337B6055
:102450007B68052BF1DDFFF749F91C4B1800FFF7EE
:10246000FFF800233B600AE0194B3A685200D35A48
:1024700010211800FFF7C4FE3B6801333B603B6846
:10248000052BF1DDFFF732F9C046BD4606B080BD31
:10249000DC010020E00500202C440000684400001E
:1024A000A0010020744400000801002080440000C6
:1024B000140100208C4400002001002098440000FA
:1024C00050010020A44400002C010020B044000072
:1024D0005801002080B500AF124B1800FEF7B7FF7F
:1024E0000300012B1AD10F4B1800FEF7BFFFFFF7B7
:1024F00023FBFFF737FEFFF787F9FFF7D7F90A4B02
:102500001B780133DAB2084B1A70074B1B78012B8A
:1025100004D9054B00221A70FFF704FFC046BD46E0
:1025200080BDC04620001140D101002080B582B09E
:1025300000AF154B1A6A8023DB01134014D0124BF5
:102540008022D2011A6200237B6009E00F4BC82170
:102550001800FEF78FFAFFF7D9FC7B6801337B6028
:102560007B68022BF2DD0BE0094B1B6A3B60084BDA
:102570003A681A62044B1B6A3B60034B3A681A6262
:10258000C046BD4602B080BD404000500000114032
:102590000040005080B500AFFEF700FFFEF78AFF55
:1025A000FEF71BFF594B012201211800FDF7ECFD3E
:1025B000564B012202211800FDF7E6FD534B012284
:1025C00004211800FDF7E0FD504B012208211800FE
:1025D000FDF7DAFD80235B004C4801221900FDF76E
:1025E000D3FD80239B00494801221900FDF7CCFD53
:1025F0008023DB00454801221900FDF7C5FD80233B
:102600001B01424801221900FDF7BEFD80235B013A
:102610003E4801221900FDF7B7FD80239B013B488E
:1026200001221900FDF7B0FD394B012210211800DD
:10263000FDF7AAFD364B012220211800FDF7A4FD6D
:102640003449354B0022180000F094FAFEF718FDCB
:1026500000F0C2FA314B1A68314B1A60304B1A68DD
:10266000304B1A60304B10225A601720FEF77CFE68
:102670002E4A2F4B11001800FDF7D2FDFFF7D4FCB6
:10268000FFF744FC2B4B022208211800FDF77CFDCC
:10269000294B01221A6080231B05284800221900BB
:1026A000FEF7A6F9254B1800FEF7C2FE0B20FEF739
:1026B0005BFE224B1800FEF79BFE8023DB011448D3
:1026C00000221900FDF760FD114B01220E211800B8
:1026D000FDF787FD0420FEF747FE194B1B78002B02
:1026E00010D0184B14211800FEF7C4F9144B1B78B6
:1026F000013BDAB2124B1A70114B1B78002B01D13F
:10270000FFF704FCFEF730FFE7E7C04680400050CB
:102710004040005009110000BC430000100100506F
:10272000EC000020F0000020000006401027000010
:1027300000001240C0400050CC4200502000114028
:10274000D20100200000114080B500AF00F0CAFFA8
:10275000064B1B694022134003D0054B1B685B08E6
:1027600001E0034B1B681800BD4680BD000200500D
:102770005000002080B500AF00F0B4FF064B1B698D
:102780008022134003D0054B1B685B0801E0034B1C
:102790001B681800BD4680BD00020050500000209C
:1027A00080B584B000AF786039601C4BDB681022C4
:1027B0001340FB60194B1A68184B04210A431A6036
:1027C000102000F0D5F8154B1B69072293431A001F
:1027D000124B04210A431A61104B9B690F22934349
:1027E00019000E4B3A680A439A610C4B1B69072289
:1027F00093431900094B7A680A431A6100F072FF8B
:10280000FB68002B05D1054B1A68044B04218A4351
:102810001A60C046BD4604B080BDC04600020050EC
:10282000B0B58CB000AFF860B9607A60FB689B0A05
:10283000FF22134022D000237B62FB689B0C032203
:1028400013409B0030229B18DB190C3B1B68224A6B
:1028500094466344FB62FB6A1B68FA68920AFF2194
:102860001140FA6852091F20024091400A00D243E9
:102870001A401100FB6A7A680A431A60FB685B0E13
:102880000722134024D014217B18144A31CA31C3C3
:1028900012681A60FB681B0F03221A407B18920013
:1028A000D3580F4A94466344BB62BB6A1B68FA68FC
:1028B000520E07211140FA68120D1F20024091406C
:1028C0000A00D2431A401100BB6ABA680A431A6070
:1028D000C046BD460CB0B0BD18020050BC4400005C
:1028E0001002005080B582B000AF7860094B1A68C2
:1028F0007B68134303221340032B06D0054B196852
:10290000044B7A680A431A6000E0C046BD4602B034
:1029100080BDC04600020050B0B586B000AF786000
:102920000C243B19104A23CA23C37B689A0F3B1916
:102930009200D3580D4A944663441A687B681F215D
:102940000B40012199400B0018007B68990F3B193F
:102950008900CB5805498C46634402431A60C0463F
:10296000BD4606B0B0BDC046CC44000004020050D5
:1029700080B584B000AF7860124B1B689B08FB6089
:102980000123BB60104B00221A6008E0FB68013B8A
:10299000FB60FB68002B02D10023BB6006E00B4B01
:1029A000DB687A6813407A689A42EFD1FB68002BA3
:1029B00003D1054B012252421A60BB681800BD4684
:1029C00004B080BD500000204806002000020050E6
:1029D00080B582B000AF7860C046BD4602B080BD11
:1029E00080B500AF7046EFF30881EFF30982034B27
:1029F00098470047C046BD4680BD0000012A000040
:102A000080B586B000AFF860B9607A60FB680422D8
:102A1000134002D07B687B6101E0BB687B617B690E
:102A20001800FFF7D5FFFEE780B582B000AF7860F1
:102A30000C4B1A680C4B79684A435A600A4B0022C7
:102A40009A60094B05221A60C046074B1A6880231A
:102A50005B021340F9D0044B00221A60C046BD4609
:102A600002B080BD5400002010E000E080B584B0CA
:102A700000AFF860B9607A6007E0BA68531CBB60C9
:102A8000FB68591CF96012781A707B685A1E7A60CC
:102A9000002BF2D1C046C046BD4604B080BD000048
:102AA00080B586B000AF0200FB1D1A7000237B6169
:102AB00021E07B691B01144A944663443B613B69F6
:102AC0001B68FB60FB680F221A40FB1D1B789A42B3
:102AD0000ED17B691B010D4A944663443B613B69FF
:102AE0001B68FB603B69FA6802210A431A6006E032
:102AF0007B6901337B617B69072BDADDC046C04609
:102B0000BD4606B080BDC046080506400C0506401F
:102B100080B586B000AF0200FB1D1A7000233B6138
:102B200019E03B691B01114A944663447B617B6950
:102B30001B68FB60FB680F221A40FB1D1B789A4242
:102B400006D13B691B010A4A944663447B6105E058
:102B50003B6901333B613B69072BE2DD7B691B6805
:102B6000022213401800BD4606B080BD080506408D
:102B70000C05064080B584B000AFF860B9607A609B
:102B8000104BFA681A60104BBA681A600F4B7A68DB
:102B90001A600C4B1B681B6807331B781A000C4B20
:102BA0001A600C4BFA22D2001A610A4A9023D358B9
:102BB00008490122134390228B50C046BD4604B001
:102BC00080BDC04680060020880600208C060020BC
:102BD0004C0000200000064080B500AF0B4B1800F1
:102BE000FFF722FF0A4A9023D35809490122934351
:102BF00090228B50064B0F225A60054B1A68044BEB
:102C00000F210A431A60C046BD4680BDA086010060
:102C10000000064080B582B000AF786004497B6850
:102C200008221800FFF722FFC046BD4602B080BD53
:102C30004C06002080B500AF1F4B00221A601F4BCE
:102C40009B691F4A99181F4B08221800FFF70EFFB7
:102C50001C4B1B781A0060231340402B10D017DC4C
:102C6000002B02D0202B03D012E000F055F91FE01A
:102C7000154B1B68002B18D0134B1B68984714E0AA
:102C8000124B1B68002B12D0104B1B6898470EE0AC
:102C90000F4B1A680E4B02210A431A600D4B1A683B
:102CA0000C4B02210A431A6002E0C04600E0C04615
:102CB000C046BD4680BDC0467C06002000000640E0
:102CC000000106404C0600208806002084060020F3
:102CD0000C0506401C05064080B584B000AF874B4C
:102CE00000221A700023FB60854BDB79FB60FB68D8
:102CF0001B02FB60824B9B791A00FB689B18FB60F0
:102D00007F4BDB78222B00D9E6E09A007D4BD3186D
:102D10001B689F46FB68122B00D91223FB607A4B7D
:102D20001B681B68FA681100180000F0C5FAE0E0A3
:102D3000754B1B685B6803331B787B60724B1B68A9
:102D40005B6802331B781A007B681B02D3187B6018
:102D5000FA687B689A420DD97B68FB606B4B1A68F6
:102D6000FB681100180000F093FD0B1E02D1634BAD
:102D700001221A70644B1B685B68FA681100180026
:102D800000F09AFAB5E0FB68092B00D90923FB6033
:102D90005D4B1B685A695A4B1B799B00D3181B6803
:102DA000BB60594B1B685A68BB68D318FA6811009E
:102DB000180000F081FA9CE0534B1B681A69504BD5
:102DC0001B799B00D3181B68FA689A4214D94E4BA2
:102DD0001B681A694A4B1B799B00D3181B68FB6060
:102DE0004A4B1A68FB681100180000F051FD0B1ED9
:102DF00002D1424B01221A70434B1B68DA68404BE8
:102E00001B799B00D3181B68FA681100180000F0AA
:102E100053FA6EE03A4B9B78032B30D83A4B1B6841
:102E20009A68374B9B789B00D3181B681B781A0055
:102E3000FB68934215D9344B1B689A68304B9B78DA
:102E40009B00D3181B681B78FB60304B1A68FB682B
:102E50001100180000F01CFD0B1E02D1274B0122AF
:102E60001A70294B1B689A68254B9B789B00D318D6
:102E70001B68FA681100180000F01EFA39E0244BB4
:102E80001A68234B02210A431A60224B1A68214B0D
:102E900002210A431A602CE01B4B1B689B69002B24
:102EA0000CD11B4B1A681A4B02210A431A60194BAA
:102EB0001A68184B02210A431A601AE0FB680C2BAF
:102EC00000D90C23FB60104B1B689B69FA6811004A
:102ED000180000F0F1F90CE00D4B1A680C4B0221C0
:102EE0000A431A600B4B1A680A4B02210A431A6004
:102EF000C046C046BD4604B080BDC046780600202E
:102F00004C060020D8440000800600204C00002021
:102F10000C0506401C05064080B584B000AFD14BBF
:102F200000221A60D04B00221A60D04B1B785BB293
:102F3000002B00DBC2E0CD4B5B780A2B28D000DDF4
:102F4000AFE0082B06D000DDABE0002B37D0062B1E
:102F500017D0A6E0C64B1A68C64B1B68C6498C46FC
:102F60006344D2B21A70C54B1A68C44B80210A431D
:102F70001A60C34B01221A600021002000F06CFA95
:102F80006BE1FFF7A9FE0021002000F065FA64E183
:102F9000BC4B1A68B74B1B68B7498C466344D2B226
:102FA0001A70B64B1A68B54B80210A431A60B44BAD
:102FB00001221A600021002000F04EFA4DE1AB4BD7
:102FC0001B78802B33D10F217B1800221A70AE4B57
:102FD0001B685B6807331B781A004023134005D039
:102FE0007B187A18127801210A431A70A64B1B68C5
:102FF0005B6807331B781A00202313400CD0A34BC7
:103000001B78DBB25B005AB20F217B181B785BB2D6
:1030100013435AB27B181A70964B1B68964A944613
:1030200063441A000F23FB181B78137024E08F4BA6
:103030001B78812B07D18F4B1B688F4A94466344C2
:1030400000221A7018E0894B1B78822B14D1874B11
:103050001A79FB1C0F210A401A70FB1C1B78180000
:10306000FFF756FD03005A1E9341DAB2814B1B68ED
:1030700081498C4663441A707E4B1B68844A94468F
:10308000634400221A707D4B1A687C4B80210A43EE
:103090001A607B4B02221A600021002000F0DCF94C
:1030A000DBE07C4B1A687B4B02210A431A607A4BA7
:1030B0001A68794B02210A431A60CEE06B4B5B78A9
:1030C0000B2B00D9BCE09A00744BD3181B689F46A9
:1030D000664B9B78002B49D1644B1B791A000F2358
:1030E00013407B600023BB603CE06D49BA68A123BC
:1030F000DB0012018A18D3181B680F2213407A686C
:103100009A422CD10122BB689A4013001A00654BE9
:103110001B68134023D16249BB68634A1B01CB186B
:103120009B181B685E48022293431A00BB685E49E5
:103130001B01C3185B181A605949BA68A123DB0048
:1031400012018A18D3181B685548802293431A002D
:10315000B968A123DB0009014118CB181A60BB68CC
:103160000133BB60BB68072BBFD906E03F4B9B78A0
:10317000012B02D1454B00221A70404B1A683F4B7D
:1031800080210A431A603E4B00221A6065E0374BEB
:103190009B781A00454B1A60384B1A68374B8021D0
:1031A0000A431A60364B00221A6056E02F4B9B7878
:1031B0001A002F4B1A603E4B1B68002B02D03C4B71
:1031C0001B6898472D4B1A682C4B80210A431A60C4
:1031D0002B4B00221A6040E0244B9B78002B08D137
:1031E000224B1B790F221340DBB21800FFF758FC6B
:1031F00006E01E4B9B78012B02D1244B01221A7052
:103200001E4B1A681D4B80210A431A601C4B00227A
:103210001A6022E0154B9B781A001A4B1A60254B56
:103220001B68002B02D0234B1B689847134B1A686E
:10323000124B80210A431A60114B00221A600CE0E5
:10324000144B1A68134B02210A431A60124B1A6876
:10325000114B02210A431A60C046C046BD4604B065
:1032600080BDC046580600205C0600204C060020A9
:1032700070060020000506400001064008050640D3
:103280000405064074060020800600205406002035
:10329000010106400C0506401C050640644500007F
:1032A00000000640940600200C0500006C0600207B
:1032B000900600208C06002080B582B000AF7860B8
:1032C0003960224B1B683A689A4221D91F4B1B6810
:1032D0007A68D2181E4B1A601C4B1B683A68D21AC7
:1032E0001C4B1A601C4B1A681B4B80210A431A6046
:1032F0001A4B1B681A4A9818144B1B681A007B68F3
:103300001900FFF7B3FB174A104B1B68136018E056
:103310000F4B00221A600F4B00221A600E4B1A68E6
:103320000D4B80210A431A600C4B1B680C4A9446D3
:1033300063443A6879681800FFF798FB094B3A68CC
:103340001A60C046BD4602B080BDC0464C00002099
:10335000580600205C0600200805064000050640CF
:10336000000106400405064080B500AF304B1B68E5
:10337000002B39D02E4B1A682E4B1B689A421DD950
:103380002D4B1B682D4A98182D4B1968294B1B682B
:103390001A00FFF76BFB2B4A264B1B681360254B6B
:1033A0001A68274B1B689A18254B1A60214B1A681C
:1033B0001F4B1B689A1A1E4B1A6036E01E4B1B6887
:1033C0001E4A98181E4B1968194B1B681A00FFF704
:1033D0004DFB1C4A164B1B681360194B00221A60E8
:1033E000134B00221A6020E0174B1B78002B11D1E1
:1033F000154B5B78052B0DD1144B9A68144B1B6849
:103400009A4207D0114B9B68002B03D10F4A104BF7
:103410001B6893600F4B1B78DBB2002B05D0094B68
:1034200000221A600B4B00221A70C046BD4680BDB8
:103430005C0600204C00002000050640000106400C
:1034400058060020040506404C06002000000640F7
:103450006C0600207806002080B582B000AF78604E
:103460003960084B7A681A60074B00221A60074BD4
:103470003A681A60064A074B1B681360C046BD468F
:1034800002B080BD600600206406002068060020AF
:10349000140506404C00002080B582B000AF224BDE
:1034A000DA68E0239B011A40204B1B689A4233D014
:1034B0001D4BDA68E0239B011A401C4B1A601C4B21
:1034C0001A681C4B1B689A422AD21B4B1B687B60F4
:1034D0001A4B1B681A4A944663443B60194B1B689D
:1034E00039687A681800FFF7C1FA164B1A687B68CA
:1034F000D218144B1A600E4B1A687B68D2180C4B0A
:103500001A600B4B1A680B4B1B689A4208D20A4A86
:103510000D4B1B68136003E0074A0B4B1B681360DD
:10352000C046BD4602B080BD000006407C060020BB
:1035300064060020680600201405064010050640B9
:1035400000010640600600204C00002080B582B0DB
:1035500000AF1D4B00221A601C4B00221A601C4B4E
:1035600000221A601B4B00221A601B4B00221A60BB
:103570001A4B00221A601A4B08220021180000F092
:10358000D0F900237B6015E016497A68A123DB009F
:1035900012018A18D3181B681248802293431A001C
:1035A0007968A123DB0009014118CB181A607B68F8
:1035B00001337B607B68072BE6DD0A4B00229A60B3
:1035C000C046BD4602B080BD580600205C06002003
:1035D0006006002064060020680600209406002093
:1035E0004C060020000006400B490C4A0C4B9B1A6D
:1035F00003DD043BC858D050FBDC0A480A4901608F
:103600000A4901600A4901600A480B4901600548FE
:103610000A490160FCF77EFD5846000000000020CA
:10362000C8000020000100505900000016000000F2
:103630008800000024000050A55A0000000000008F
:10364000FEE7C04680B588B000AF0023BB613B1DDC
:10365000204A1A60204B1B6A7B617A69A023DB0237
:10366000134001D0002331E07A6988231B04134002
:1036700002D01A4BFB6101E0194BFB617A69802390
:103680009B02134001D0FB6920E07B699B0B032266
:1036900013403A1DD35C3B617B69DB05DB0D0233D4
:1036A000FB607B695B0A1F2213400233BB60FB692E
:1036B0009B08FA685A431000BB683A6953431900E3
:1036C00000F060F803009B00BB61BB691800BD46B9
:1036D00008B080BD010202040002005000366E01F5
:1036E000001BB70080B584B000AF1F4B1B690722D9
:1036F0001340BB60FFF7A6FF02001C4B1A60BB68BB
:10370000022B03D0BB68052B04D008E0174B1B68C5
:10371000FB6009E0154B1B685B08FB6004E0144B81
:10372000BA689200D358FB600F4B9B690F2213407D
:1037300001337B607968F86800F024F803001A0010
:103740000C4B1A600B4B1B680B4A944663440B49A5
:10375000180000F017F803001A00094B1A60C04661
:10376000BD4604B080BDC046000200505800002095
:10377000944500005000002020A1070040420F00A7
:1037800054000020002243088B4274D303098B426B
:103790005FD3030A8B4244D3030B8B4228D3030C21
:1037A0008B420DD3FF22090212BA030C8B4202D3C3
:1037B0001212090265D0030B8B4219D300E0090AEB
:1037C000C30B8B4201D3CB03C01A5241830B8B42F4
:1037D00001D38B03C01A5241430B8B4201D34B03DD
:1037E000C01A5241030B8B4201D30B03C01A524142
:1037F000C30A8B4201D3CB02C01A5241830A8B42C7
:1038000001D38B02C01A5241430A8B4201D34B02AF
:10381000C01A5241030A8B4201D30B02C01A524113
:10382000CDD2C3098B4201D3CB01C01A52418309C7
:103830008B4201D38B01C01A524143098B4201D301
:103840004B01C01A524103098B4201D30B01C01A2C
:103850005241C3088B4201D3CB00C01A52418308A6
:103860008B4201D38B00C01A524143088B4201D3D3
:103870004B00C01A5241411A00D201465241104633
:103880007047FFE701B5002000F006F802BDC04612
:103890000029F7D076E770477047C046084B10B54F
:1038A0000400002B02D0002100E000BF054B186887
:1038B000836A002B00D09847200000F0BBFCC04674
:1038C00000000000B445000070B500260C4D0D4C02
:1038D000641BA410A64209D1002600F0ADFC0A4DDD
:1038E0000A4C641BA410A64205D170BDB300EB586E
:1038F00098470136EEE7B300EB5898470136F2E7F8
:10390000C0000020C0000020C0000020C400002033
:10391000002310B59A4200D110BDCC5CC4540133D1
:10392000F8E703008218934200D170471970013301
:10393000F9E700000EB400B50B499CB01DAB029036
:103940000690079104910948094904CB0591006844
:1039500002A9019300F05CF90023029A13701CB0D5
:1039600008BC03B01847C046FFFFFF7F5C00002083
:103970000802FFFF0023C25C0133002AFBD1581E5E
:10398000704770477047000070B50500002910D0DF
:103990000C1F2368002B00DAE418280000F0EAFB73
:1039A0001D4A1368002B05D163601460280000F0E5
:1039B000E9FB70BDA34208D9216860188342F3D1A6
:1039C00018685B6841182160EEE71A005B68002BFD
:1039D00001D0A342F9D911685018A0420BD1206838
:1039E0000918501811608342E0D118685B684118CB
:1039F00011605360DAE7A04202D90C232B60D5E7AF
:103A000021686018834203D118685B6841182160FF
:103A100063605460CAE7C046A006002070B50F4E30
:103A20000D0031680400002902D100F073FB306002
:103A30002900200000F06EFB431C0AD00323C51CA4
:103A40009D43A84207D0291A200000F063FB431CC5
:103A500001D101256D42280070BDC046A40600209A
:103A6000F7B50322CB1C9343083306001F000C2B31
:103A700032D20C27B94231D8300000F07BFB324DF6
:103A80002B681C00002C2ED139003000FFF7C6FF38
:103A90000400431C1ED12C682500002D4AD1236848
:103AA0002900E3183000019300F034FB019B8342AE
:103AB00043D123680337FF1A03239F4308370C2F92
:103AC00000D20C2739003000FFF7A8FF431C34D088
:103AD0002368DF19276013E0002BCBDA0C230025C5
:103AE00033602800FEBD2268D11B20D40B2917D9D2
:103AF000E2192760A34211D12A6063681160536004
:103B00003000250000F03EFB07220B35231D9543B6
:103B1000EA1A9D42E5D05B1BA350E2E75A60ECE74E
:103B20006268A34201D12A60EAE75A60E8E723000D
:103B30006468A7E72C006D68AFE70C2330003360A2
:103B400000F020FBCDE7C046A0060020F0B58E684F
:103B500085B007000C00039201939E423CD890234D
:103B60008A89DB001A4234D00969236860695B1ACC
:103B7000029303234343DD0FED18019B02980133A9
:103B80001B186D10AB4200D91D00530532D529001A
:103B90003800FFF765FF061E09D10C233B60402368
:103BA0000120A28940421343A38105B0F0BD029ACF
:103BB0002169FFF7ADFEA389144A1A4080231343FD
:103BC000A381029B2661F61826606561019EED1AAD
:103BD000A560019B9E4200D9019E32000399206896
:103BE00000F0B5FAA36800209B1BA36023689E1910
:103BF0002660DAE72A00380000F0CCFA061EE0D191
:103C000038002169FFF7C0FEC7E7C0467FFBFFFF12
:103C1000F0B5A1B003901D008B890F0016001B06A4
:103C200011D50B69002B0ED14021FFF719FF386029
:103C30003861002805D10C23039A0138136021B0A4
:103C4000F0BD40237B61002308AC636120336376C1
:103C50001033A376079535002B78002B01D0252B48
:103C600047D1AB1B0593B5420CD032003900039805
:103C7000FFF76CFF431C00D1AEE06269059B9446E0
:103C8000634463612B78002B00D1A5E0012200235F
:103C90005242626004A9543252186E1C2360E360E1
:103CA000A3601370A36505223178544800F044FAEC
:103CB000751C00281FD12268D30604D5532304A9FC
:103CC0005B1820211970130704D5532304A95B182E
:103CD0002B21197033782A2B16D0350000210A20A9
:103CE000E3682A786E1C303A092A4ED9002911D18E
:103CF00017E00135B0E7414B2268C01A0123834029
:103D000013432E002360CEE7079B191D1B68079104
:103D1000002B01DB0B9304E05B42E36002231343BF
:103D200023602B782E2B0AD16B782A2B35D1079B59
:103D300002351A1D1B680792002B2BDB0993304EAE
:103D400003223000297800F0F7F9002806D040233C
:103D5000801B8340226801351343236029780622A3
:103D600028486E1C217600F0E7F900283CD0264B4D
:103D7000002B25D10722079B073393430833079372
:103D80006369049A9B18636165E743433500012129
:103D90009B18A6E701235B42D0E700230A201A0004
:103DA0000135636029786E1C3039092903D9002B4D
:103DB000C5D00992C3E74243350001235218F1E709
:103DC00007AB00933A002100104B039800E000BFBE
:103DD0000490049B0133D3D1BB890D985B0600D4BA
:103DE0002DE7012040422AE707AB00933A0021006B
:103DF000064B039800F07CF8EAE7C046184600003E
:103E00001E46000022460000000000004D3B00005E
:103E1000F7B5150001938A680B690C000090934276
:103E200000DA130022002B6043321278002A01D0FE
:103E300001332B6023689B0602D52B6802332B606D
:103E40002268062317001F401A4227D0230043335D
:103E50001B785A1E93412268920630D422000199A1
:103E60000098089E4332B047431C25D006232068A3
:103E70002A68E16800250340042B03D18D1AEB4327
:103E8000DB171D40A3682269934201DD9B1AED18E0
:103E90000027BD4220D1002010E00137E3682A68E6
:103EA0009B1ABB42D2DD2200012301990098089E93
:103EB0001932B047431CF0D101204042FEBD3020F2
:103EC000E1184331087021005A1C45310978A218C5
:103ED000433202331170C1E7220001230199009897
:103EE000089E1A32B047431CE6D00137D1E70000E4
:103EF000F0B58BB006920A00433207930590049206
:103F00000A7E0C00109B782A07D8622A09D8002A5A
:103F100000D1C1E0582A00D18CE026004236327030
:103F200022E0100063381528F7D800F06BF916006E
:103F30001F00F6FFF6FFF6FFF6FF1F00F6FFF6FF85
:103F4000F6FFF6FFA80036009A00F6FFF6FFB9006C
:103F5000F6FF3600F6FFF6FF9E0026001A6842368E
:103F6000111D1960136833700123A7E008681968F0
:103F70000A1D05060BD50D681A60002D03DA2D23E6
:103F8000049A6D421370614B0A2703931BE00D687E
:103F90001A604106F1D52DB2EFE70D681968081DCA
:103FA00018602E0601D50D6803E06D06FBD50D687F
:103FB000ADB2564B082703936F2A00D00237230077
:103FC000002243331A706368A360002B03DB0422D2
:103FD000216891432160002D02D1049E002B0CD05A
:103FE000049E28003900FFF753FC039B013E5B5CF5
:103FF00033702B0005009F42F3D9082F09D12368A5
:10400000DB0706D563682269934202DC3023013E58
:104010003370049B9B1B2361079B21000093059831
:10402000069B09AAFFF7F4FE431C4CD10120404235
:104030000BB0F0BD45310A70344A03921A6821680A
:1040400020CA1A60080616D5CB0702D520231943CB
:1040500021601027002DB2D1202322689A432260CC
:10406000ADE7202209680A43226022007821453208
:104070001170274AE1E74806E6D5ADB2E4E71A68D1
:104080000D68101D4969186013682E0601D5196066
:1040900002E06D06FBD519800023049E2361BBE777
:1040A0001A68111D1960166800213000626800F05E
:1040B00043F8002801D0801B6060636823610023FF
:1040C000049A1370A8E72369320006990598079DA2
:1040D000A847431CAAD023689B0715D4099BE06816
:1040E0009842A5DA1800A3E7220001230699059853
:1040F000079E1932B047431C98D00135E368099AEE
:104100009B1AAB42F0DCE9E70025F7E729460000FF
:104110003A460000002370B5064D040008002B60ED
:1041200000F07AF8431C03D12B68002B00D02360E9
:1041300070BDC04698060020C9B28218904201D1D5
:104140000020704703788B42FBD00130F6E710B5B2
:10415000884202D98B18984203D3002307E08B5C76
:104160008354013AFBD210BDCC5CC45401339A4253
:10417000FAD1F8E710B50248FFF703FC10BDC046BE
:104180009C06002010B50248FFF7FCFB10BDC0469E
:104190009C060020F7B507000E001400002905D189
:1041A0001100FFF75DFC05002800FEBD002A03D1C9
:1041B000FFF7EAFB2500F7E700F01BF801908442C7
:1041C00003D835004308A342EED321003800FFF79F
:1041D00047FC051EE8D0019B22009C4200D91A0032
:1041E00031002800FFF794FB31003800FFF7CCFBCB
:1041F000DAE70B1F1B68181F002B01DA0B58C018D9
:104200007047000003B47146490840004900095E48
:1042100049008E4403BC7047044A0300106800281C
:1042200002D0C318136070470148FAE7A8060020BF
:10423000B0060020FEE7C046F8B5C046F8BC08BC92
:104240009E467047F8B5C046F8BC08BC9E4670470D
:10425000BE0800008A0900008A0900008A090000DF
:104260008A0900008A0900008A0900008A09000002
:10427000FE0800008A0900008A0900008A0900007F
:104280008A0900008A0900008A0900008A090000E2
:10429000D60800008A0900008A0900008A09000087
:1042A0008A0900008A0900008A0900008A090000C2
:1042B000E20800008A0900008A0900008A0900005B
:1042C0008A0900008A0900008A0900008A090000A2
:1042D000F40800008A0900008A0900008A09000029
:1042E0008A0900008A0900008A0900008A09000082
:1042F000E2080000001BB700008000000000000082
:104300000000000000000000102700000000000076
:1043100000366E011201100102000040160402B0C6
:10432000000301020301000009024300020100C072
:1043300032090400000102020100052400100105F9
:10434000240100010424020005240600010705835E
:104350000308000109040100020A000000070581AA
:1043600002400000070502024000000004030904A7
:1043700010034E00750076006F0074006F006E0031
:1043800020035500530042002000560069007200CF
:104390007400750061006C00200043004F004D0068
:1043A0001A03410030003200300031003400300088
:1043B00039003000330030003500000014430000A5
:1043C0002843000000000020000000000000000062
:1043D00000000000000000004932434661696C00A3
:1043E0004272644E45786920000000004261744EBC
:1043F00045786920000000004368726745727220AA
:1044000000000000436872675072632000000000E3
:1044100043687267446F6E200000000025376420F7
:104420000000000025233758200000004E554D4263
:10443000455220203A2020202020202030202020FB
:104440002020202031202020202020203220202049
:104450002020202033202020202020203420202035
:1044600020202020350000005354415445202020B6
:104470003A200000564F4C54414745203A20000056
:1044800043555252454E54203A20000054454D5059
:10449000202020203A2000004341504143495459F4
:1044A0003A20000053544154555320203A20000034
:1044B00053414645545920203A2000000000000096
:1044C000040000000C0000002400000000000000B8
:1044D000040000002C000000D82E0000142D000065
:1044E000302D0000142E0000D82E0000D82E000021
:1044F000D82E0000D82E0000D82E0000D82E0000A4
:10450000D82E0000D82E0000D82E0000D82E000093
:10451000D82E0000982E0000D82E0000D82E0000C3
:10452000D82E0000D82E0000D82E0000D82E000073
:10453000D82E0000D82E0000D82E0000D82E000063
:10454000D82E0000D82E0000D82E0000D82E000053
:10455000D82E0000D82E0000D82E0000862D000096
:10456000B82D000040320000D03000004032000082
:10457000D8310000403200008E310000403200008F
:104580004032000040320000AC31000040320000F8
:1045900014320000001BB7000080000000D8B805EE
:1045A00010270000006CDC02006CDC020000000040
:1045B00000366E01600000200000000000000000D6
:1045C00000000000000000000000000000000000EB
:1045D00000000000000000000000000000000000DB
:1045E00000000000000000000000000000000000CB
:1045F00000000000000000000000000000000000BB
:1046000000000000000000000000000000000000AA
:104610000000000000000000232D302B2000686CFB
:104620004C006566674546470030313233343536D5
:10463000373839414243444546003031323334350E
:104640003637383961626364656600000000000037
:08465000B8BAFF7F0100000071
:104658006C4300007043000080430000A04300004A
:1046680000C2010000000800504200508C42005077
:1046780084420050B4420050AC420050A442005062
:10468800544200508842005080420050B0420050CE
:10469800A8420050A0420050AC0D000008000000E5
:1046A80000D8B8056000000000D8B80560000020F8
:1046B80000000000D8450000F8450000B84500009B
:1046C80000000000000000000000000000000000E2
:1046D80000000000000000000000000000000000D2
:1046E80000000000000000000000000000000000C2
:1046F80000000000000000000000000000000000B2
:1047080000000000000000000000000000000000A1
:08471800E9000000C1000000EF
:04000003000035E9DB
:00000001FF
