:100000000020002071320000B93200006D2600008F
:1000100000000000000000000000000000000000E0
:10002000000000000000000000000000B9320000E5
:100030000000000000000000B9320000B9320000EA
:10004000B9320000B9320000B9320000B932000004
:100050000D220000B9320000B9320000B9320000B0
:10006000B9320000B9320000B9320000B5210000F9
:10007000B932000000000000B932000000000000AA
:100080000000000000000000B9320000B93200009A
:10009000B9320000B9320000B9320000E10C0000B2
:1000A00000000000B9320000B9320000000000007A
:1000B000B9320000B9320000B9320000000000007F
:1000C00010B5064C2378002B07D1054B002B02D02E
:1000D000044800E000BF0123237010BDC8000020C9
:1000E00000000000C0420000044B10B5002B03D0FC
:1000F0000349044800E000BF10BDC04600000000F6
:10010000CC000020C0420000402292029A1A92467F
:100110007047C046174B002B00D1134B9D46FFF78D
:10012000F3FF00218B460F461348144A121A03F0BE
:1001300034FA0E4B002B00D098470D4B002B00D00B
:1001400098470020002104000D000D48002802D02F
:100150000C4800E000BF03F0F3F92000290002F092
:1001600079F803F0D7F9C04600000800000000004D
:100170000000000000200020C800002070060020C1
:10018000000000000000000080B586B000AFF860FD
:10019000B9607A6000237B611BE001227B699A4091
:1001A00013001A00BB68134010D0FB681B687A6903
:1001B0005200032191400A00D2431A407B695B0040
:1001C000796899400B001A43FB681A607B69013318
:1001D0007B617B690F2BE0D9C046C046BD4606B0A7
:1001E00080BD80B584B000AFF860B9607A60FB680C
:1001F0009A697B68190EBB6899400B001A43FB682B
:100200009A61FB68DA697B681B02190ABB6899402E
:100210000B001A43FB68DA61C046BD4604B080BDDE
:1002200080B584B000AF78603960164B1A6813004F
:100230009B009B185B001A003B689B001900100094
:1002400003F0DCF8030005330A21180003F0D6F8A8
:100250000300013BFB607B68FA681A617B681B68DE
:1002600040221A437B681A60064B1A68FB68013308
:100270009B001900100003F0C1F803001800BD46F0
:1002800004B080BD5000002080B584B000AF78601D
:1002900008001100FB1C021C1A70BB1C0A1C1A70FF
:1002A0000F23FB1801221A700E23FB1800221A706C
:1002B0000D23FB1800221A70434B00221A607B6842
:1002C0001B6828221A437B681A6066E03F4B1B6854
:1002D0001B09BB600EE0BB68013BBB60BB68002B29
:1002E00008D1394B012252421A600E23FB18012219
:1002F0001A7004E07B681B6808221340EBD07B680F
:10030000DB68302B1BD02CD8282B21D029D8202BD0
:1003100015D026D8082B02D0182B0BD021E0FB1CBF
:100320001B785B001A007B689A600D23FB1808227B
:100330001A7027E0BB1C1A787B689A6022E00D23B4
:10034000FB1818221A700E23FB1801221A7019E0EC
:100350000D23FB1818221A700F23FB1800221A70A5
:1003600010E07B681B683C22934318221A437B6889
:100370001A600D23FB1808221A700E23FB180122A5
:100380001A70C0467B681B683C2293431A000D23F9
:10039000FB181B781A437B681A600F23FB181B7825
:1003A000002B04D00E23FB181B78002B8ED00E23BD
:1003B000FA180F23FB1812781B781343DBB21800CE
:1003C000BD4604B080BDC046E400002050000020BF
:1003D00080B588B000AFF860080011007B600B2387
:1003E000FB18021C1A700A23FB180A1C1A701F2320
:1003F000FB1801221A701E23FB1800221A701D23FD
:10040000FB1800221A700023BB61464B00221A60C1
:10041000FB681B6828221A43FB681A6072E0424B93
:100420001B681B097B610AE07B69013B7B617B697F
:10043000002B04D13B4B012252421A6004E0FB68BE
:100440001B6808221340EFD0FB68DB68302B1DD0FF
:100450003CD8282B23D039D8202B17D036D8082BBE
:1004600002D0182B0CD031E00B23FB181B785B005B
:100470001A00FB689A601D23FB1808221A7036E0E8
:100480000A23FB181A78FB689A6030E01D23FB18DA
:1004900018221A701E23FB1801221A7027E0BA696D
:1004A000BB6A9A4209D2BB695A1CBA617A68D318EE
:1004B0001B781A00FB689A6019E01D23FB181822AC
:1004C0001A701F23FB1800221A7010E0FB681B68CB
:1004D0003C22934318221A43FB681A601D23FB1821
:1004E00008221A701E23FB1801221A70C046FB68EE
:1004F0001B683C2293431A001D23FB181B781A43E8
:10050000FB681A601F23FB181B78002B05D01E23E5
:10051000FB181B78002B00D181E7BB691800BD4692
:1005200008B080BDE40000205000002080B588B0F5
:1005300000AFF8607A603B600B23FB180A1C1A704E
:100540001F23FB1801221A701E23FB1800221A70A9
:100550001D23FB1800221A700023BB61504B0022A0
:100560001A60FB681B6828221A43FB681A6086E041
:100570004C4B1B681B097B610AE07B69013B7B617B
:100580007B69002B04D1464B012252421A6004E0E1
:10059000FB681B6808221340EFD0FB68DB68582B10
:1005A0003FD050D8502B24D04DD8482B18D04AD803
:1005B000082B02D0402B0ED045E00B23FB181B78F4
:1005C0005B00012213431A00FB689A601D23FB188D
:1005D00008221A7048E01D23FB180C221A7043E011
:1005E0001D23FB1818221A701E23FB1801221A70F3
:1005F0003AE0FB689968BB695A1CBA617A68D318FB
:10060000CAB21A703B68013BBA699A4204D21D23F0
:10061000FB180C221A7027E01D23FB1808221A7001
:1006200022E0FB689968BB695A1CBA617A68D318E2
:10063000CAB21A701D23FB1818221A701F23FB1848
:1006400000221A7010E0FB681B683C2293431822BA
:100650001A43FB681A601D23FB1808221A701E2318
:10066000FB1801221A70C046FB681B683C229343AA
:100670001A001D23FB181B781A43FB681A601F23FE
:10068000FB181B78002B05D01E23FB181B78002BB2
:1006900000D16DE7BB691800BD4608B080BDC046FB
:1006A000E40000205000002080B588B000AFF86062
:1006B000080011007B600B23FB18021C1A700A2330
:1006C000FB180A1C1A701F23FB1801221A701E2324
:1006D000FB1800221A701D23FB1800221A70002339
:1006E000BB61684B00221A60FB681B6828221A4312
:1006F000FB681A60B5E0644B1B685B097B610AE02C
:100700007B69013B7B617B69002B04D15D4B01223E
:1007100052421A6004E0FB681B6808221340EFD0C5
:10072000FB68DB68582B00D16DE000D97DE0502BD1
:1007300051D000D979E0482B44D000D975E0302B56
:100740000AD8082B00D270E0083B282B6DD89A00FD
:100750004E4BD3181B689F46402B2ED065E00B23D1
:10076000FB181B785B001A00FB689A601D23FB18BE
:1007700008221A706AE00A23FB181A78FB689A604C
:1007800064E01D23FB1818221A701E23FB18012297
:100790001A705BE01D23FB1828221A7056E00B2309
:1007A000FB181B785B00012213431A00FB689A6058
:1007B0001D23FB1808221A7048E01D23FB180C2289
:1007C0001A7043E01D23FB1818221A701E23FB1811
:1007D00001221A703AE0FB689968BB695A1CBA6139
:1007E0007A68D318CAB21A70BB6A013BBA699A42D6
:1007F00004D21D23FB180C221A7027E01D23FB18BE
:1008000008221A7022E0FB689968BB695A1CBA6119
:100810007A68D318CAB21A701D23FB1818221A70EE
:100820001F23FB1800221A7010E0FB681B683C2293
:10083000934318221A43FB681A601D23FB180822F1
:100840001A701E23FB1801221A70C046FB681B6831
:100850003C2293431A001D23FB181B781A43FB68A4
:100860001A601F23FB181B78002B05D01E23FB18D2
:100870001B78002B00D13EE7BB691800BD4608B0CD
:1008800080BDC046E400002050000020C83E0000AB
:1008900080B588B000AFF860B9607A60FB68180076
:1008A00000F02EF903007B610023FB610023BB6194
:1008B0007B695B087A689A4202D90223FB6113E0E4
:1008C0007968786902F09AFD0300FB61FB691B0EF1
:1008D000BB61BB69002B07D0BB6901331900F86904
:1008E00002F08CFD0300FB61BA68BB691A43FB6828
:1008F0001A60FB68FA695A60BB690133FA695343AD
:100900001900786902F07AFD03001800BD4608B0AE
:1009100080BD000090B58BB000AF786039607B6817
:10092000180000F0EDF803007B6200233B62002317
:100930003B617B6800221A607B6800225A617B6AF7
:10094000694A93420ED83A68FA239B009A4202D22F
:10095000FA239B003B603B68634A93420DD9624B8C
:100960003B600AE03B68632B01D864233B603B6833
:100970005D4A934201D95C4B3B607B6A5A4A934281
:1009800015D800233B62796A584802F037FD03000E
:10099000FB603A6813005B019B1A9B009B18DB000D
:1009A000F968180002F02AFD0300BB614EE07B6A83
:1009B0004F4A934205D907233B627B6ADB087B627F
:1009C00012E07B6A4B4A934205D903233B627B6A60
:1009D0009B087B6208E07B6A474A934204D9012363
:1009E0003B627B6A5B087B623B68F92B09D83B68FA
:1009F0007A6A53433C49180002F000FD0300BB61D2
:100A000024E07B6A3849180002F07EFD0B1E0AD1F3
:100A10007B6A3549180002F0F1FC03001A003B68BC
:100A20005343BB6112E0796A304802F0E7FC0300EF
:100A3000FB603A6813005B019B1A9B009B18DB006C
:100A4000F968180002F0DAFC0300BB617B68BA6940
:100A50005A603B6A8022D2051A437B681A60274B92
:100A60001B68796A180002F0C9FC03000133FB61BE
:100A700003E0C046FB69013BFB61FB69002BF8D139
:100A80001E4B1C687B68180000F03AF80300190040
:100A9000200002F0B3FC03001A003B6A0133534309
:100AA000FB617B68DB687B6112E07B68DB687A69ED
:100AB0009A4208D13B695A1C3A61FA699A4207D2B4
:100AC00001235B420BE000233B617B68DB687B61B9
:100AD0007B681A6880239B041340E6D1002318002A
:100AE000BD460BB090BDC04640420F0000CA9A3BC5
:100AF0000090D0030048E8010024F40050000020DA
:100B000090B58DB000AF78600823FB182A4A13CA4D
:100B100013C313CA13C303CA03C37B68274A934290
:100B200006D1274B5B691B0A07221340FB6222E0B8
:100B30007B68244A934206D1214B5B691B0B072239
:100B40001340FB6217E07B681F4A934206D11C4B9F
:100B50005B691B0C07221340FB620CE07B681B4A9D
:100B6000934206D1164B5B691B0D07221340FB62B3
:100B700001E000231BE0FB6A022B11D17B680F4AC6
:100B8000934203D07B680F4A934204D101F024FCC6
:100B90000300BB620AE001F035FC0300BB6205E024
:100BA0000823FB18FA6A9200D358BB62BB6A18008C
:100BB000BD460DB090BDC0466C3F00000000014036
:100BC00000020050200001400000114020001140B0
:100BD00080B582B000AF0200FB1D1A70FB1D1B78B0
:100BE0007F2B09D8064BFA1D127811001F220A40EC
:100BF000012191400A001A60C046BD4602B080BD86
:100C000000E100E080B582B000AF0200FB1D1A7069
:100C1000FB1D1B787F2B0ED80949FB1D1B781A0082
:100C20001F23134001229A40130080228B50BFF3F0
:100C30004F8FBFF36F8FC046BD4602B080BDC04628
:100C400000E100E080B584B000AFF860B9607A6080
:100C500007E0FB685A1CFA60BA68511CB960127848
:100C60001A707B685A1E7A60002BF2D1C046BD46CE
:100C700004B080BD80B586B000AF0200FB1D1A70C5
:100C800000237B6121E07B691B01134A9446634486
:100C90003B613B691B68FB60FB680F221A40FB1D30
:100CA0001B789A420ED17B691B010C4A944663441F
:100CB0003B613B691B68FB603B69FA6802210A43A0
:100CC0001A6005E07B6901337B617B69072BDADD04
:100CD000C046BD4606B080BD080506400C0506406E
:100CE00080B582B000AF654B5B687B60634B1B696E
:100CF0000F2213403B607B680422134014D05F4BEB
:100D000004225A605D4B5B690122134006D05B4BA5
:100D10005A4A126990210A431A6105E0574B574A13
:100D2000126980218A431A617B680122134025D011
:100D3000524B01225A603B68012213400AD04F4BAC
:100D40004E4A126990210A431A6102F043FA4C4B51
:100D500000221A603B680222134005D0474B474AE5
:100D6000126910218A431A613B680422134005D09E
:100D7000424B424A126990210A431A617B68082259
:100D8000134002D03D4B08225A607B680222134078
:100D900000D16FE07B68002B11DA384B80221206FD
:100DA0005A60384B374A126801210A431A60364BA1
:100DB000354A126801210A431A6001F07DFD7A6804
:100DC00080235B02134005D02C4B802252025A60D4
:100DD00002F00EF97A6880239B02134010D0274B53
:100DE000802292025A6002F09BF9284B5B78202BFC
:100DF00006D1264B1B79002B02D1002000F052F9BE
:100E00007A688023DB02134005D01C4B8022D2027B
:100E10005A6000F03DF87A6880231B03134005D028
:100E2000164B802212035A6000F03CF87A68802347
:100E30005B03134003D0114B802252035A607A683F
:100E400080239B03134003D00C4B802292035A60F3
:100E50007A688023DB03134003D0084B8022D2033F
:100E60005A607A6880231B04134003D0034B80220E
:100E700012045A60C046BD4602B080BD0000064064
:100E8000E80000200C0506401C0506401006002066
:100E900080B500AF024B00221A60C046BD4680BD3F
:100EA000F405002080B500AF124BDA68E0231B0385
:100EB0001A40114B1B689A4203D1104B40221A6012
:100EC00015E00E4B1A680E4B1A600E4B1B680E4A4B
:100ED000944663441A000D4B1A60064BDA68E0230F
:100EE0001B031A40044B1A60094B01221A70C046BA
:100EF000BD4680BD00000640E800002034050640E5
:100F0000F00500203005064000010640EC050020F9
:100F1000F805002080B500AF144B00229A61144BF5
:100F2000902292001A60134B08221A60124B8822FA
:100F300092001A60114B08221A60114B41221A606C
:100F4000104B48221A60104B22221A600F4B882245
:100F50001A600F4B40221A600E4B43221A600E4B50
:100F6000C8221A60C046BD4680BDC046000006408B
:100F70000805064000050640180506401005064015
:100F80002805064020050640380506403005064085
:100F900034050640480506404005064080B582B04D
:100FA00000AF3B00180001F077FC3B001B785BB200
:100FB000002B28DA3B005B78212B1CD13B001B79EE
:100FC000002B0AD1314B1B68314A94466344180008
:100FD000304B07221900FFF735FE2F4B2E4A1268BF
:100FE00080210A431A602D4B07221A60002100203D
:100FF00002F076F846E00020FFF73CFE0120FFF704
:1010000039FEC0463EE03B005B78202B20D0222BEF
:1010100031D13B001B79002B10D13B00DB789AB219
:101020001F4B1A801E4B1B881B021AB23B009B7879
:101030001BB213431BB29AB2194B1A80164B164AB5
:10104000126880210A431A60144B00221A6019E0CA
:101050003B001B79002B04D10E4B0721180002F036
:101060003FF80D4B0C4A126880210A431A600B4B63
:1010700000221A6006E00020FFF7FCFD0120FFF7C8
:10108000F9FDC046C046BD4602B080BD0005064021
:101090000001064010000020080506400405064037
:1010A000F400002090B585B000AF0200FB1D1A705F
:1010B000FB1D1B78002B00D085E00023BB600C20BB
:1010C000FFF7A0FD424B00221A80424B00221A80FB
:1010D000414B00221A80414B00221A80404B0022D3
:1010E0001A80404B00221A803F4B06229A603F4BE9
:1010F0001B685B083E4A9A183C4B1B68190010009D
:1011000002F07CF90300023BBB60BB68394A9342A2
:1011100011D9354C354B1B68374A94466344DA0085
:10112000324B1B681900100002F068F903001B091C
:10113000023B636205E02C4BBA68C02189050A4373
:101140005A622A4B5B79002B02D10023FB600FE02F
:10115000264B5B79012B02D10823FB6008E0234B6F
:101160005B79022B02D11823FB6001E00023FB60B6
:101170001E4B9B79062B08D002DC052B14D014E003
:10118000072B07D0082B0AD00FE0FB68012213437E
:10119000FB600AE0FB6802221343FB6005E0FB688A
:1011A00003221343FB6000E0C046104B1B79002B69
:1011B00003D0FB6804221343FB600B4BFA68DA6030
:1011C0000C20FFF705FDC046BD4605B090BDC046EA
:1011D000A0050020A2050020A4050020A6050020EF
:1011E000A8050020AA0500200000054010000020EE
:1011F00000366E01FFFF0000C0C62D0080B582B032
:1012000000AF0200FB1D1A70FB1D1B787F2B09D855
:10121000FB1D1B781A001F231A40044B012191402B
:101220000A001A60C046BD4602B080BD00E100E081
:1012300080B500AFA023DA0580235B005921D1508F
:10124000A023DA0580235B001621D150A023DA0504
:1012500080235B008821D150A023DA0580235B0026
:10126000D358002BE6D0C046C046BD4680BD80B5F1
:1012700000AFA023DA0580235B000021D150C046D7
:10128000BD4680BD80B582B000AF78607B681B68CA
:101290008022D2051A437B681A60C046BD4602B060
:1012A00080BD000080B582B000AF78607B681B68AD
:1012B000034A1A407B681A60C046BD4602B080BD32
:1012C000FFFFFFBF80B582B000AF78607B681B680E
:1012D000802292051A437B681A60C046BD4602B060
:1012E00080BD80B582B000AF78607B689B680122CA
:1012F00013405A1E9341DBB21800BD4602B080BDB8
:1013000080B582B000AF78607B6801229A60C046E9
:10131000BD4602B080BD80B584B000AFF860B96052
:101320007A6007E0BA68531CBB60FB68591CF9601F
:1013300012781A707B685A1E7A60002BF2D1C04670
:10134000C046BD4604B080BD80B500AF024B002250
:101350001A60C046BD4680BD0040004080B500AF69
:10136000042001F005F9102001F048F900210420C3
:1013700001F05EF8204B00220021180001F096F8E1
:10138000E023DB021D480022190001F08FF8E02362
:10139000DB031B480022190001F088F8164B1800E7
:1013A00001F000F9164B180001F0FCF8154B18007D
:1013B00001F0F8F8114B180001F0F4F801F0D0FF3B
:1013C000A023DB055A6BA023DB050F490A405A63B3
:1013D000A023DB055A6BA023DB05882149010A43C2
:1013E0005A630A4B5A6A094BC02109010A435A62DF
:1013F000C046BD4680BDC0469B3C80720400005F75
:101400000500405F09000040FF00FFFF0040005062
:1014100080B584B000AF344B1B68002B60D1334BD8
:101420001B889BB2002B52D0304B1B889BB2BB60F9
:10143000BB68402B01DD4023BB600023FB601BE049
:101440002B4B1B889AB28023DB009A4202D3284B95
:1014500000221A80264B1B889BB25A1C91B2244A48
:1014600011801A00234B995C234AFB68D3180A1C8D
:101470001A70FB680133FB60FA68BB689A42DFDBD5
:1014800001233B603B6883F31088C046174B1B88E1
:101490009AB2BB689BB2D31A9AB2144B1A8000233B
:1014A0007B607B6883F31088C046BA680E4B1A6075
:1014B000124B1B68124A944663441800BA680E4BDC
:1014C0001900FFF728FF0F4BBA681A6008E00D4BB0
:1014D0001B68BB60BB68402B02D10A4B00221A601C
:1014E000C046BD4604B080BDF4050020A005002024
:1014F000A2050020A0010020AC0500202005064028
:10150000000106402405064080B584B000AF786035
:101510000023FB602AE01C4B1B889AB28023DB006F
:101520009A4220D2FB687A68D31800215956174B8B
:101530001B889BB25A1C90B2144A10801A00C9B280
:10154000134B9954114B1B889AB28023DB009A42AB
:1015500002D30E4B00221A800B4B1B889BB2013327
:101560009AB2094B1A80FB680133FB607B68180054
:1015700002F03CF80200FB689A42CCD8C046C04654
:10158000BD4604B080BDC046A0050020A4050020D3
:10159000A001002080B500AF184B1B889AB28023B1
:1015A000DB009A4226D2164B1B889BB25A1C91B282
:1015B000134A11801A00134B0D219954104B1B88AC
:1015C0009BB25A1C91B20E4A11801A000D4B0A218F
:1015D00099540B4B1B889AB28023DB009A4202D3AA
:1015E000074B00221A80054B1B889BB201339AB22D
:1015F000024B1A80C046BD4680BDC046A0050020F3
:10160000A4050020A001002080B584B000AF786060
:1016100033E0224B1800FFF735FE204B1421180051
:10162000FFF778F91E4B00221A601C4B142118009A
:10163000FFF770F91A4B01221A600F217B181A78F4
:101640007B1801321A700FE0FFF7A4FF154B18004A
:10165000FFF75AFFFFF79EFFFFF7DAFE124A0F4B24
:1016600011001800FFF756F90F23FB181B78042B05
:10167000EAD80A4B1800FFF715FE01227B689A4052
:101680001300DBB209481A007021FEF7FDFD031EAE
:10169000BFD1C046C046BD4604B080BD0000114069
:1016A000CC4200505040000040420F000000124069
:1016B00080B582B000AF00237B6039E0204B1B78FF
:1016C0001A007B681A411300DB005BB2082213404A
:1016D0005AB21C4B1B7819007B6819410B009B0008
:1016E0005BB204210B405BB213435BB2DAB2164B20
:1016F0001B7819007B6819410B005B00DBB20221EB
:101700000B40DBB2D318DAB2104B1B7819007B68A0
:1017100019410B00DBB201210B40DBB2D318D9B267
:101720000B4A7B68D3180A1C1A707B6801337B60F4
:101730007B68052BC2DDC046C046BD4602B080BDF9
:1017400056010020570100205801002059010020B7
:101750005C01002080B582B000AF00237B60E3E035
:10176000774A7B68D3181B78072B51D8754B7A685A
:101770009200D3581B68002B0BD0734A7B68D31898
:101780001B780133D9B2704A7B68D3180A1C1A70CF
:101790000AE06E4A7B68D3181B780133D9B26B4AD2
:1017A0007B68D3180A1C1A70684A7B68D3181B78A8
:1017B000032B05D0644A7B68D3181B78022B15D104
:1017C000604B7A689200D3581A685E4B796889003A
:1017D000CB5801214A401A605B4A7B68D31800222B
:1017E0001A705A4A7B68D31800221A70584B7A68CC
:1017F0009200D35801221A607B68DA00554BD21848
:10180000554B1000190008231A0001F0BDFE88E0B6
:101810004B4A7B68D3181B780B2B1DD8484A7B6832
:10182000D3181B78072B17D9494B7A689200D358E5
:1018300001221A60434B7A689200D35801221A6041
:101840007B68DA00434BD218444B10001900082380
:101850001A0001F099FE64E0394A7B68D3181B78BE
:101860000D2B23D8364A7B68D3181B780B2B1DD938
:10187000374B7A689200D35801221A60314B7A684C
:101880009200D3581A682F4B79688900CB580121F0
:101890004A401A607B68DA002E4BD218304B100099
:1018A000190008231A0001F06FFE3AE0244A7B6811
:1018B000D3181B780E2B17D1254B7A689200D3587A
:1018C00001221A601F4B7A689200D35800221A60D6
:1018D0007B68DA001F4BD218224B10001900082336
:1018E0001A0001F051FE1CE0154A7B68D3181B78E2
:1018F0000F2B16D1164B7A689200D35800221A602B
:10190000104B7A689200D35801221A607B68DA0083
:10191000104BD218144B1000190008231A0001F0C4
:1019200033FE7B6801337B607B68052B00DC17E7A7
:10193000084B302200219954C046BD4602B080BDFC
:101940005C01002030000020FC050020040600207F
:10195000180000206401002058400000644000008E
:10196000704000007C4000008840000090B585B0C9
:1019700000AF0200FB1D1A70BB1D0A1C1A70BB1DB4
:101980001A78FB1D1B7814481900FEF77DFC134BD9
:1019900014211800FEF7BEFF0C243A190E4802234A
:1019A0000B21FEF7C3FD20003B181B7899B23B18B2
:1019B0005B789BB21B029AB20E243B198A181A80DC
:1019C0003B1802220021180001F0E7FD3B191B889B
:1019D0001800BD4605B090BD000012400000114047
:1019E00080B582B000AF00237B604DE17B681800BA
:1019F000FFF70AFEA94B1B781A007B681A411300F7
:101A00000122134013D0A64B1B781A007B681A41A1
:101A10001300012213400AD0A24B1B781A007B68E6
:101A20001A4113000122134001D1012200E00022DB
:101A3000FB1C1A701A7801210A401A70FB1C1B78D3
:101A4000002B00D1FAE0984B00220B211800FEF782
:101A50001BFC031E33D0954B7A6852009449D15237
:101A6000944B7A685200FA214900D152924B7A681D
:101A700052008F49D152914B7A685200FA214900A5
:101A8000D1528F4A7B68D31800221A7001227B68DA
:101A90009A4013005AB28B4B1B785BB213435BB274
:101AA000DAB2884B1A70884A7B68D3181B780133E6
:101AB000D9B2854A7B68D3180A1C1A70E1E0092163
:101AC0000B20FFF753FF03001900784B7A68520090
:101AD000D1520A210B20FFF749FF030019B2754BC1
:101AE0007A685200D15208210B20FFF73FFF030014
:101AF0001900764B7A685200D15216210B20FFF75D
:101B000035FF03001900724B7A685200D1520D2143
:101B10000B20FFF72BFF0300D9B2694A7B68D3186B
:101B20000A1C1A70694B7A685200D35A694A934268
:101B300019D9614B7A6852000021D1525F4B7A6803
:101B400052000021D15201227B689A4013005BB2FF
:101B5000DB435BB25B4A127852B213405BB2DAB23B
:101B6000584B1A708DE0564A7B68D3181B78612B4E
:101B700024D8504B7A685200D35E002B1EDC15210E
:101B80000B20FFF7F3FE030019004B4B7A6852005D
:101B9000D1524A4B7A6852004F49D15201227B6898
:101BA0009A4013005BB2DB435BB2464A127852B2F2
:101BB00013405BB2DAB2434B1A7062E015210B207E
:101BC000FFF7D4FE030019003B4B7A685200D15254
:101BD0003A4B7A6852004049D15201227B689A40C0
:101BE00013005AB2374B1B785BB213435BB2DAB2C5
:101BF000344B1A70324A7B68D3181B78612B0DD98D
:101C000001227B689A4013005AB2344B1B785BB2B6
:101C100013435BB2DAB2314B1A7032E001227B68B7
:101C20009A4013005BB2DB435BB22C4A127852B28B
:101C300013405BB2DAB2294B1A7022E01B4B7A6870
:101C400052000021D1521B4B7A6852000021D15220
:101C50001E4B7A6852000021D152174B7A6852000D
:101C60000021D152154B7A6852000021D152144AFA
:101C70007B68D31800221A70154B7A685200002135
:101C8000D1527B6801337B607B68052B00DCADE6BD
:101C9000C046C046BD4602B080BDC04656010020C9
:101CA000570100209E010020000012400801002082
:101CB000D840000014010020380100204401002019
:101CC0005001002058010020980100202001002030
:101CD0002C010020350D0000DC050000590100201A
:101CE00080B582B000AF1A4A1A4802232121FEF7BC
:101CF0001DFC174B1B78184A12781340DAB2174BA9
:101D00001A7000237B601AE0144B1B781A007B6862
:101D10001A411300012213400ED101227B689A4020
:101D200013005BB2DB435BB20D4A127852B2134030
:101D30005BB2DAB20A4B1A707B6801337B607B6856
:101D4000052BE1DDC046C046BD4602B080BDC046A1
:101D5000F80000200000124056010020570100202A
:101D60009E01002080B584B002AF00237B6048E074
:101D70007B681800FFF748FC3B00264802220092CF
:101D8000FF220921FEF790FC3B001B78302B2FD15E
:101D90003B005B78002B2BD101227B689A4013001B
:101DA0005AB21D4B1B785BB213435BB2DAB21A4BCB
:101DB0001A701A4B1748022200923F220921FEF79F
:101DC00007FB174B13480222009212220921FEF74B
:101DD0006BFC134B5B7860229343DAB2104B5A7062
:101DE0000F4B0C480222009212220921FEF7F0FA52
:101DF0003B0002220021180001F0CFFB7B68013379
:101E00007B607B68052BB3DDC046C046BD4602B093
:101E100080BDC0460000124056010020480000204E
:101E20000401002080B582B000AF7860184B7A685A
:101E30005200D35ADBB20F229343DBB2803BDAB2BB
:101E4000144B1A70124B7A685200D35A1B0A9BB279
:101E5000DBB27F221340DAB20E4B5A700E4B7A6817
:101E60005200D35ADBB23F229343DAB20B4B1A70C3
:101E7000094B7A685200D35A1B0A9BB2DBB21F226D
:101E80001340DAB2054B5A70C046BD4602B080BD61
:101E900038010020FC000020440100200001002047
:101EA00080B584B002AF00237B6023E0154B1B7824
:101EB0001A007B681A4113000122134017D07B6877
:101EC0001800FFF7A1FB7B681800FFF7ABFF0E4B74
:101ED0000E480222009215220921FEF779FA0C4BD6
:101EE0000A480222009214220921FEF771FA7B6847
:101EF00001337B607B68052BD8DDC046C046BD46FC
:101F000002B080BD56010020FC00002000001240FD
:101F10000001002090B587B000AF0200BB1D1A8001
:101F20007B1D0A1C1A707B1D1B78002B0AD1BB1D60
:101F30001A883B490823FB18180001F037FB0300FF
:101F40003B6135E07B1D1B78102B08D1BB1D1A8827
:101F500034490823FB18180001F028FB28E07B1DFA
:101F60001B780A2B24D1BB1D1B88002B08D1BB1D5D
:101F70001A882B490823FB18180001F017FB17E0FB
:101F8000BB1D1B88284A9A18254908243B191800AC
:101F900001F00CFB21007B1804229A567B18DA70A2
:101FA0007B1805229A567B181A717B182E225A71BB
:101FB00000237B612BE01D4B1B889AB28023DB0042
:101FC0009A4221D20823FA187B69D3180021595666
:101FD000174B1B889BB25A1C90B2154A10801A00EE
:101FE000C9B2144B9954124B1B889AB28023DB0060
:101FF0009A4202D30E4B00221A800C4B1B889BB2D4
:1020000001339AB2094B1A807B6901337B617B698A
:10201000072BD0DDC046C046BD4607B090BDC046C8
:10202000944000009C40000055F5FFFFA0050020F3
:10203000A4050020A001002080B586B000AF802359
:10204000DA004D4B0021180001F0A7FA4B4B00229B
:102050001A80FFF79FFA4A4B1800FFF755FAFFF76F
:1020600099FA484B1800FFF74FFA474B1800FFF753
:102070004BFAFFF78FFA454B1800FFF745FA00239C
:102080007B610AE0424B7A695200D35A0021180062
:10209000FFF740FF7B6901337B617B69052BF1DD35
:1020A000FFF778FA3B4B1800FFF72EFA00233B614D
:1020B00012E0394B3A695200D35E1A1C13B2002B5E
:1020C00001DA00231A1C13B29BB200211800FFF79B
:1020D00021FF3B6901333B613B69052BE9DDFFF7DC
:1020E00059FA2E4B1800FFF70FFA0023FB600AE0A5
:1020F0002B4BFA685200D35A0A211800FFF70AFF47
:10210000FB680133FB60FB68052BF1DDFFF742FA4A
:10211000244B1800FFF7F8F90023BB600BE0224ABC
:10212000BB68D3181B789BB200211800FFF7F2FEA2
:10213000BB680133BB60BB68052BF0DDFFF72AFAF3
:102140001A4B1800FFF7E0F900237B600AE0184BF8
:102150007A685200D35A10211800FFF7DBFE7B6823
:1021600001337B607B68052BF1DDFFF713FAC04676
:10217000BD4606B080BDC046A0010020A4050020D9
:10218000A4400000E040000064010020EC4000009A
:1021900008010020F8400000140100200441000064
:1021A0002001002010410000500100201C410000CF
:1021B0002C01002080B500AF124B1800FFF791F8FA
:1021C0000300012B1AD10F4B1800FFF799F8FFF706
:1021D00007FCFFF765FEFFF76BFAFFF7BBFA0A4B48
:1021E0001B780133DAB2084B1A70074B1B78012BAE
:1021F00004D9054B00221A70FFF71EFFC046BD46EA
:1022000080BDC046200011409501002080B582B0FD
:1022100000AF0E4B1A6A8023DB01134006D00B4B34
:102220008022D2011A62FFF75BFD0BE0084B1B6AAC
:102230007B60074B7A681A62044B1B6A7B60034B16
:102240007A681A62C046BD4602B080BD4040005068
:102250000040005080B500AFFEF7EAFFFFF77EF8C0
:10226000FFF705F84F4B012201211800FDF78CFF05
:102270004C4B012202211800FDF786FF494B012239
:1022800004211800FDF780FF464B012208211800A9
:10229000FDF77AFF80235B00424801221900FDF719
:1022A00073FF80239B003F4801221900FDF76CFF5C
:1022B0008023DB003B4801221900FDF765FF8023E6
:1022C0001B01384801221900FDF75EFF80235B01E6
:1022D000344801221900FDF757FF80239B01314844
:1022E00001221900FDF750FF2F4B01221021180089
:1022F000FDF74AFF2C4B012220211800FDF744FF77
:102300002A492B4B0022180000F076FAFEF702FE55
:1023100000F0A4FA274B1A68274B1A60264B1A685C
:10232000264B1A60264B10225A601720FEF766FFD4
:10233000244A254B11001800FDF772FFFFF704F83F
:10234000FFF710FDFFF7CCFC204B022208211800FC
:10235000FDF71AFF1E4B01221A6080231B051D4842
:1023600001221900FEF794FA1A4B1800FEF7AAFF93
:102370000B20FEF743FF174B1800FEF783FF802367
:10238000DB01094800221900FDF7FEFE064B012281
:102390000E211800FDF725FF0420FEF72FFFFFF7A1
:1023A00037F8FCE780400050404000509D0F00008F
:1023B0003440000010010050EC000020F00000202C
:1023C000000006401027000000001240C0400050EE
:1023D000CC4200502000114080B500AF00F0C0FF9B
:1023E000064B1B694022134003D0054B1B685B085A
:1023F00001E0034B1B681800BD4680BD0002005081
:102400005000002080B500AF00F0AAFF064B1B690A
:102410008022134003D0054B1B685B0801E0034B8F
:102420001B681800BD4680BD00020050500000200F
:1024300080B584B000AF786039601B4BDB68102238
:102440001340FB60184B184A126804210A431A60B3
:10245000102000F0D3F8144B134A126907218A4365
:1024600004210A431A61104B0F4A92690F218A43D3
:1024700011003A680A439A610B4B0B4A1269072113
:102480008A4311007A680A431A6100F069FFFB6809
:10249000002B05D1044B044A126804218A431A60B8
:1024A000C046BD4604B080BD0002005090B58DB05E
:1024B00000AFF860B9607A60FB689B0AFF221340A6
:1024C00022D000237B62FB689B0C032213409B00FD
:1024D00030229446BC4463440C3B1B68214A94461A
:1024E0006344FB62FB6AFA6A1268F968890AFF2092
:1024F0000840F96849091F24214088400100C94368
:1025000011407A680A431A60FB685B0E0722134089
:1025100024D01423FB18144A13CA13C312681A6078
:10252000FB681B0F03221A401423FB189200D35898
:102530000E4A94466344BB62BB6ABA6A1268F96881
:10254000490E07200840F968090D1F2421408840E2
:102550000100C9431140BA680A431A60C046BD462B
:102560000DB090BD180200502C4100001002005028
:1025700080B582B000AF7860094B1A687B6813435E
:1025800003221340032B06D0054B054A11687A68D5
:102590000A431A6000E0C046BD4602B080BDC04696
:1025A0000002005090B587B000AF78600C23FB1894
:1025B000104A13CA13C37B689A0F0C23FB189200AE
:1025C000D3580D4A944663447A68910F0C22BA1886
:1025D00089008A5808498C466244126879681F202D
:1025E00001400120884001000A431A60C046BD46F0
:1025F00007B090BD3C4100000402005080B584B09B
:1026000000AF7860124B1B689B08FB600123BB6026
:10261000104B00221A6008E0FB68013BFB60FB687E
:10262000002B02D10023BB6006E00B4BDB687A680D
:102630001A407B689A42EFD1FB68002B03D1054B0F
:10264000012252421A60BB681800BD4604B080BD2A
:10265000500000200C0600200002005080B582B01F
:1026600000AF7860C046BD4602B080BD80B500AF07
:102670007046EFF30881EFF30982034B9847004758
:10268000C046BD4680BD00008D26000080B586B0E6
:1026900000AFF860B9607A60FB680422134002D092
:1026A0007B687B6101E0BB687B617B691800FFF799
:1026B000D5FFFEE780B582B000AF78600C4A0D4BC5
:1026C0001B6879684B435360094B00229A60084BA2
:1026D00005221A60C046064B1A6880235B0213402D
:1026E000F9D0034B00221A60C046BD4602B080BD3F
:1026F00010E000E05400002080B584B000AFF86026
:10270000B9607A6007E0FB685A1CFA60BA68511C2D
:10271000B96012781A707B685A1E7A60002BF2D169
:10272000C046BD4604B080BD80B586B000AF020093
:10273000FB1D1A7000237B6121E07B691B01134A9A
:10274000944663443B613B691B68FB60FB680F2256
:102750001A40FB1D1B789A420ED17B691B010C4A63
:10276000944663443B613B691B68FB603B69FA68C4
:1027700002210A431A6005E07B6901337B617B69B2
:10278000072BDADDC046BD4606B080BD0805064011
:102790000C05064080B586B000AF0200FB1D1A7024
:1027A00000233B6119E03B691B01114A94466344D5
:1027B0007B617B691B68FB60FB680F221A40FB1D75
:1027C0001B789A4206D13B691B010A4A944663442E
:1027D0007B6105E03B6901333B613B69072BE2DD2F
:1027E0007B691B68022213401800BD4606B080BDFD
:1027F000080506400C05064080B584B000AFF860BF
:10280000B9607A60104BFA681A60104BBA681A60A7
:102810000F4B7A681A600C4B1B681B6807331B78D8
:102820001A000C4B1A600C4BFA22D2001A610A49AA
:10283000094A9023D3580122134390228B50C0465B
:10284000BD4604B080BDC0466C060020480600208E
:102850004C0600204C0000200000064080B500AF70
:102860000B4B1800FFF726FF0A490A4A9023D3585A
:102870000122934390228B50064B0F225A60054B46
:10288000044A12680F210A431A60C046BD4680BD43
:10289000A08601000000064080B582B000AF7860DD
:1028A00004497B6808221800FFF726FFC046BD4692
:1028B00002B080BD1006002080B500AF1E4B002284
:1028C0001A601E4B9B691E4A99181E4B082218005D
:1028D000FFF712FF1B4B1B781A0060231340202BBD
:1028E00006D0402B0CD0002B12D100F055F91FE080
:1028F000154B1B68002B18D0134B1B68984714E02E
:10290000124B1B68002B12D0104B1B6898470EE02F
:102910000F4B0F4A126802210A431A600D4B0D4AF1
:10292000126802210A431A6002E0C04600E0C04675
:10293000C046BD4680BDC04640060020000006409F
:102940000001064010060020480600204406002032
:102950000C0506401C05064080B584B000AF874BCF
:1029600000221A700023FB60854BDB79FB60FB685B
:102970001B02FB60824B9B791A00FB689B18FB6073
:102980007F4BDB78222B00D9E6E09A007D4BD318F1
:102990001B689F46FB68122B00D91223FB607A4B01
:1029A0001B681B68FA681100180000F0C9FAE0E023
:1029B000754B1B685B6803331B78BB60724B1B68ED
:1029C0005B6802331B781A00BB681B02D318BB601C
:1029D000FA68BB689A420DD9BB68FB606B4B1A68FA
:1029E000FB681100180000F08FFD0B1E02D1634B35
:1029F00001221A70644B1B685B68FA6811001800AA
:102A000000F09EFAB5E0FB68092B00D90923FB60B2
:102A10005D4B1B685A695A4B1B799B00D3181B6886
:102A20007B60594B1B685A687B68D318FA681100A1
:102A3000180000F085FA9CE0534B1B681A69504B54
:102A40001B799B00D3181A68FB689A4214D24E4B2C
:102A50001B681A694A4B1B799B00D3181B68FB60E3
:102A60004A4B1A68FB681100180000F04DFD0B1E60
:102A700002D1424B01221A70434B1B68DA68404B6B
:102A80001B799B00D3181B68FA681100180000F02E
:102A900057FA6EE03A4B9B78032B30D83A4B1B68C1
:102AA0009A68374B9B789B00D3181B681B781A00D9
:102AB000FB689A4215D2344B1B689A68304B9B785E
:102AC0009B00D3181B681B78FB60304B1A68FB68AF
:102AD0001100180000F018FD0B1E02D1274B012237
:102AE0001A70294B1B689A68254B9B789B00D3185A
:102AF0001B68FA681100180000F022FA39E0244B34
:102B0000234A126802210A431A60224B214A1268A2
:102B100002210A431A602CE01B4B1B689B69002BA7
:102B20000CD11B4B1A4A126802210A431A60194B36
:102B3000184A126802210A431A601AE0FB680C2B3B
:102B400000D90C23FB60104B1B689B69FA681100CD
:102B5000180000F0F5F90CE00D4B0D4A1268022147
:102B60000A431A600B4B0B4A126802210A431A608F
:102B7000C046C046BD4604B080BDC0463C060020ED
:102B800010060020484100006C0600204C00002088
:102B90000C0506401C05064090B585B000AFD34B30
:102BA00000221A60D24B00221A60D24B1B785BB213
:102BB000002B00DBC7E0CF4B5B78062B20D002DC7C
:102BC000002B3CD0B1E0082B02D00A2B1FD0ACE088
:102BD000C94B1B68C94A944663441A00C84B1B681A
:102BE000DBB21370C74BC74A126880210A431A60D0
:102BF000C54B01221A600021002000F071FA71E13A
:102C0000FFF7AAFE0021002000F06AFA6AE1BA4B41
:102C10001B68BA4A944663441A00BC4B1B68DBB27B
:102C20001370B84BB74A126880210A431A60B64B3A
:102C300001221A600021002000F052FA52E1AD4B4F
:102C40001B78802B36D10F23FB1800221A70B04B53
:102C50001B685B6807331B781A004023134007D0BA
:102C60000F23FB180F22BA18127801210A431A7099
:102C7000A74B1B685B6807331B781A00202313409F
:102C80000DD0A44B1B78DBB25B005AB20F23FB18AC
:102C90001B785BB213435AB20F23FB181A70964B82
:102CA0001B68964A944663441A000F23FB181B784E
:102CB000137025E08F4B1B78812B07D18E4B1B683F
:102CC0008E4A9446634400221A7019E0894B1B789F
:102CD000822B15D1874B1A79FB1D0F210A401A70E0
:102CE000854B1B68854A944663441C00FB1D1B787A
:102CF0001800FFF74FFD03005A1E9341DBB223700B
:102D00007D4B1B68844A9446634400221A707D4BB5
:102D10007C4A126880210A431A607B4B02221A60A7
:102D20000021002000F0DCF9DCE07C4B7B4A1268DB
:102D300002210A431A607A4B794A126802210A4337
:102D40001A60C046CEE06B4B5B780B2B00D9BCE021
:102D50009A00744BD3181B689F46664B9B78002BD8
:102D600049D1644B1B791A000F2313403B600023A9
:102D7000BB603CE06C49BA68A123DB0012018A18F1
:102D8000D3181B680F221A403B689A422CD10122AB
:102D9000BB689A4013001A00644B1B68134023D190
:102DA00061486149BB68624A1B01CB189B181B68CC
:102DB000022293431A00BB685D491B01C3185B18CC
:102DC0001A6059485849BA68A123DB0012018A18D1
:102DD000D3181B68802293431A00B968A123DB0033
:102DE00009014118CB181A60BB680133BB60BB688E
:102DF000072BBFD906E03F4B9B78012B02D1454BF7
:102E000000221A703F4B3F4A126880210A431A6021
:102E10003D4B00221A6065E0364B9B781A00454B0B
:102E20001A60384B374A126880210A431A60364BC1
:102E300000221A6056E02F4B9B781A00304B1A6024
:102E40003D4B1B68002B02D03B4B1B6898472D4B1A
:102E50002C4A126880210A431A602B4B00221A6008
:102E600040E0244B9B78002B08D1224B1B790F228A
:102E70001340DBB21800FFF757FC06E01D4B9B78B0
:102E8000012B02D1234B01221A701E4B1D4A1268DE
:102E900080210A431A601C4B00221A6022E0154B65
:102EA0009B781A00194B1A60244B1B68002B02D028
:102EB000224B1B689847134B124A126880210A4321
:102EC0001A60114B00221A600CE0144B134A12686E
:102ED00002210A431A60124B114A126802210A4366
:102EE0001A60C046C046BD4605B090BD1C06002015
:102EF00020060020100600200005064000010640C4
:102F00003406002008050640040506403806002067
:102F10006C06002018060020010106400C05064042
:102F20001C050640D4410000000006405406002065
:102F30000C05000030060020500600204C06002042
:102F400080B582B000AF78603960224B1B683A6868
:102F50009A4221D91F4B1B687A68D2181E4B1A60FF
:102F60001C4B1B683A68D21A1C4B1A601C4B1C4A3B
:102F7000126880210A431A601A4B1B681A4A981873
:102F8000144B1B681A007B681900FFF7B5FB174A42
:102F9000104B1B68136018E00F4B00221A600F4B98
:102FA00000221A600E4B0E4A126880210A431A60F2
:102FB0000C4B1B680C4A944663443A6879681800C5
:102FC000FFF79AFB094B3A681A60C046BD4602B04B
:102FD00080BDC0464C0000201C06002020060020BA
:102FE00008050640000506400001064004050640AD
:102FF00080B500AF304B1B68002B39D02E4B1A68C0
:103000002E4B1B689A421DD92D4B1B682D4A9818D0
:103010002D4B1968294B1B681A00FFF76DFB2B4AD3
:10302000264B1B681360254B1A68274B1B689A18A0
:10303000254B1A60214B1A681F4B1B689A1A1E4BAE
:103040001A6036E01E4B1B681E4A98181E4B196802
:10305000194B1B681A00FFF74FFB1C4A164B1B68E5
:103060001360194B00221A60134B00221A6020E0F3
:10307000174B1B78002B11D1154B5B78052B0DD10D
:10308000144B9A68144B1B689A4207D0114B9B68EB
:10309000002B03D10F4A104B1B6893600F4B1B781A
:1030A000DBB2002B05D0094B00221A600B4B00222B
:1030B0001A70C046BD4680BD200600204C0000208E
:1030C00000050640000106401C06002004050640DD
:1030D0001006002000000640300600203C060020BC
:1030E00080B582B000AF78603960084B7A681A60AA
:1030F000074B00221A60074B3A681A60064A074BD2
:103100001B681360C046BD4602B080BD2406002087
:10311000280600202C060020140506404C00002044
:1031200080B582B000AF224BDA68E0239B011A40E1
:10313000204B1B689A4233D01D4BDA68E0239B0179
:103140001A401C4B1A601C4B1A681C4B1B689A4295
:103150002AD21B4B1B687B601A4B1B681A4A944689
:1031600063443B60194B1B6839687A681800FFF7A5
:10317000C3FA164B1A687B68D218144B1A600E4BB0
:103180001A687B68D2180C4B1A600B4B1A680B4BF1
:103190001B689A4208D20A4A0D4B1B68136003E071
:1031A000074A0B4B1B681360C046BD4602B080BD8A
:1031B0000000064040060020280600202C060020C3
:1031C00014050640100506400001064024060020B4
:1031D0004C00002080B582B000AF1D4B00221A6069
:1031E0001C4B00221A601C4B00221A601B4B002251
:1031F0001A601B4B00221A601A4B00221A601A4BED
:1032000008220021180000F0C8F900237B6015E0B7
:10321000164816497A68A123DB0012018A18D318D0
:103220001B68802293431A007968A123DB000901FF
:103230004118CB181A607B6801337B607B68072BD1
:10324000E6DD0A4B00229A60C046BD4602B080BD52
:103250001C0600202006002024060020280600204E
:103260002C06002054060020100600200000064016
:103270000B490C4A0C4B9B1A03DD043BC858D05039
:10328000FBDC0A4859210160162101608821016098
:10329000074808490160054800210160FCF73AFF32
:1032A000CC42000000000020C800002000010050B7
:1032B00024000050A55A0000FEE7C04680B588B043
:1032C00000AF0023BB613B1D214A12681A60214BED
:1032D0001B6A7B617A69A023DB02134001D00023C3
:1032E00031E07A6988231B04134002D01A4BFB613A
:1032F00001E01A4BFB617A6980239B02134001D0E5
:10330000FB6920E07B699B0B032213403A1DD35CD1
:103310003B617B69DB05DB0D0233FB607B695B0A8C
:103320001F2213400233BB60FB699B08FA685A43B3
:103330001000BB683A695343190000F05FF80300BE
:103340009B00BB61BB691800BD4608B080BDC0468C
:10335000044200000002005000366E01001BB7005E
:1033600080B584B000AF1E4B1B6907221340BB60C1
:10337000FFF7A4FF02001B4B1A60BB68022B02D0B0
:10338000052B04D008E0174B1B68FB6009E0154BC8
:103390001B685B08FB6004E0134BBA689200D358CB
:1033A000FB600F4B9B690F22134001337B607968F0
:1033B000F86800F023F803001A000C4B1A600B4B5E
:1033C0001B680B4A944663440A49180000F016F83B
:1033D00003001A00084B1A60C046BD4604B080BD09
:1033E0000002005058000020084200005000002059
:1033F00020A1070040420F00540000200022430893
:103400008B4274D303098B425FD3030A8B4244D3AC
:10341000030B8B4228D3030C8B420DD3FF220902EE
:1034200012BA030C8B4202D31212090265D0030BAD
:103430008B4219D300E0090AC30B8B4201D3CB03A3
:10344000C01A5241830B8B4201D38B03C01A5241E5
:10345000430B8B4201D34B03C01A5241030B8B42E7
:1034600001D30B03C01A5241C30A8B4201D3CB02D2
:10347000C01A5241830A8B4201D38B02C01A5241B7
:10348000430A8B4201D34B02C01A5241030A8B42BA
:1034900001D30B02C01A5241CDD2C3098B4201D3D2
:1034A000CB01C01A524183098B4201D38B01C01A50
:1034B000524143098B4201D34B01C01A52410309C7
:1034C0008B4201D30B01C01A5241C3088B4201D376
:1034D000CB00C01A524183088B4201D38B00C01A23
:1034E000524143088B4201D34B00C01A5241411A4A
:1034F00000D20146524110467047FFE701B5002057
:1035000000F006F802BDC0460029F7D076E7704704
:103510007047C046084B10B50400002B02D00021B4
:1035200000E000BF054B1868836A002B00D0984765
:10353000200000F0BBFCC046000000002842000054
:1035400070B500260C4D0D4C641BA410A64209D189
:10355000002600F0ADFC0A4D0A4C641BA410A642E4
:1035600005D170BDB300EB5898470136EEE7B300C4
:10357000EB5898470136F2E7C0000020C000002059
:10358000C0000020C4000020002310B59A4200D1E2
:1035900010BDCC5CC4540133F8E703008218934299
:1035A00000D1704719700133F9E700000EB400B57F
:1035B0000B499CB01DAB02900690079104910948FD
:1035C000094904CB0591006802A9019300F05CF958
:1035D0000023029A13701CB008BC03B01847C04601
:1035E000FFFFFF7F5C0000200802FFFF0023C25C9A
:1035F0000133002AFBD1581E704770477047000006
:1036000070B50500002910D00C1F2368002B00DACC
:10361000E418280000F0EAFB1D4A1368002B05D1CE
:1036200063601460280000F0E9FB70BDA34208D974
:10363000216860188342F3D118685B6841182160E3
:10364000EEE71A005B68002B01D0A342F9D911689C
:103650005018A0420BD120680918501811608342FD
:10366000E0D118685B68411811605360DAE7A04246
:1036700002D90C232B60D5E721686018834203D15F
:1036800018685B684118216063605460CAE7C046EF
:103690006006002070B50F4E0D003168040000294F
:1036A00002D100F073FB30602900200000F06EFBB7
:1036B000431C0AD00323C51C9D43A84207D0291AE6
:1036C000200000F063FB431C01D101256D4228005E
:1036D00070BDC04664060020F7B50322CB1C93439F
:1036E000083306001F000C2B32D20C27B94231D808
:1036F000300000F07BFB324D2B681C00002C2ED1DB
:1037000039003000FFF7C6FF0400431C1ED12C68AF
:103710002500002D4AD123682900E31830000193C9
:1037200000F034FB019B834243D123680337FF1A27
:1037300003239F4308370C2F00D20C273900300099
:10374000FFF7A8FF431C34D02368DF19276013E07C
:10375000002BCBDA0C23002533602800FEBD226845
:10376000D11B20D40B2917D9E2192760A34211D10C
:103770002A606368116053603000250000F03EFB52
:1037800007220B35231D9543EA1A9D42E5D05B1BAA
:10379000A350E2E75A60ECE76268A34201D12A60D5
:1037A000EAE75A60E8E723006468A7E72C006D6841
:1037B000AFE70C233000336000F020FBCDE7C046BC
:1037C00060060020F0B58E6885B007000C000392FB
:1037D00001939E423CD890238A89DB001A4234D060
:1037E0000969236860695B1A029303234343DD0F71
:1037F000ED18019B029801331B186D10AB4200D9E4
:103800001D00530532D529003800FFF765FF061E5D
:1038100009D10C233B6040230120A289404213437D
:10382000A38105B0F0BD029A2169FFF7ADFEA3891F
:10383000144A1A4080231343A381029B2661F61881
:1038400026606561019EED1AA560019B9E4200D92C
:10385000019E32000399206800F0B5FAA3680020A9
:103860009B1BA36023689E192660DAE72A003800B4
:1038700000F0CCFA061EE0D138002169FFF7C0FE47
:10388000C7E7C0467FFBFFFFF0B5A1B003901D0066
:103890008B890F0016001B0611D50B69002B0ED16A
:1038A0004021FFF719FF38603861002805D10C234B
:1038B000039A0138136021B0F0BD40237B610023DF
:1038C00008AC6361203363761033A3760795350027
:1038D0002B78002B01D0252B47D1AB1B0593B5428C
:1038E0000CD0320039000398FFF76CFF431C00D165
:1038F000AEE06269059B9446634463612B78002BBC
:1039000000D1A5E0012200235242626004A9543292
:1039100052186E1C2360E360A3601370A365052238
:103920003178544800F044FA751C00281FD12268F1
:10393000D30604D5532304A95B182021197013075B
:1039400004D5532304A95B182B21197033782A2B33
:1039500016D0350000210A20E3682A786E1C303A20
:10396000092A4ED9002911D117E00135B0E7414BA2
:103970002268C01A0123834013432E002360CEE740
:10398000079B191D1B680791002B01DB0B9304E0BB
:103990005B42E3600223134323602B782E2B0AD172
:1039A0006B782A2B35D1079B02351A1D1B680792AD
:1039B000002B2BDB0993304E03223000297800F0D6
:1039C000F7F9002806D04023801B83402268013588
:1039D000134323602978062228486E1C217600F0C4
:1039E000E7F900283CD0264B002B25D10722079B66
:1039F00007339343083307936369049A9B18636101
:103A000065E74343350001219B18A6E701235B428C
:103A1000D0E700230A201A000135636029786E1C64
:103A20003039092903D9002BC5D00992C3E7424395
:103A3000350001235218F1E707AB00933A0021004B
:103A4000104B039800E000BF0490049B0133D3D1D6
:103A5000BB890D985B0600D42DE7012040422AE780
:103A600007AB00933A002100064B039800F07CF866
:103A7000EAE7C0468C4200009242000096420000F5
:103A800000000000C5370000F7B5150001938A68F3
:103A90000B690C000090934200DA130022002B60A7
:103AA00043321278002A01D001332B6023689B0631
:103AB00002D52B6802332B602268062317001F40B3
:103AC0001A4227D0230043331B785A1E93412268A1
:103AD000920630D4220001990098089E4332B047E4
:103AE000431C25D0062320682A68E168002503408E
:103AF000042B03D18D1AEB43DB171D40A368226909
:103B0000934201DD9B1AED180027BD4220D1002011
:103B100010E00137E3682A689B1ABB42D2DD22001D
:103B2000012301990098089E1932B047431CF0D137
:103B300001204042FEBD3020E118433108702100D1
:103B40005A1C45310978A218433202331170C1E77B
:103B50002200012301990098089E1A32B047431CA5
:103B6000E6D00137D1E70000F0B58BB006920A002D
:103B700043320793059004920A7E0C00109B782A2A
:103B800007D8622A09D8002A00D1C1E0582A00D1FA
:103B90008CE026004236327022E01000633815288F
:103BA000F7D800F06BF916001F00F6FFF6FFF6FFDE
:103BB000F6FF1F00F6FFF6FFF6FFF6FFA80036003F
:103BC0009A00F6FFF6FFB900F6FF3600F6FFF6FFA3
:103BD0009E0026001A684236111D19601368337062
:103BE0000123A7E0086819680A1D05060BD50D68B2
:103BF0001A60002D03DA2D23049A6D421370614B75
:103C00000A2703931BE00D681A604106F1D52DB217
:103C1000EFE70D681968081D18602E0601D50D68BC
:103C200003E06D06FBD50D68ADB2564B0827039334
:103C30006F2A00D002372300002243331A706368D2
:103C4000A360002B03DB0422216891432160002D37
:103C500002D1049E002B0CD0049E28003900FFF7EF
:103C600053FC039B013E5B5C33702B0005009F42BD
:103C7000F3D9082F09D12368DB0706D563682269C9
:103C8000934202DC3023013E3370049B9B1B236173
:103C9000079B210000930598069B09AAFFF7F4FEF5
:103CA000431C4CD1012040420BB0F0BD45310A709D
:103CB000344A03921A68216820CA1A60080616D589
:103CC000CB0702D52023194321601027002DB2D144
:103CD000202322689A432260ADE7202209680A4324
:103CE00022602200782145321170274AE1E7480618
:103CF000E6D5ADB2E4E71A680D68101D4969186091
:103D000013682E0601D5196002E06D06FBD51980F7
:103D10000023049E2361BBE71A68111D1960166811
:103D200000213000626800F043F8002801D0801BB9
:103D30006060636823610023049A1370A8E7236915
:103D4000320006990598079DA847431CAAD023680E
:103D50009B0715D4099BE0689842A5DA1800A3E7F1
:103D60002200012306990598079E1932B047431C8B
:103D700098D00135E368099A9B1AAB42F0DCE9E779
:103D80000025F7E79D420000AE420000002370B519
:103D9000064D040008002B6000F07AF8431C03D1A4
:103DA0002B68002B00D0236070BDC0465806002051
:103DB000C9B28218904201D10020704703788B422B
:103DC000FBD00130F6E710B5884202D98B18984233
:103DD00003D3002307E08B5C8354013AFBD210BD70
:103DE000CC5CC45401339A42FAD1F8E710B50248CA
:103DF000FFF703FC10BDC0465C06002010B502486A
:103E0000FFF7FCFB10BDC0465C060020F7B50700BD
:103E10000E001400002905D11100FFF75DFC05001C
:103E20002800FEBD002A03D1FFF7EAFB2500F7E7D3
:103E300000F01BF80190844203D835004308A342E8
:103E4000EED321003800FFF747FC051EE8D0019BA8
:103E500022009C4200D91A0031002800FFF794FB91
:103E600031003800FFF7CCFBDAE70B1F1B68181F87
:103E7000002B01DA0B58C0187047000003B47146DC
:103E8000490840004900095E49008E4403BC704760
:103E9000044A03001068002802D0C318136070475A
:103EA0000148FAE76806002070060020FEE7C046D9
:103EB000F8B5C046F8BC08BC9E467047F8B5C04689
:103EC000F8BC08BC9E4670475E0700002A08000048
:103ED0002A0800002A0800002A0800002A0800001A
:103EE0002A0800002A0800009E0700002A08000097
:103EF0002A0800002A0800002A0800002A080000FA
:103F00002A0800002A080000760700002A0800009E
:103F10002A0800002A0800002A0800002A080000D9
:103F20002A0800002A080000820700002A08000072
:103F30002A0800002A0800002A0800002A080000B9
:103F40002A0800002A080000940700002A08000040
:103F50002A0800002A0800002A0800002A08000099
:103F60002A0800002A08000082070000001BB70092
:103F700000800000000000000000000000000000C1
:103F8000102700000000000000366E011201100131
:103F900002000040160402B0000301020301000009
:103FA00009024300020100C03209040000010202BC
:103FB0000100052400100105240100010424020071
:103FC0000524060001070583030800010904010018
:103FD000020A0000000705810240000007050202F6
:103FE000400000000403090410034E007500760031
:103FF0006F0074006F006E002003550053004200F4
:1040000020005600690072007400750061006C00A9
:10401000200043004F004D001A03410030003200E1
:1040200030003100340030003900300033003000FF
:10403000350000008C3F0000A03F00000000002081
:104040000000000000000000000000000000000070
:104050004932434661696C004272644E457869207A
:10406000000000004261744E4578692000000000A5
:1040700043687267457272200000000043687267EF
:10408000507263200000000043687267446F6E2026
:104090000000000025376420000000002523375869
:1040A000200000004E554D42455220203A2020204D
:1040B00020202020302020202020202031202020DF
:1040C00020202020322020202020202033202020CB
:1040D0002020202034202020202020203500000017
:1040E00053544154452020203A200000564F4C5450
:1040F000414745203A20000043555252454E542036
:104100003A20000054454D50202020203A20000045
:1041100043415041434954593A20000053544154BB
:10412000555320203A200000010202040000000044
:10413000040000000C00000024000000000000004B
:10414000040000002C000000582B000094290000FF
:10415000B0290000942A0000582B0000582B0000C2
:10416000582B0000582B0000582B0000582B000043
:10417000582B0000582B0000582B0000582B000033
:10418000582B0000182B0000582B0000582B000063
:10419000582B0000582B0000582B0000582B000013
:1041A000582B0000582B0000582B0000582B000003
:1041B000582B0000582B0000582B0000582B0000F3
:1041C000582B0000582B0000582B0000062A000036
:1041D000382A0000CA2E00005A2D0000CA2E000006
:1041E000622E0000CA2E0000182E0000CA2E000009
:1041F000CA2E0000CA2E0000362E0000CA2E000073
:104200009E2E000001020204001BB7000080000087
:1042100000D8B80510270000006CDC02006CDC023E
:104220000000000000366E01600000200000000069
:10423000000000000000000000000000000000007E
:10424000000000000000000000000000000000006E
:10425000000000000000000000000000000000005E
:10426000000000000000000000000000000000004E
:10427000000000000000000000000000000000003E
:10428000000000000000000000000000232D302B83
:104290002000686C4C006566674546470030313247
:1042A000333435363738394142434445460030319E
:1042B00032333435363738396162636465660000FD
:0442C00000000000FA
:0842C40044BEFF7F0100000071
:1042CC00E43F0000E83F0000F83F00001840000009
:1042DC0000C2010000000800504200508C42005007
:1042EC0084420050B4420050AC420050A4420050F2
:1042FC00544200508842005080420050B04200505E
:10430C00A8420050A0420050AC0D00000800000074
:10431C0000D8B8056000000000D8B8056000002087
:10432C00000000004C4200006C4200002C420000D7
:10433C000000000000000000000000000000000071
:10434C000000000000000000000000000000000061
:10435C000000000000000000000000000000000051
:10436C000000000000000000000000000000000041
:10437C000000000000000000000000000000000031
:08438C00E9000000C10000007F
:040000030000327156
:00000001FF
